{
	"contracts/OnChainWhitelistContract.sol": {
		"OnChainWhitelistContract": {
			"abi": [
				{
					"anonymous": false,
					"inputs": [
						{
							"indexed": true,
							"internalType": "address",
							"name": "previousOwner",
							"type": "address"
						},
						{
							"indexed": true,
							"internalType": "address",
							"name": "newOwner",
							"type": "address"
						}
					],
					"name": "OwnershipTransferred",
					"type": "event"
				},
				{
					"inputs": [
						{
							"internalType": "address[]",
							"name": "toAddAddresses",
							"type": "address[]"
						}
					],
					"name": "addToWhitelist",
					"outputs": [],
					"stateMutability": "nonpayable",
					"type": "function"
				},
				{
					"inputs": [],
					"name": "getFtsoWhitelistedPriceProviders",
					"outputs": [
						{
							"internalType": "address[]",
							"name": "",
							"type": "address[]"
						}
					],
					"stateMutability": "view",
					"type": "function"
				},
				{
					"inputs": [],
					"name": "isOwner",
					"outputs": [
						{
							"internalType": "bool",
							"name": "",
							"type": "bool"
						}
					],
					"stateMutability": "view",
					"type": "function"
				},
				{
					"inputs": [],
					"name": "owner",
					"outputs": [
						{
							"internalType": "address",
							"name": "",
							"type": "address"
						}
					],
					"stateMutability": "view",
					"type": "function"
				},
				{
					"inputs": [
						{
							"internalType": "address[]",
							"name": "toRemoveAddresses",
							"type": "address[]"
						}
					],
					"name": "removeFromWhitelist",
					"outputs": [],
					"stateMutability": "nonpayable",
					"type": "function"
				},
				{
					"inputs": [],
					"name": "renounceOwnership",
					"outputs": [],
					"stateMutability": "nonpayable",
					"type": "function"
				},
				{
					"inputs": [
						{
							"internalType": "address",
							"name": "newOwner",
							"type": "address"
						}
					],
					"name": "transferOwnership",
					"outputs": [],
					"stateMutability": "nonpayable",
					"type": "function"
				},
				{
					"inputs": [
						{
							"internalType": "address",
							"name": "",
							"type": "address"
						}
					],
					"name": "whitelist",
					"outputs": [
						{
							"internalType": "bool",
							"name": "",
							"type": "bool"
						}
					],
					"stateMutability": "view",
					"type": "function"
				}
			],
			"devdoc": {
				"kind": "dev",
				"methods": {},
				"version": 1
			},
			"evm": {
				"assembly": "    /* \"contracts/OnChainWhitelistContract.sol\":252:1329  contract OnChainWhitelistContract is Ownable {... */\n  mstore(0x40, 0x80)\n  callvalue\n  dup1\n  iszero\n  tag_1\n  jumpi\n  0x00\n  dup1\n  revert\ntag_1:\n  pop\n    /* \"contracts/Ownable.sol\":241:251  msg.sender */\n  caller\n    /* \"contracts/Ownable.sol\":232:238  _owner */\n  0x00\n  dup1\n    /* \"contracts/Ownable.sol\":232:251  _owner = msg.sender */\n  0x0100\n  exp\n  dup2\n  sload\n  dup2\n  0xffffffffffffffffffffffffffffffffffffffff\n  mul\n  not\n  and\n  swap1\n  dup4\n  0xffffffffffffffffffffffffffffffffffffffff\n  and\n  mul\n  or\n  swap1\n  sstore\n  pop\n    /* \"contracts/Ownable.sol\":300:306  _owner */\n  0x00\n  dup1\n  sload\n  swap1\n  0x0100\n  exp\n  swap1\n  div\n  0xffffffffffffffffffffffffffffffffffffffff\n  and\n    /* \"contracts/Ownable.sol\":267:307  OwnershipTransferred(address(0), _owner) */\n  0xffffffffffffffffffffffffffffffffffffffff\n  and\n    /* \"contracts/Ownable.sol\":296:297  0 */\n  0x00\n    /* \"contracts/Ownable.sol\":267:307  OwnershipTransferred(address(0), _owner) */\n  0xffffffffffffffffffffffffffffffffffffffff\n  and\n  0x8be0079c531659141344cd1fd0a4f28419497f9722a3daafe3b4186f6b6457e0\n  mload(0x40)\n  mload(0x40)\n  dup1\n  swap2\n  sub\n  swap1\n  log3\n    /* \"contracts/OnChainWhitelistContract.sol\":252:1329  contract OnChainWhitelistContract is Ownable {... */\n  dataSize(sub_0)\n  dup1\n  dataOffset(sub_0)\n  0x00\n  codecopy\n  0x00\n  return\nstop\n\nsub_0: assembly {\n        /* \"contracts/OnChainWhitelistContract.sol\":252:1329  contract OnChainWhitelistContract is Ownable {... */\n      mstore(0x40, 0x80)\n      callvalue\n      dup1\n      iszero\n      tag_1\n      jumpi\n      0x00\n      dup1\n      revert\n    tag_1:\n      pop\n      jumpi(tag_2, lt(calldatasize, 0x04))\n      shr(0xe0, calldataload(0x00))\n      dup1\n      0x8da5cb5b\n      gt\n      tag_11\n      jumpi\n      dup1\n      0x8da5cb5b\n      eq\n      tag_7\n      jumpi\n      dup1\n      0x8f32d59b\n      eq\n      tag_8\n      jumpi\n      dup1\n      0x9b19251a\n      eq\n      tag_9\n      jumpi\n      dup1\n      0xf2fde38b\n      eq\n      tag_10\n      jumpi\n      jump(tag_2)\n    tag_11:\n      dup1\n      0x548db174\n      eq\n      tag_3\n      jumpi\n      dup1\n      0x64a62ec4\n      eq\n      tag_4\n      jumpi\n      dup1\n      0x715018a6\n      eq\n      tag_5\n      jumpi\n      dup1\n      0x7f649783\n      eq\n      tag_6\n      jumpi\n    tag_2:\n      0x00\n      dup1\n      revert\n        /* \"contracts/OnChainWhitelistContract.sol\":678:899  function removeFromWhitelist(address[] calldata toRemoveAddresses) external onlyOwner {... */\n    tag_3:\n      tag_12\n      0x04\n      dup1\n      calldatasize\n      sub\n      dup2\n      add\n      swap1\n      tag_13\n      swap2\n      swap1\n      tag_14\n      jump\t// in\n    tag_13:\n      tag_15\n      jump\t// in\n    tag_12:\n      stop\n        /* \"contracts/OnChainWhitelistContract.sol\":965:1326  function getFtsoWhitelistedPriceProviders() external view returns (address[] memory) {... */\n    tag_4:\n      tag_16\n      tag_17\n      jump\t// in\n    tag_16:\n      mload(0x40)\n      tag_18\n      swap2\n      swap1\n      tag_19\n      jump\t// in\n    tag_18:\n      mload(0x40)\n      dup1\n      swap2\n      sub\n      swap1\n      return\n        /* \"contracts/Ownable.sol\":624:764  function renounceOwnership() public onlyOwner {... */\n    tag_5:\n      tag_20\n      tag_21\n      jump\t// in\n    tag_20:\n      stop\n        /* \"contracts/OnChainWhitelistContract.sol\":407:614  function addToWhitelist(address[] calldata toAddAddresses) external onlyOwner {... */\n    tag_6:\n      tag_22\n      0x04\n      dup1\n      calldatasize\n      sub\n      dup2\n      add\n      swap1\n      tag_23\n      swap2\n      swap1\n      tag_14\n      jump\t// in\n    tag_23:\n      tag_24\n      jump\t// in\n    tag_22:\n      stop\n        /* \"contracts/Ownable.sol\":323:402  function owner() public view returns (address) {... */\n    tag_7:\n      tag_25\n      tag_26\n      jump\t// in\n    tag_25:\n      mload(0x40)\n      tag_27\n      swap2\n      swap1\n      tag_28\n      jump\t// in\n    tag_27:\n      mload(0x40)\n      dup1\n      swap2\n      sub\n      swap1\n      return\n        /* \"contracts/Ownable.sol\":524:616  function isOwner() public view returns (bool) {... */\n    tag_8:\n      tag_29\n      tag_30\n      jump\t// in\n    tag_29:\n      mload(0x40)\n      tag_31\n      swap2\n      swap1\n      tag_32\n      jump\t// in\n    tag_31:\n      mload(0x40)\n      dup1\n      swap2\n      sub\n      swap1\n      return\n        /* \"contracts/OnChainWhitelistContract.sol\":306:347  mapping(address => bool) public whitelist */\n    tag_9:\n      tag_33\n      0x04\n      dup1\n      calldatasize\n      sub\n      dup2\n      add\n      swap1\n      tag_34\n      swap2\n      swap1\n      tag_35\n      jump\t// in\n    tag_34:\n      tag_36\n      jump\t// in\n    tag_33:\n      mload(0x40)\n      tag_37\n      swap2\n      swap1\n      tag_32\n      jump\t// in\n    tag_37:\n      mload(0x40)\n      dup1\n      swap2\n      sub\n      swap1\n      return\n        /* \"contracts/Ownable.sol\":772:881  function transferOwnership(address newOwner) public onlyOwner {... */\n    tag_10:\n      tag_38\n      0x04\n      dup1\n      calldatasize\n      sub\n      dup2\n      add\n      swap1\n      tag_39\n      swap2\n      swap1\n      tag_35\n      jump\t// in\n    tag_39:\n      tag_40\n      jump\t// in\n    tag_38:\n      stop\n        /* \"contracts/OnChainWhitelistContract.sol\":678:899  function removeFromWhitelist(address[] calldata toRemoveAddresses) external onlyOwner {... */\n    tag_15:\n        /* \"contracts/Ownable.sol\":450:459  isOwner() */\n      tag_42\n        /* \"contracts/Ownable.sol\":450:457  isOwner */\n      tag_30\n        /* \"contracts/Ownable.sol\":450:459  isOwner() */\n      jump\t// in\n    tag_42:\n        /* \"contracts/Ownable.sol\":442:496  require(isOwner(), \"Ownable: caller is not the owner\") */\n      tag_43\n      jumpi\n      mload(0x40)\n      0x08c379a000000000000000000000000000000000000000000000000000000000\n      dup2\n      mstore\n      0x04\n      add\n      tag_44\n      swap1\n      tag_45\n      jump\t// in\n    tag_44:\n      mload(0x40)\n      dup1\n      swap2\n      sub\n      swap1\n      revert\n    tag_43:\n        /* \"contracts/OnChainWhitelistContract.sol\":780:786  uint i */\n      0x00\n        /* \"contracts/OnChainWhitelistContract.sol\":775:892  for (uint i = 0; i < toRemoveAddresses.length; i++) {... */\n    tag_47:\n        /* \"contracts/OnChainWhitelistContract.sol\":796:813  toRemoveAddresses */\n      dup3\n      dup3\n        /* \"contracts/OnChainWhitelistContract.sol\":796:820  toRemoveAddresses.length */\n      swap1\n      pop\n        /* \"contracts/OnChainWhitelistContract.sol\":792:793  i */\n      dup2\n        /* \"contracts/OnChainWhitelistContract.sol\":792:820  i < toRemoveAddresses.length */\n      lt\n        /* \"contracts/OnChainWhitelistContract.sol\":775:892  for (uint i = 0; i < toRemoveAddresses.length; i++) {... */\n      iszero\n      tag_48\n      jumpi\n        /* \"contracts/OnChainWhitelistContract.sol\":849:858  whitelist */\n      0x01\n        /* \"contracts/OnChainWhitelistContract.sol\":849:880  whitelist[toRemoveAddresses[i]] */\n      0x00\n        /* \"contracts/OnChainWhitelistContract.sol\":859:876  toRemoveAddresses */\n      dup5\n      dup5\n        /* \"contracts/OnChainWhitelistContract.sol\":877:878  i */\n      dup5\n        /* \"contracts/OnChainWhitelistContract.sol\":859:879  toRemoveAddresses[i] */\n      dup2\n      dup2\n      lt\n      tag_50\n      jumpi\n      tag_51\n      tag_52\n      jump\t// in\n    tag_51:\n    tag_50:\n      swap1\n      pop\n      0x20\n      mul\n      add\n      0x20\n      dup2\n      add\n      swap1\n      tag_53\n      swap2\n      swap1\n      tag_35\n      jump\t// in\n    tag_53:\n        /* \"contracts/OnChainWhitelistContract.sol\":849:880  whitelist[toRemoveAddresses[i]] */\n      0xffffffffffffffffffffffffffffffffffffffff\n      and\n      0xffffffffffffffffffffffffffffffffffffffff\n      and\n      dup2\n      mstore\n      0x20\n      add\n      swap1\n      dup2\n      mstore\n      0x20\n      add\n      0x00\n      keccak256\n      0x00\n        /* \"contracts/OnChainWhitelistContract.sol\":842:880  delete whitelist[toRemoveAddresses[i]] */\n      0x0100\n      exp\n      dup2\n      sload\n      swap1\n      0xff\n      mul\n      not\n      and\n      swap1\n      sstore\n        /* \"contracts/OnChainWhitelistContract.sol\":822:825  i++ */\n      dup1\n      dup1\n      tag_54\n      swap1\n      tag_55\n      jump\t// in\n    tag_54:\n      swap2\n      pop\n      pop\n        /* \"contracts/OnChainWhitelistContract.sol\":775:892  for (uint i = 0; i < toRemoveAddresses.length; i++) {... */\n      jump(tag_47)\n    tag_48:\n      pop\n        /* \"contracts/OnChainWhitelistContract.sol\":678:899  function removeFromWhitelist(address[] calldata toRemoveAddresses) external onlyOwner {... */\n      pop\n      pop\n      jump\t// out\n        /* \"contracts/OnChainWhitelistContract.sol\":965:1326  function getFtsoWhitelistedPriceProviders() external view returns (address[] memory) {... */\n    tag_17:\n        /* \"contracts/OnChainWhitelistContract.sol\":1032:1048  address[] memory */\n      0x60\n        /* \"contracts/OnChainWhitelistContract.sol\":1069:1078  whitelist */\n      0x01\n        /* \"contracts/OnChainWhitelistContract.sol\":1069:1090  whitelist[msg.sender] */\n      0x00\n        /* \"contracts/OnChainWhitelistContract.sol\":1079:1089  msg.sender */\n      caller\n        /* \"contracts/OnChainWhitelistContract.sol\":1069:1090  whitelist[msg.sender] */\n      0xffffffffffffffffffffffffffffffffffffffff\n      and\n      0xffffffffffffffffffffffffffffffffffffffff\n      and\n      dup2\n      mstore\n      0x20\n      add\n      swap1\n      dup2\n      mstore\n      0x20\n      add\n      0x00\n      keccak256\n      0x00\n      swap1\n      sload\n      swap1\n      0x0100\n      exp\n      swap1\n      div\n      0xff\n      and\n        /* \"contracts/OnChainWhitelistContract.sol\":1061:1111  require(whitelist[msg.sender], \"NOT_IN_WHITELIST\") */\n      tag_57\n      jumpi\n      mload(0x40)\n      0x08c379a000000000000000000000000000000000000000000000000000000000\n      dup2\n      mstore\n      0x04\n      add\n      tag_58\n      swap1\n      tag_59\n      jump\t// in\n    tag_58:\n      mload(0x40)\n      dup1\n      swap2\n      sub\n      swap1\n      revert\n    tag_57:\n        /* \"contracts/OnChainWhitelistContract.sol\":1210:1236  address[] memory providers */\n      0x00\n        /* \"contracts/OnChainWhitelistContract.sol\":1253:1254  0 */\n      dup1\n        /* \"contracts/OnChainWhitelistContract.sol\":1239:1255  new address[](0) */\n      0xffffffffffffffff\n      dup2\n      gt\n      iszero\n      tag_60\n      jumpi\n      tag_61\n      tag_62\n      jump\t// in\n    tag_61:\n    tag_60:\n      mload(0x40)\n      swap1\n      dup1\n      dup3\n      mstore\n      dup1\n      0x20\n      mul\n      0x20\n      add\n      dup3\n      add\n      0x40\n      mstore\n      dup1\n      iszero\n      tag_63\n      jumpi\n      dup2\n      0x20\n      add\n      0x20\n      dup3\n      mul\n      dup1\n      calldatasize\n      dup4\n      calldatacopy\n      dup1\n      dup3\n      add\n      swap2\n      pop\n      pop\n      swap1\n      pop\n    tag_63:\n      pop\n        /* \"contracts/OnChainWhitelistContract.sol\":1210:1255  address[] memory providers = new address[](0) */\n      swap1\n      pop\n        /* \"contracts/OnChainWhitelistContract.sol\":1281:1291  msg.sender */\n      caller\n        /* \"contracts/OnChainWhitelistContract.sol\":1266:1275  providers */\n      dup2\n        /* \"contracts/OnChainWhitelistContract.sol\":1276:1277  0 */\n      0x00\n        /* \"contracts/OnChainWhitelistContract.sol\":1266:1278  providers[0] */\n      dup2\n      mload\n      dup2\n      lt\n      tag_64\n      jumpi\n      tag_65\n      tag_52\n      jump\t// in\n    tag_65:\n    tag_64:\n      0x20\n      mul\n      0x20\n      add\n      add\n        /* \"contracts/OnChainWhitelistContract.sol\":1266:1291  providers[0] = msg.sender */\n      swap1\n      0xffffffffffffffffffffffffffffffffffffffff\n      and\n      swap1\n      dup2\n      0xffffffffffffffffffffffffffffffffffffffff\n      and\n      dup2\n      mstore\n      pop\n      pop\n        /* \"contracts/OnChainWhitelistContract.sol\":1309:1318  providers */\n      dup1\n        /* \"contracts/OnChainWhitelistContract.sol\":1302:1318  return providers */\n      swap2\n      pop\n      pop\n        /* \"contracts/OnChainWhitelistContract.sol\":965:1326  function getFtsoWhitelistedPriceProviders() external view returns (address[] memory) {... */\n      swap1\n      jump\t// out\n        /* \"contracts/Ownable.sol\":624:764  function renounceOwnership() public onlyOwner {... */\n    tag_21:\n        /* \"contracts/Ownable.sol\":450:459  isOwner() */\n      tag_67\n        /* \"contracts/Ownable.sol\":450:457  isOwner */\n      tag_30\n        /* \"contracts/Ownable.sol\":450:459  isOwner() */\n      jump\t// in\n    tag_67:\n        /* \"contracts/Ownable.sol\":442:496  require(isOwner(), \"Ownable: caller is not the owner\") */\n      tag_68\n      jumpi\n      mload(0x40)\n      0x08c379a000000000000000000000000000000000000000000000000000000000\n      dup2\n      mstore\n      0x04\n      add\n      tag_69\n      swap1\n      tag_45\n      jump\t// in\n    tag_69:\n      mload(0x40)\n      dup1\n      swap2\n      sub\n      swap1\n      revert\n    tag_68:\n        /* \"contracts/Ownable.sol\":723:724  0 */\n      0x00\n        /* \"contracts/Ownable.sol\":686:726  OwnershipTransferred(_owner, address(0)) */\n      0xffffffffffffffffffffffffffffffffffffffff\n      and\n        /* \"contracts/Ownable.sol\":707:713  _owner */\n      0x00\n      dup1\n      sload\n      swap1\n      0x0100\n      exp\n      swap1\n      div\n      0xffffffffffffffffffffffffffffffffffffffff\n      and\n        /* \"contracts/Ownable.sol\":686:726  OwnershipTransferred(_owner, address(0)) */\n      0xffffffffffffffffffffffffffffffffffffffff\n      and\n      0x8be0079c531659141344cd1fd0a4f28419497f9722a3daafe3b4186f6b6457e0\n      mload(0x40)\n      mload(0x40)\n      dup1\n      swap2\n      sub\n      swap1\n      log3\n        /* \"contracts/Ownable.sol\":754:755  0 */\n      0x00\n        /* \"contracts/Ownable.sol\":737:743  _owner */\n      dup1\n      0x00\n        /* \"contracts/Ownable.sol\":737:756  _owner = address(0) */\n      0x0100\n      exp\n      dup2\n      sload\n      dup2\n      0xffffffffffffffffffffffffffffffffffffffff\n      mul\n      not\n      and\n      swap1\n      dup4\n      0xffffffffffffffffffffffffffffffffffffffff\n      and\n      mul\n      or\n      swap1\n      sstore\n      pop\n        /* \"contracts/Ownable.sol\":624:764  function renounceOwnership() public onlyOwner {... */\n      jump\t// out\n        /* \"contracts/OnChainWhitelistContract.sol\":407:614  function addToWhitelist(address[] calldata toAddAddresses) external onlyOwner {... */\n    tag_24:\n        /* \"contracts/Ownable.sol\":450:459  isOwner() */\n      tag_72\n        /* \"contracts/Ownable.sol\":450:457  isOwner */\n      tag_30\n        /* \"contracts/Ownable.sol\":450:459  isOwner() */\n      jump\t// in\n    tag_72:\n        /* \"contracts/Ownable.sol\":442:496  require(isOwner(), \"Ownable: caller is not the owner\") */\n      tag_73\n      jumpi\n      mload(0x40)\n      0x08c379a000000000000000000000000000000000000000000000000000000000\n      dup2\n      mstore\n      0x04\n      add\n      tag_74\n      swap1\n      tag_45\n      jump\t// in\n    tag_74:\n      mload(0x40)\n      dup1\n      swap2\n      sub\n      swap1\n      revert\n    tag_73:\n        /* \"contracts/OnChainWhitelistContract.sol\":501:507  uint i */\n      0x00\n        /* \"contracts/OnChainWhitelistContract.sol\":496:607  for (uint i = 0; i < toAddAddresses.length; i++) {... */\n    tag_76:\n        /* \"contracts/OnChainWhitelistContract.sol\":517:531  toAddAddresses */\n      dup3\n      dup3\n        /* \"contracts/OnChainWhitelistContract.sol\":517:538  toAddAddresses.length */\n      swap1\n      pop\n        /* \"contracts/OnChainWhitelistContract.sol\":513:514  i */\n      dup2\n        /* \"contracts/OnChainWhitelistContract.sol\":513:538  i < toAddAddresses.length */\n      lt\n        /* \"contracts/OnChainWhitelistContract.sol\":496:607  for (uint i = 0; i < toAddAddresses.length; i++) {... */\n      iszero\n      tag_77\n      jumpi\n        /* \"contracts/OnChainWhitelistContract.sol\":591:595  true */\n      0x01\n        /* \"contracts/OnChainWhitelistContract.sol\":560:569  whitelist */\n      dup1\n        /* \"contracts/OnChainWhitelistContract.sol\":560:588  whitelist[toAddAddresses[i]] */\n      0x00\n        /* \"contracts/OnChainWhitelistContract.sol\":570:584  toAddAddresses */\n      dup6\n      dup6\n        /* \"contracts/OnChainWhitelistContract.sol\":585:586  i */\n      dup6\n        /* \"contracts/OnChainWhitelistContract.sol\":570:587  toAddAddresses[i] */\n      dup2\n      dup2\n      lt\n      tag_79\n      jumpi\n      tag_80\n      tag_52\n      jump\t// in\n    tag_80:\n    tag_79:\n      swap1\n      pop\n      0x20\n      mul\n      add\n      0x20\n      dup2\n      add\n      swap1\n      tag_81\n      swap2\n      swap1\n      tag_35\n      jump\t// in\n    tag_81:\n        /* \"contracts/OnChainWhitelistContract.sol\":560:588  whitelist[toAddAddresses[i]] */\n      0xffffffffffffffffffffffffffffffffffffffff\n      and\n      0xffffffffffffffffffffffffffffffffffffffff\n      and\n      dup2\n      mstore\n      0x20\n      add\n      swap1\n      dup2\n      mstore\n      0x20\n      add\n      0x00\n      keccak256\n      0x00\n        /* \"contracts/OnChainWhitelistContract.sol\":560:595  whitelist[toAddAddresses[i]] = true */\n      0x0100\n      exp\n      dup2\n      sload\n      dup2\n      0xff\n      mul\n      not\n      and\n      swap1\n      dup4\n      iszero\n      iszero\n      mul\n      or\n      swap1\n      sstore\n      pop\n        /* \"contracts/OnChainWhitelistContract.sol\":540:543  i++ */\n      dup1\n      dup1\n      tag_82\n      swap1\n      tag_55\n      jump\t// in\n    tag_82:\n      swap2\n      pop\n      pop\n        /* \"contracts/OnChainWhitelistContract.sol\":496:607  for (uint i = 0; i < toAddAddresses.length; i++) {... */\n      jump(tag_76)\n    tag_77:\n      pop\n        /* \"contracts/OnChainWhitelistContract.sol\":407:614  function addToWhitelist(address[] calldata toAddAddresses) external onlyOwner {... */\n      pop\n      pop\n      jump\t// out\n        /* \"contracts/Ownable.sol\":323:402  function owner() public view returns (address) {... */\n    tag_26:\n        /* \"contracts/Ownable.sol\":361:368  address */\n      0x00\n        /* \"contracts/Ownable.sol\":388:394  _owner */\n      dup1\n      0x00\n      swap1\n      sload\n      swap1\n      0x0100\n      exp\n      swap1\n      div\n      0xffffffffffffffffffffffffffffffffffffffff\n      and\n        /* \"contracts/Ownable.sol\":381:394  return _owner */\n      swap1\n      pop\n        /* \"contracts/Ownable.sol\":323:402  function owner() public view returns (address) {... */\n      swap1\n      jump\t// out\n        /* \"contracts/Ownable.sol\":524:616  function isOwner() public view returns (bool) {... */\n    tag_30:\n        /* \"contracts/Ownable.sol\":564:568  bool */\n      0x00\n        /* \"contracts/Ownable.sol\":602:608  _owner */\n      dup1\n      0x00\n      swap1\n      sload\n      swap1\n      0x0100\n      exp\n      swap1\n      div\n      0xffffffffffffffffffffffffffffffffffffffff\n      and\n        /* \"contracts/Ownable.sol\":588:608  msg.sender == _owner */\n      0xffffffffffffffffffffffffffffffffffffffff\n      and\n        /* \"contracts/Ownable.sol\":588:598  msg.sender */\n      caller\n        /* \"contracts/Ownable.sol\":588:608  msg.sender == _owner */\n      0xffffffffffffffffffffffffffffffffffffffff\n      and\n      eq\n        /* \"contracts/Ownable.sol\":581:608  return msg.sender == _owner */\n      swap1\n      pop\n        /* \"contracts/Ownable.sol\":524:616  function isOwner() public view returns (bool) {... */\n      swap1\n      jump\t// out\n        /* \"contracts/OnChainWhitelistContract.sol\":306:347  mapping(address => bool) public whitelist */\n    tag_36:\n      mstore(0x20, 0x01)\n      dup1\n      0x00\n      mstore\n      keccak256(0x00, 0x40)\n      0x00\n      swap2\n      pop\n      sload\n      swap1\n      0x0100\n      exp\n      swap1\n      div\n      0xff\n      and\n      dup2\n      jump\t// out\n        /* \"contracts/Ownable.sol\":772:881  function transferOwnership(address newOwner) public onlyOwner {... */\n    tag_40:\n        /* \"contracts/Ownable.sol\":450:459  isOwner() */\n      tag_86\n        /* \"contracts/Ownable.sol\":450:457  isOwner */\n      tag_30\n        /* \"contracts/Ownable.sol\":450:459  isOwner() */\n      jump\t// in\n    tag_86:\n        /* \"contracts/Ownable.sol\":442:496  require(isOwner(), \"Ownable: caller is not the owner\") */\n      tag_87\n      jumpi\n      mload(0x40)\n      0x08c379a000000000000000000000000000000000000000000000000000000000\n      dup2\n      mstore\n      0x04\n      add\n      tag_88\n      swap1\n      tag_45\n      jump\t// in\n    tag_88:\n      mload(0x40)\n      dup1\n      swap2\n      sub\n      swap1\n      revert\n    tag_87:\n        /* \"contracts/Ownable.sol\":845:873  _transferOwnership(newOwner) */\n      tag_90\n        /* \"contracts/Ownable.sol\":864:872  newOwner */\n      dup2\n        /* \"contracts/Ownable.sol\":845:863  _transferOwnership */\n      tag_91\n        /* \"contracts/Ownable.sol\":845:873  _transferOwnership(newOwner) */\n      jump\t// in\n    tag_90:\n        /* \"contracts/Ownable.sol\":772:881  function transferOwnership(address newOwner) public onlyOwner {... */\n      pop\n      jump\t// out\n        /* \"contracts/Ownable.sol\":889:1118  function _transferOwnership(address newOwner) internal {... */\n    tag_91:\n        /* \"contracts/Ownable.sol\":983:984  0 */\n      0x00\n        /* \"contracts/Ownable.sol\":963:985  newOwner != address(0) */\n      0xffffffffffffffffffffffffffffffffffffffff\n      and\n        /* \"contracts/Ownable.sol\":963:971  newOwner */\n      dup2\n        /* \"contracts/Ownable.sol\":963:985  newOwner != address(0) */\n      0xffffffffffffffffffffffffffffffffffffffff\n      and\n      sub\n        /* \"contracts/Ownable.sol\":955:1028  require(newOwner != address(0), \"Ownable: new owner is the zero address\") */\n      tag_93\n      jumpi\n      mload(0x40)\n      0x08c379a000000000000000000000000000000000000000000000000000000000\n      dup2\n      mstore\n      0x04\n      add\n      tag_94\n      swap1\n      tag_95\n      jump\t// in\n    tag_94:\n      mload(0x40)\n      dup1\n      swap2\n      sub\n      swap1\n      revert\n    tag_93:\n        /* \"contracts/Ownable.sol\":1073:1081  newOwner */\n      dup1\n        /* \"contracts/Ownable.sol\":1044:1082  OwnershipTransferred(_owner, newOwner) */\n      0xffffffffffffffffffffffffffffffffffffffff\n      and\n        /* \"contracts/Ownable.sol\":1065:1071  _owner */\n      0x00\n      dup1\n      sload\n      swap1\n      0x0100\n      exp\n      swap1\n      div\n      0xffffffffffffffffffffffffffffffffffffffff\n      and\n        /* \"contracts/Ownable.sol\":1044:1082  OwnershipTransferred(_owner, newOwner) */\n      0xffffffffffffffffffffffffffffffffffffffff\n      and\n      0x8be0079c531659141344cd1fd0a4f28419497f9722a3daafe3b4186f6b6457e0\n      mload(0x40)\n      mload(0x40)\n      dup1\n      swap2\n      sub\n      swap1\n      log3\n        /* \"contracts/Ownable.sol\":1102:1110  newOwner */\n      dup1\n        /* \"contracts/Ownable.sol\":1093:1099  _owner */\n      0x00\n      dup1\n        /* \"contracts/Ownable.sol\":1093:1110  _owner = newOwner */\n      0x0100\n      exp\n      dup2\n      sload\n      dup2\n      0xffffffffffffffffffffffffffffffffffffffff\n      mul\n      not\n      and\n      swap1\n      dup4\n      0xffffffffffffffffffffffffffffffffffffffff\n      and\n      mul\n      or\n      swap1\n      sstore\n      pop\n        /* \"contracts/Ownable.sol\":889:1118  function _transferOwnership(address newOwner) internal {... */\n      pop\n      jump\t// out\n        /* \"#utility.yul\":88:205   */\n    tag_97:\n        /* \"#utility.yul\":197:198   */\n      0x00\n        /* \"#utility.yul\":194:195   */\n      dup1\n        /* \"#utility.yul\":187:199   */\n      revert\n        /* \"#utility.yul\":211:328   */\n    tag_98:\n        /* \"#utility.yul\":320:321   */\n      0x00\n        /* \"#utility.yul\":317:318   */\n      dup1\n        /* \"#utility.yul\":310:322   */\n      revert\n        /* \"#utility.yul\":334:451   */\n    tag_99:\n        /* \"#utility.yul\":443:444   */\n      0x00\n        /* \"#utility.yul\":440:441   */\n      dup1\n        /* \"#utility.yul\":433:445   */\n      revert\n        /* \"#utility.yul\":457:574   */\n    tag_100:\n        /* \"#utility.yul\":566:567   */\n      0x00\n        /* \"#utility.yul\":563:564   */\n      dup1\n        /* \"#utility.yul\":556:568   */\n      revert\n        /* \"#utility.yul\":580:697   */\n    tag_101:\n        /* \"#utility.yul\":689:690   */\n      0x00\n        /* \"#utility.yul\":686:687   */\n      dup1\n        /* \"#utility.yul\":679:691   */\n      revert\n        /* \"#utility.yul\":720:1288   */\n    tag_102:\n        /* \"#utility.yul\":793:801   */\n      0x00\n        /* \"#utility.yul\":803:809   */\n      dup1\n        /* \"#utility.yul\":853:856   */\n      dup4\n        /* \"#utility.yul\":846:850   */\n      0x1f\n        /* \"#utility.yul\":838:844   */\n      dup5\n        /* \"#utility.yul\":834:851   */\n      add\n        /* \"#utility.yul\":830:857   */\n      slt\n        /* \"#utility.yul\":820:942   */\n      tag_134\n      jumpi\n        /* \"#utility.yul\":861:940   */\n      tag_135\n      tag_99\n      jump\t// in\n    tag_135:\n        /* \"#utility.yul\":820:942   */\n    tag_134:\n        /* \"#utility.yul\":974:980   */\n      dup3\n        /* \"#utility.yul\":961:981   */\n      calldataload\n        /* \"#utility.yul\":951:981   */\n      swap1\n      pop\n        /* \"#utility.yul\":1004:1022   */\n      0xffffffffffffffff\n        /* \"#utility.yul\":996:1002   */\n      dup2\n        /* \"#utility.yul\":993:1023   */\n      gt\n        /* \"#utility.yul\":990:1107   */\n      iszero\n      tag_136\n      jumpi\n        /* \"#utility.yul\":1026:1105   */\n      tag_137\n      tag_100\n      jump\t// in\n    tag_137:\n        /* \"#utility.yul\":990:1107   */\n    tag_136:\n        /* \"#utility.yul\":1140:1144   */\n      0x20\n        /* \"#utility.yul\":1132:1138   */\n      dup4\n        /* \"#utility.yul\":1128:1145   */\n      add\n        /* \"#utility.yul\":1116:1145   */\n      swap2\n      pop\n        /* \"#utility.yul\":1194:1197   */\n      dup4\n        /* \"#utility.yul\":1186:1190   */\n      0x20\n        /* \"#utility.yul\":1178:1184   */\n      dup3\n        /* \"#utility.yul\":1174:1191   */\n      mul\n        /* \"#utility.yul\":1164:1172   */\n      dup4\n        /* \"#utility.yul\":1160:1192   */\n      add\n        /* \"#utility.yul\":1157:1198   */\n      gt\n        /* \"#utility.yul\":1154:1282   */\n      iszero\n      tag_138\n      jumpi\n        /* \"#utility.yul\":1201:1280   */\n      tag_139\n      tag_101\n      jump\t// in\n    tag_139:\n        /* \"#utility.yul\":1154:1282   */\n    tag_138:\n        /* \"#utility.yul\":720:1288   */\n      swap3\n      pop\n      swap3\n      swap1\n      pop\n      jump\t// out\n        /* \"#utility.yul\":1294:1853   */\n    tag_14:\n        /* \"#utility.yul\":1380:1386   */\n      0x00\n        /* \"#utility.yul\":1388:1394   */\n      dup1\n        /* \"#utility.yul\":1437:1439   */\n      0x20\n        /* \"#utility.yul\":1425:1434   */\n      dup4\n        /* \"#utility.yul\":1416:1423   */\n      dup6\n        /* \"#utility.yul\":1412:1435   */\n      sub\n        /* \"#utility.yul\":1408:1440   */\n      slt\n        /* \"#utility.yul\":1405:1524   */\n      iszero\n      tag_141\n      jumpi\n        /* \"#utility.yul\":1443:1522   */\n      tag_142\n      tag_97\n      jump\t// in\n    tag_142:\n        /* \"#utility.yul\":1405:1524   */\n    tag_141:\n        /* \"#utility.yul\":1591:1592   */\n      0x00\n        /* \"#utility.yul\":1580:1589   */\n      dup4\n        /* \"#utility.yul\":1576:1593   */\n      add\n        /* \"#utility.yul\":1563:1594   */\n      calldataload\n        /* \"#utility.yul\":1621:1639   */\n      0xffffffffffffffff\n        /* \"#utility.yul\":1613:1619   */\n      dup2\n        /* \"#utility.yul\":1610:1640   */\n      gt\n        /* \"#utility.yul\":1607:1724   */\n      iszero\n      tag_143\n      jumpi\n        /* \"#utility.yul\":1643:1722   */\n      tag_144\n      tag_98\n      jump\t// in\n    tag_144:\n        /* \"#utility.yul\":1607:1724   */\n    tag_143:\n        /* \"#utility.yul\":1756:1836   */\n      tag_145\n        /* \"#utility.yul\":1828:1835   */\n      dup6\n        /* \"#utility.yul\":1819:1825   */\n      dup3\n        /* \"#utility.yul\":1808:1817   */\n      dup7\n        /* \"#utility.yul\":1804:1826   */\n      add\n        /* \"#utility.yul\":1756:1836   */\n      tag_102\n      jump\t// in\n    tag_145:\n        /* \"#utility.yul\":1738:1836   */\n      swap3\n      pop\n      swap3\n      pop\n        /* \"#utility.yul\":1534:1846   */\n      pop\n        /* \"#utility.yul\":1294:1853   */\n      swap3\n      pop\n      swap3\n      swap1\n      pop\n      jump\t// out\n        /* \"#utility.yul\":1859:1973   */\n    tag_103:\n        /* \"#utility.yul\":1926:1932   */\n      0x00\n        /* \"#utility.yul\":1960:1965   */\n      dup2\n        /* \"#utility.yul\":1954:1966   */\n      mload\n        /* \"#utility.yul\":1944:1966   */\n      swap1\n      pop\n        /* \"#utility.yul\":1859:1973   */\n      swap2\n      swap1\n      pop\n      jump\t// out\n        /* \"#utility.yul\":1979:2163   */\n    tag_104:\n        /* \"#utility.yul\":2078:2089   */\n      0x00\n        /* \"#utility.yul\":2112:2118   */\n      dup3\n        /* \"#utility.yul\":2107:2110   */\n      dup3\n        /* \"#utility.yul\":2100:2119   */\n      mstore\n        /* \"#utility.yul\":2152:2156   */\n      0x20\n        /* \"#utility.yul\":2147:2150   */\n      dup3\n        /* \"#utility.yul\":2143:2157   */\n      add\n        /* \"#utility.yul\":2128:2157   */\n      swap1\n      pop\n        /* \"#utility.yul\":1979:2163   */\n      swap3\n      swap2\n      pop\n      pop\n      jump\t// out\n        /* \"#utility.yul\":2169:2301   */\n    tag_105:\n        /* \"#utility.yul\":2236:2240   */\n      0x00\n        /* \"#utility.yul\":2259:2262   */\n      dup2\n        /* \"#utility.yul\":2251:2262   */\n      swap1\n      pop\n        /* \"#utility.yul\":2289:2293   */\n      0x20\n        /* \"#utility.yul\":2284:2287   */\n      dup3\n        /* \"#utility.yul\":2280:2294   */\n      add\n        /* \"#utility.yul\":2272:2294   */\n      swap1\n      pop\n        /* \"#utility.yul\":2169:2301   */\n      swap2\n      swap1\n      pop\n      jump\t// out\n        /* \"#utility.yul\":2307:2433   */\n    tag_106:\n        /* \"#utility.yul\":2344:2351   */\n      0x00\n        /* \"#utility.yul\":2384:2426   */\n      0xffffffffffffffffffffffffffffffffffffffff\n        /* \"#utility.yul\":2377:2382   */\n      dup3\n        /* \"#utility.yul\":2373:2427   */\n      and\n        /* \"#utility.yul\":2362:2427   */\n      swap1\n      pop\n        /* \"#utility.yul\":2307:2433   */\n      swap2\n      swap1\n      pop\n      jump\t// out\n        /* \"#utility.yul\":2439:2535   */\n    tag_107:\n        /* \"#utility.yul\":2476:2483   */\n      0x00\n        /* \"#utility.yul\":2505:2529   */\n      tag_151\n        /* \"#utility.yul\":2523:2528   */\n      dup3\n        /* \"#utility.yul\":2505:2529   */\n      tag_106\n      jump\t// in\n    tag_151:\n        /* \"#utility.yul\":2494:2529   */\n      swap1\n      pop\n        /* \"#utility.yul\":2439:2535   */\n      swap2\n      swap1\n      pop\n      jump\t// out\n        /* \"#utility.yul\":2541:2649   */\n    tag_108:\n        /* \"#utility.yul\":2618:2642   */\n      tag_153\n        /* \"#utility.yul\":2636:2641   */\n      dup2\n        /* \"#utility.yul\":2618:2642   */\n      tag_107\n      jump\t// in\n    tag_153:\n        /* \"#utility.yul\":2613:2616   */\n      dup3\n        /* \"#utility.yul\":2606:2643   */\n      mstore\n        /* \"#utility.yul\":2541:2649   */\n      pop\n      pop\n      jump\t// out\n        /* \"#utility.yul\":2655:2834   */\n    tag_109:\n        /* \"#utility.yul\":2724:2734   */\n      0x00\n        /* \"#utility.yul\":2745:2791   */\n      tag_155\n        /* \"#utility.yul\":2787:2790   */\n      dup4\n        /* \"#utility.yul\":2779:2785   */\n      dup4\n        /* \"#utility.yul\":2745:2791   */\n      tag_108\n      jump\t// in\n    tag_155:\n        /* \"#utility.yul\":2823:2827   */\n      0x20\n        /* \"#utility.yul\":2818:2821   */\n      dup4\n        /* \"#utility.yul\":2814:2828   */\n      add\n        /* \"#utility.yul\":2800:2828   */\n      swap1\n      pop\n        /* \"#utility.yul\":2655:2834   */\n      swap3\n      swap2\n      pop\n      pop\n      jump\t// out\n        /* \"#utility.yul\":2840:2953   */\n    tag_110:\n        /* \"#utility.yul\":2910:2914   */\n      0x00\n        /* \"#utility.yul\":2942:2946   */\n      0x20\n        /* \"#utility.yul\":2937:2940   */\n      dup3\n        /* \"#utility.yul\":2933:2947   */\n      add\n        /* \"#utility.yul\":2925:2947   */\n      swap1\n      pop\n        /* \"#utility.yul\":2840:2953   */\n      swap2\n      swap1\n      pop\n      jump\t// out\n        /* \"#utility.yul\":2989:3721   */\n    tag_111:\n        /* \"#utility.yul\":3108:3111   */\n      0x00\n        /* \"#utility.yul\":3137:3191   */\n      tag_158\n        /* \"#utility.yul\":3185:3190   */\n      dup3\n        /* \"#utility.yul\":3137:3191   */\n      tag_103\n      jump\t// in\n    tag_158:\n        /* \"#utility.yul\":3207:3293   */\n      tag_159\n        /* \"#utility.yul\":3286:3292   */\n      dup2\n        /* \"#utility.yul\":3281:3284   */\n      dup6\n        /* \"#utility.yul\":3207:3293   */\n      tag_104\n      jump\t// in\n    tag_159:\n        /* \"#utility.yul\":3200:3293   */\n      swap4\n      pop\n        /* \"#utility.yul\":3317:3373   */\n      tag_160\n        /* \"#utility.yul\":3367:3372   */\n      dup4\n        /* \"#utility.yul\":3317:3373   */\n      tag_105\n      jump\t// in\n    tag_160:\n        /* \"#utility.yul\":3396:3403   */\n      dup1\n        /* \"#utility.yul\":3427:3428   */\n      0x00\n        /* \"#utility.yul\":3412:3696   */\n    tag_161:\n        /* \"#utility.yul\":3437:3443   */\n      dup4\n        /* \"#utility.yul\":3434:3435   */\n      dup2\n        /* \"#utility.yul\":3431:3444   */\n      lt\n        /* \"#utility.yul\":3412:3696   */\n      iszero\n      tag_163\n      jumpi\n        /* \"#utility.yul\":3513:3519   */\n      dup2\n        /* \"#utility.yul\":3507:3520   */\n      mload\n        /* \"#utility.yul\":3540:3603   */\n      tag_164\n        /* \"#utility.yul\":3599:3602   */\n      dup9\n        /* \"#utility.yul\":3584:3597   */\n      dup3\n        /* \"#utility.yul\":3540:3603   */\n      tag_109\n      jump\t// in\n    tag_164:\n        /* \"#utility.yul\":3533:3603   */\n      swap8\n      pop\n        /* \"#utility.yul\":3626:3686   */\n      tag_165\n        /* \"#utility.yul\":3679:3685   */\n      dup4\n        /* \"#utility.yul\":3626:3686   */\n      tag_110\n      jump\t// in\n    tag_165:\n        /* \"#utility.yul\":3616:3686   */\n      swap3\n      pop\n        /* \"#utility.yul\":3472:3696   */\n      pop\n        /* \"#utility.yul\":3459:3460   */\n      0x01\n        /* \"#utility.yul\":3456:3457   */\n      dup2\n        /* \"#utility.yul\":3452:3461   */\n      add\n        /* \"#utility.yul\":3447:3461   */\n      swap1\n      pop\n        /* \"#utility.yul\":3412:3696   */\n      jump(tag_161)\n    tag_163:\n        /* \"#utility.yul\":3416:3430   */\n      pop\n        /* \"#utility.yul\":3712:3715   */\n      dup6\n        /* \"#utility.yul\":3705:3715   */\n      swap4\n      pop\n        /* \"#utility.yul\":3113:3721   */\n      pop\n      pop\n      pop\n        /* \"#utility.yul\":2989:3721   */\n      swap3\n      swap2\n      pop\n      pop\n      jump\t// out\n        /* \"#utility.yul\":3727:4100   */\n    tag_19:\n        /* \"#utility.yul\":3870:3874   */\n      0x00\n        /* \"#utility.yul\":3908:3910   */\n      0x20\n        /* \"#utility.yul\":3897:3906   */\n      dup3\n        /* \"#utility.yul\":3893:3911   */\n      add\n        /* \"#utility.yul\":3885:3911   */\n      swap1\n      pop\n        /* \"#utility.yul\":3957:3966   */\n      dup2\n        /* \"#utility.yul\":3951:3955   */\n      dup2\n        /* \"#utility.yul\":3947:3967   */\n      sub\n        /* \"#utility.yul\":3943:3944   */\n      0x00\n        /* \"#utility.yul\":3932:3941   */\n      dup4\n        /* \"#utility.yul\":3928:3945   */\n      add\n        /* \"#utility.yul\":3921:3968   */\n      mstore\n        /* \"#utility.yul\":3985:4093   */\n      tag_167\n        /* \"#utility.yul\":4088:4092   */\n      dup2\n        /* \"#utility.yul\":4079:4085   */\n      dup5\n        /* \"#utility.yul\":3985:4093   */\n      tag_111\n      jump\t// in\n    tag_167:\n        /* \"#utility.yul\":3977:4093   */\n      swap1\n      pop\n        /* \"#utility.yul\":3727:4100   */\n      swap3\n      swap2\n      pop\n      pop\n      jump\t// out\n        /* \"#utility.yul\":4106:4224   */\n    tag_112:\n        /* \"#utility.yul\":4193:4217   */\n      tag_169\n        /* \"#utility.yul\":4211:4216   */\n      dup2\n        /* \"#utility.yul\":4193:4217   */\n      tag_107\n      jump\t// in\n    tag_169:\n        /* \"#utility.yul\":4188:4191   */\n      dup3\n        /* \"#utility.yul\":4181:4218   */\n      mstore\n        /* \"#utility.yul\":4106:4224   */\n      pop\n      pop\n      jump\t// out\n        /* \"#utility.yul\":4230:4452   */\n    tag_28:\n        /* \"#utility.yul\":4323:4327   */\n      0x00\n        /* \"#utility.yul\":4361:4363   */\n      0x20\n        /* \"#utility.yul\":4350:4359   */\n      dup3\n        /* \"#utility.yul\":4346:4364   */\n      add\n        /* \"#utility.yul\":4338:4364   */\n      swap1\n      pop\n        /* \"#utility.yul\":4374:4445   */\n      tag_171\n        /* \"#utility.yul\":4442:4443   */\n      0x00\n        /* \"#utility.yul\":4431:4440   */\n      dup4\n        /* \"#utility.yul\":4427:4444   */\n      add\n        /* \"#utility.yul\":4418:4424   */\n      dup5\n        /* \"#utility.yul\":4374:4445   */\n      tag_112\n      jump\t// in\n    tag_171:\n        /* \"#utility.yul\":4230:4452   */\n      swap3\n      swap2\n      pop\n      pop\n      jump\t// out\n        /* \"#utility.yul\":4458:4548   */\n    tag_113:\n        /* \"#utility.yul\":4492:4499   */\n      0x00\n        /* \"#utility.yul\":4535:4540   */\n      dup2\n        /* \"#utility.yul\":4528:4541   */\n      iszero\n        /* \"#utility.yul\":4521:4542   */\n      iszero\n        /* \"#utility.yul\":4510:4542   */\n      swap1\n      pop\n        /* \"#utility.yul\":4458:4548   */\n      swap2\n      swap1\n      pop\n      jump\t// out\n        /* \"#utility.yul\":4554:4663   */\n    tag_114:\n        /* \"#utility.yul\":4635:4656   */\n      tag_174\n        /* \"#utility.yul\":4650:4655   */\n      dup2\n        /* \"#utility.yul\":4635:4656   */\n      tag_113\n      jump\t// in\n    tag_174:\n        /* \"#utility.yul\":4630:4633   */\n      dup3\n        /* \"#utility.yul\":4623:4657   */\n      mstore\n        /* \"#utility.yul\":4554:4663   */\n      pop\n      pop\n      jump\t// out\n        /* \"#utility.yul\":4669:4879   */\n    tag_32:\n        /* \"#utility.yul\":4756:4760   */\n      0x00\n        /* \"#utility.yul\":4794:4796   */\n      0x20\n        /* \"#utility.yul\":4783:4792   */\n      dup3\n        /* \"#utility.yul\":4779:4797   */\n      add\n        /* \"#utility.yul\":4771:4797   */\n      swap1\n      pop\n        /* \"#utility.yul\":4807:4872   */\n      tag_176\n        /* \"#utility.yul\":4869:4870   */\n      0x00\n        /* \"#utility.yul\":4858:4867   */\n      dup4\n        /* \"#utility.yul\":4854:4871   */\n      add\n        /* \"#utility.yul\":4845:4851   */\n      dup5\n        /* \"#utility.yul\":4807:4872   */\n      tag_114\n      jump\t// in\n    tag_176:\n        /* \"#utility.yul\":4669:4879   */\n      swap3\n      swap2\n      pop\n      pop\n      jump\t// out\n        /* \"#utility.yul\":4885:5007   */\n    tag_115:\n        /* \"#utility.yul\":4958:4982   */\n      tag_178\n        /* \"#utility.yul\":4976:4981   */\n      dup2\n        /* \"#utility.yul\":4958:4982   */\n      tag_107\n      jump\t// in\n    tag_178:\n        /* \"#utility.yul\":4951:4956   */\n      dup2\n        /* \"#utility.yul\":4948:4983   */\n      eq\n        /* \"#utility.yul\":4938:5001   */\n      tag_179\n      jumpi\n        /* \"#utility.yul\":4997:4998   */\n      0x00\n        /* \"#utility.yul\":4994:4995   */\n      dup1\n        /* \"#utility.yul\":4987:4999   */\n      revert\n        /* \"#utility.yul\":4938:5001   */\n    tag_179:\n        /* \"#utility.yul\":4885:5007   */\n      pop\n      jump\t// out\n        /* \"#utility.yul\":5013:5152   */\n    tag_116:\n        /* \"#utility.yul\":5059:5064   */\n      0x00\n        /* \"#utility.yul\":5097:5103   */\n      dup2\n        /* \"#utility.yul\":5084:5104   */\n      calldataload\n        /* \"#utility.yul\":5075:5104   */\n      swap1\n      pop\n        /* \"#utility.yul\":5113:5146   */\n      tag_181\n        /* \"#utility.yul\":5140:5145   */\n      dup2\n        /* \"#utility.yul\":5113:5146   */\n      tag_115\n      jump\t// in\n    tag_181:\n        /* \"#utility.yul\":5013:5152   */\n      swap3\n      swap2\n      pop\n      pop\n      jump\t// out\n        /* \"#utility.yul\":5158:5487   */\n    tag_35:\n        /* \"#utility.yul\":5217:5223   */\n      0x00\n        /* \"#utility.yul\":5266:5268   */\n      0x20\n        /* \"#utility.yul\":5254:5263   */\n      dup3\n        /* \"#utility.yul\":5245:5252   */\n      dup5\n        /* \"#utility.yul\":5241:5264   */\n      sub\n        /* \"#utility.yul\":5237:5269   */\n      slt\n        /* \"#utility.yul\":5234:5353   */\n      iszero\n      tag_183\n      jumpi\n        /* \"#utility.yul\":5272:5351   */\n      tag_184\n      tag_97\n      jump\t// in\n    tag_184:\n        /* \"#utility.yul\":5234:5353   */\n    tag_183:\n        /* \"#utility.yul\":5392:5393   */\n      0x00\n        /* \"#utility.yul\":5417:5470   */\n      tag_185\n        /* \"#utility.yul\":5462:5469   */\n      dup5\n        /* \"#utility.yul\":5453:5459   */\n      dup3\n        /* \"#utility.yul\":5442:5451   */\n      dup6\n        /* \"#utility.yul\":5438:5460   */\n      add\n        /* \"#utility.yul\":5417:5470   */\n      tag_116\n      jump\t// in\n    tag_185:\n        /* \"#utility.yul\":5407:5470   */\n      swap2\n      pop\n        /* \"#utility.yul\":5363:5480   */\n      pop\n        /* \"#utility.yul\":5158:5487   */\n      swap3\n      swap2\n      pop\n      pop\n      jump\t// out\n        /* \"#utility.yul\":5493:5662   */\n    tag_117:\n        /* \"#utility.yul\":5577:5588   */\n      0x00\n        /* \"#utility.yul\":5611:5617   */\n      dup3\n        /* \"#utility.yul\":5606:5609   */\n      dup3\n        /* \"#utility.yul\":5599:5618   */\n      mstore\n        /* \"#utility.yul\":5651:5655   */\n      0x20\n        /* \"#utility.yul\":5646:5649   */\n      dup3\n        /* \"#utility.yul\":5642:5656   */\n      add\n        /* \"#utility.yul\":5627:5656   */\n      swap1\n      pop\n        /* \"#utility.yul\":5493:5662   */\n      swap3\n      swap2\n      pop\n      pop\n      jump\t// out\n        /* \"#utility.yul\":5668:5850   */\n    tag_118:\n        /* \"#utility.yul\":5808:5842   */\n      0x4f776e61626c653a2063616c6c6572206973206e6f7420746865206f776e6572\n        /* \"#utility.yul\":5804:5805   */\n      0x00\n        /* \"#utility.yul\":5796:5802   */\n      dup3\n        /* \"#utility.yul\":5792:5806   */\n      add\n        /* \"#utility.yul\":5785:5843   */\n      mstore\n        /* \"#utility.yul\":5668:5850   */\n      pop\n      jump\t// out\n        /* \"#utility.yul\":5856:6222   */\n    tag_119:\n        /* \"#utility.yul\":5998:6001   */\n      0x00\n        /* \"#utility.yul\":6019:6086   */\n      tag_189\n        /* \"#utility.yul\":6083:6085   */\n      0x20\n        /* \"#utility.yul\":6078:6081   */\n      dup4\n        /* \"#utility.yul\":6019:6086   */\n      tag_117\n      jump\t// in\n    tag_189:\n        /* \"#utility.yul\":6012:6086   */\n      swap2\n      pop\n        /* \"#utility.yul\":6095:6188   */\n      tag_190\n        /* \"#utility.yul\":6184:6187   */\n      dup3\n        /* \"#utility.yul\":6095:6188   */\n      tag_118\n      jump\t// in\n    tag_190:\n        /* \"#utility.yul\":6213:6215   */\n      0x20\n        /* \"#utility.yul\":6208:6211   */\n      dup3\n        /* \"#utility.yul\":6204:6216   */\n      add\n        /* \"#utility.yul\":6197:6216   */\n      swap1\n      pop\n        /* \"#utility.yul\":5856:6222   */\n      swap2\n      swap1\n      pop\n      jump\t// out\n        /* \"#utility.yul\":6228:6647   */\n    tag_45:\n        /* \"#utility.yul\":6394:6398   */\n      0x00\n        /* \"#utility.yul\":6432:6434   */\n      0x20\n        /* \"#utility.yul\":6421:6430   */\n      dup3\n        /* \"#utility.yul\":6417:6435   */\n      add\n        /* \"#utility.yul\":6409:6435   */\n      swap1\n      pop\n        /* \"#utility.yul\":6481:6490   */\n      dup2\n        /* \"#utility.yul\":6475:6479   */\n      dup2\n        /* \"#utility.yul\":6471:6491   */\n      sub\n        /* \"#utility.yul\":6467:6468   */\n      0x00\n        /* \"#utility.yul\":6456:6465   */\n      dup4\n        /* \"#utility.yul\":6452:6469   */\n      add\n        /* \"#utility.yul\":6445:6492   */\n      mstore\n        /* \"#utility.yul\":6509:6640   */\n      tag_192\n        /* \"#utility.yul\":6635:6639   */\n      dup2\n        /* \"#utility.yul\":6509:6640   */\n      tag_119\n      jump\t// in\n    tag_192:\n        /* \"#utility.yul\":6501:6640   */\n      swap1\n      pop\n        /* \"#utility.yul\":6228:6647   */\n      swap2\n      swap1\n      pop\n      jump\t// out\n        /* \"#utility.yul\":6653:6833   */\n    tag_52:\n        /* \"#utility.yul\":6701:6778   */\n      0x4e487b7100000000000000000000000000000000000000000000000000000000\n        /* \"#utility.yul\":6698:6699   */\n      0x00\n        /* \"#utility.yul\":6691:6779   */\n      mstore\n        /* \"#utility.yul\":6798:6802   */\n      0x32\n        /* \"#utility.yul\":6795:6796   */\n      0x04\n        /* \"#utility.yul\":6788:6803   */\n      mstore\n        /* \"#utility.yul\":6822:6826   */\n      0x24\n        /* \"#utility.yul\":6819:6820   */\n      0x00\n        /* \"#utility.yul\":6812:6827   */\n      revert\n        /* \"#utility.yul\":6839:7019   */\n    tag_120:\n        /* \"#utility.yul\":6887:6964   */\n      0x4e487b7100000000000000000000000000000000000000000000000000000000\n        /* \"#utility.yul\":6884:6885   */\n      0x00\n        /* \"#utility.yul\":6877:6965   */\n      mstore\n        /* \"#utility.yul\":6984:6988   */\n      0x11\n        /* \"#utility.yul\":6981:6982   */\n      0x04\n        /* \"#utility.yul\":6974:6989   */\n      mstore\n        /* \"#utility.yul\":7008:7012   */\n      0x24\n        /* \"#utility.yul\":7005:7006   */\n      0x00\n        /* \"#utility.yul\":6998:7013   */\n      revert\n        /* \"#utility.yul\":7025:7102   */\n    tag_121:\n        /* \"#utility.yul\":7062:7069   */\n      0x00\n        /* \"#utility.yul\":7091:7096   */\n      dup2\n        /* \"#utility.yul\":7080:7096   */\n      swap1\n      pop\n        /* \"#utility.yul\":7025:7102   */\n      swap2\n      swap1\n      pop\n      jump\t// out\n        /* \"#utility.yul\":7108:7341   */\n    tag_55:\n        /* \"#utility.yul\":7147:7150   */\n      0x00\n        /* \"#utility.yul\":7170:7194   */\n      tag_197\n        /* \"#utility.yul\":7188:7193   */\n      dup3\n        /* \"#utility.yul\":7170:7194   */\n      tag_121\n      jump\t// in\n    tag_197:\n        /* \"#utility.yul\":7161:7194   */\n      swap2\n      pop\n        /* \"#utility.yul\":7216:7282   */\n      0xffffffffffffffffffffffffffffffffffffffffffffffffffffffffffffffff\n        /* \"#utility.yul\":7209:7214   */\n      dup3\n        /* \"#utility.yul\":7206:7283   */\n      sub\n        /* \"#utility.yul\":7203:7306   */\n      tag_198\n      jumpi\n        /* \"#utility.yul\":7286:7304   */\n      tag_199\n      tag_120\n      jump\t// in\n    tag_199:\n        /* \"#utility.yul\":7203:7306   */\n    tag_198:\n        /* \"#utility.yul\":7333:7334   */\n      0x01\n        /* \"#utility.yul\":7326:7331   */\n      dup3\n        /* \"#utility.yul\":7322:7335   */\n      add\n        /* \"#utility.yul\":7315:7335   */\n      swap1\n      pop\n        /* \"#utility.yul\":7108:7341   */\n      swap2\n      swap1\n      pop\n      jump\t// out\n        /* \"#utility.yul\":7347:7513   */\n    tag_122:\n        /* \"#utility.yul\":7487:7505   */\n      0x4e4f545f494e5f57484954454c49535400000000000000000000000000000000\n        /* \"#utility.yul\":7483:7484   */\n      0x00\n        /* \"#utility.yul\":7475:7481   */\n      dup3\n        /* \"#utility.yul\":7471:7485   */\n      add\n        /* \"#utility.yul\":7464:7506   */\n      mstore\n        /* \"#utility.yul\":7347:7513   */\n      pop\n      jump\t// out\n        /* \"#utility.yul\":7519:7885   */\n    tag_123:\n        /* \"#utility.yul\":7661:7664   */\n      0x00\n        /* \"#utility.yul\":7682:7749   */\n      tag_202\n        /* \"#utility.yul\":7746:7748   */\n      0x10\n        /* \"#utility.yul\":7741:7744   */\n      dup4\n        /* \"#utility.yul\":7682:7749   */\n      tag_117\n      jump\t// in\n    tag_202:\n        /* \"#utility.yul\":7675:7749   */\n      swap2\n      pop\n        /* \"#utility.yul\":7758:7851   */\n      tag_203\n        /* \"#utility.yul\":7847:7850   */\n      dup3\n        /* \"#utility.yul\":7758:7851   */\n      tag_122\n      jump\t// in\n    tag_203:\n        /* \"#utility.yul\":7876:7878   */\n      0x20\n        /* \"#utility.yul\":7871:7874   */\n      dup3\n        /* \"#utility.yul\":7867:7879   */\n      add\n        /* \"#utility.yul\":7860:7879   */\n      swap1\n      pop\n        /* \"#utility.yul\":7519:7885   */\n      swap2\n      swap1\n      pop\n      jump\t// out\n        /* \"#utility.yul\":7891:8310   */\n    tag_59:\n        /* \"#utility.yul\":8057:8061   */\n      0x00\n        /* \"#utility.yul\":8095:8097   */\n      0x20\n        /* \"#utility.yul\":8084:8093   */\n      dup3\n        /* \"#utility.yul\":8080:8098   */\n      add\n        /* \"#utility.yul\":8072:8098   */\n      swap1\n      pop\n        /* \"#utility.yul\":8144:8153   */\n      dup2\n        /* \"#utility.yul\":8138:8142   */\n      dup2\n        /* \"#utility.yul\":8134:8154   */\n      sub\n        /* \"#utility.yul\":8130:8131   */\n      0x00\n        /* \"#utility.yul\":8119:8128   */\n      dup4\n        /* \"#utility.yul\":8115:8132   */\n      add\n        /* \"#utility.yul\":8108:8155   */\n      mstore\n        /* \"#utility.yul\":8172:8303   */\n      tag_205\n        /* \"#utility.yul\":8298:8302   */\n      dup2\n        /* \"#utility.yul\":8172:8303   */\n      tag_123\n      jump\t// in\n    tag_205:\n        /* \"#utility.yul\":8164:8303   */\n      swap1\n      pop\n        /* \"#utility.yul\":7891:8310   */\n      swap2\n      swap1\n      pop\n      jump\t// out\n        /* \"#utility.yul\":8316:8496   */\n    tag_62:\n        /* \"#utility.yul\":8364:8441   */\n      0x4e487b7100000000000000000000000000000000000000000000000000000000\n        /* \"#utility.yul\":8361:8362   */\n      0x00\n        /* \"#utility.yul\":8354:8442   */\n      mstore\n        /* \"#utility.yul\":8461:8465   */\n      0x41\n        /* \"#utility.yul\":8458:8459   */\n      0x04\n        /* \"#utility.yul\":8451:8466   */\n      mstore\n        /* \"#utility.yul\":8485:8489   */\n      0x24\n        /* \"#utility.yul\":8482:8483   */\n      0x00\n        /* \"#utility.yul\":8475:8490   */\n      revert\n        /* \"#utility.yul\":8502:8727   */\n    tag_124:\n        /* \"#utility.yul\":8642:8676   */\n      0x4f776e61626c653a206e6577206f776e657220697320746865207a65726f2061\n        /* \"#utility.yul\":8638:8639   */\n      0x00\n        /* \"#utility.yul\":8630:8636   */\n      dup3\n        /* \"#utility.yul\":8626:8640   */\n      add\n        /* \"#utility.yul\":8619:8677   */\n      mstore\n        /* \"#utility.yul\":8711:8719   */\n      0x6464726573730000000000000000000000000000000000000000000000000000\n        /* \"#utility.yul\":8706:8708   */\n      0x20\n        /* \"#utility.yul\":8698:8704   */\n      dup3\n        /* \"#utility.yul\":8694:8709   */\n      add\n        /* \"#utility.yul\":8687:8720   */\n      mstore\n        /* \"#utility.yul\":8502:8727   */\n      pop\n      jump\t// out\n        /* \"#utility.yul\":8733:9099   */\n    tag_125:\n        /* \"#utility.yul\":8875:8878   */\n      0x00\n        /* \"#utility.yul\":8896:8963   */\n      tag_209\n        /* \"#utility.yul\":8960:8962   */\n      0x26\n        /* \"#utility.yul\":8955:8958   */\n      dup4\n        /* \"#utility.yul\":8896:8963   */\n      tag_117\n      jump\t// in\n    tag_209:\n        /* \"#utility.yul\":8889:8963   */\n      swap2\n      pop\n        /* \"#utility.yul\":8972:9065   */\n      tag_210\n        /* \"#utility.yul\":9061:9064   */\n      dup3\n        /* \"#utility.yul\":8972:9065   */\n      tag_124\n      jump\t// in\n    tag_210:\n        /* \"#utility.yul\":9090:9092   */\n      0x40\n        /* \"#utility.yul\":9085:9088   */\n      dup3\n        /* \"#utility.yul\":9081:9093   */\n      add\n        /* \"#utility.yul\":9074:9093   */\n      swap1\n      pop\n        /* \"#utility.yul\":8733:9099   */\n      swap2\n      swap1\n      pop\n      jump\t// out\n        /* \"#utility.yul\":9105:9524   */\n    tag_95:\n        /* \"#utility.yul\":9271:9275   */\n      0x00\n        /* \"#utility.yul\":9309:9311   */\n      0x20\n        /* \"#utility.yul\":9298:9307   */\n      dup3\n        /* \"#utility.yul\":9294:9312   */\n      add\n        /* \"#utility.yul\":9286:9312   */\n      swap1\n      pop\n        /* \"#utility.yul\":9358:9367   */\n      dup2\n        /* \"#utility.yul\":9352:9356   */\n      dup2\n        /* \"#utility.yul\":9348:9368   */\n      sub\n        /* \"#utility.yul\":9344:9345   */\n      0x00\n        /* \"#utility.yul\":9333:9342   */\n      dup4\n        /* \"#utility.yul\":9329:9346   */\n      add\n        /* \"#utility.yul\":9322:9369   */\n      mstore\n        /* \"#utility.yul\":9386:9517   */\n      tag_212\n        /* \"#utility.yul\":9512:9516   */\n      dup2\n        /* \"#utility.yul\":9386:9517   */\n      tag_125\n      jump\t// in\n    tag_212:\n        /* \"#utility.yul\":9378:9517   */\n      swap1\n      pop\n        /* \"#utility.yul\":9105:9524   */\n      swap2\n      swap1\n      pop\n      jump\t// out\n\n    auxdata: 0xa2646970667358221220f98a4ea3c60d72d908b0497ad81fd750121b028ecc43ac5dcb6e632e4ba2e50b64736f6c63430008150033\n}\n",
				"bytecode": {
					"linkReferences": {},
					"object": "608060405234801561000f575f80fd5b50335f806101000a81548173ffffffffffffffffffffffffffffffffffffffff021916908373ffffffffffffffffffffffffffffffffffffffff1602179055505f8054906101000a900473ffffffffffffffffffffffffffffffffffffffff1673ffffffffffffffffffffffffffffffffffffffff165f73ffffffffffffffffffffffffffffffffffffffff167f8be0079c531659141344cd1fd0a4f28419497f9722a3daafe3b4186f6b6457e060405160405180910390a3610c60806100d55f395ff3fe608060405234801561000f575f80fd5b5060043610610086575f3560e01c80638da5cb5b116100595780638da5cb5b146100ea5780638f32d59b146101085780639b19251a14610126578063f2fde38b1461015657610086565b8063548db1741461008a57806364a62ec4146100a6578063715018a6146100c45780637f649783146100ce575b5f80fd5b6100a4600480360381019061009f91906107e3565b610172565b005b6100ae610251565b6040516100bb9190610915565b60405180910390f35b6100cc61037d565b005b6100e860048036038101906100e391906107e3565b61047e565b005b6100f2610565565b6040516100ff9190610944565b60405180910390f35b61011061058c565b60405161011d9190610977565b60405180910390f35b610140600480360381019061013b91906109ba565b6105e1565b60405161014d9190610977565b60405180910390f35b610170600480360381019061016b91906109ba565b6105fe565b005b61017a61058c565b6101b9576040517f08c379a00000000000000000000000000000000000000000000000000000000081526004016101b090610a3f565b60405180910390fd5b5f5b8282905081101561024c5760015f8484848181106101dc576101db610a5d565b5b90506020020160208101906101f191906109ba565b73ffffffffffffffffffffffffffffffffffffffff1673ffffffffffffffffffffffffffffffffffffffff1681526020019081526020015f205f6101000a81549060ff0219169055808061024490610ac0565b9150506101bb565b505050565b606060015f3373ffffffffffffffffffffffffffffffffffffffff1673ffffffffffffffffffffffffffffffffffffffff1681526020019081526020015f205f9054906101000a900460ff166102dc576040517f08c379a00000000000000000000000000000000000000000000000000000000081526004016102d390610b51565b60405180910390fd5b5f8067ffffffffffffffff8111156102f7576102f6610b6f565b5b6040519080825280602002602001820160405280156103255781602001602082028036833780820191505090505b50905033815f8151811061033c5761033b610a5d565b5b602002602001019073ffffffffffffffffffffffffffffffffffffffff16908173ffffffffffffffffffffffffffffffffffffffff16815250508091505090565b61038561058c565b6103c4576040517f08c379a00000000000000000000000000000000000000000000000000000000081526004016103bb90610a3f565b60405180910390fd5b5f73ffffffffffffffffffffffffffffffffffffffff165f8054906101000a900473ffffffffffffffffffffffffffffffffffffffff1673ffffffffffffffffffffffffffffffffffffffff167f8be0079c531659141344cd1fd0a4f28419497f9722a3daafe3b4186f6b6457e060405160405180910390a35f805f6101000a81548173ffffffffffffffffffffffffffffffffffffffff021916908373ffffffffffffffffffffffffffffffffffffffff160217905550565b61048661058c565b6104c5576040517f08c379a00000000000000000000000000000000000000000000000000000000081526004016104bc90610a3f565b60405180910390fd5b5f5b82829050811015610560576001805f8585858181106104e9576104e8610a5d565b5b90506020020160208101906104fe91906109ba565b73ffffffffffffffffffffffffffffffffffffffff1673ffffffffffffffffffffffffffffffffffffffff1681526020019081526020015f205f6101000a81548160ff021916908315150217905550808061055890610ac0565b9150506104c7565b505050565b5f805f9054906101000a900473ffffffffffffffffffffffffffffffffffffffff16905090565b5f805f9054906101000a900473ffffffffffffffffffffffffffffffffffffffff1673ffffffffffffffffffffffffffffffffffffffff163373ffffffffffffffffffffffffffffffffffffffff1614905090565b6001602052805f5260405f205f915054906101000a900460ff1681565b61060661058c565b610645576040517f08c379a000000000000000000000000000000000000000000000000000000000815260040161063c90610a3f565b60405180910390fd5b61064e81610651565b50565b5f73ffffffffffffffffffffffffffffffffffffffff168173ffffffffffffffffffffffffffffffffffffffff16036106bf576040517f08c379a00000000000000000000000000000000000000000000000000000000081526004016106b690610c0c565b60405180910390fd5b8073ffffffffffffffffffffffffffffffffffffffff165f8054906101000a900473ffffffffffffffffffffffffffffffffffffffff1673ffffffffffffffffffffffffffffffffffffffff167f8be0079c531659141344cd1fd0a4f28419497f9722a3daafe3b4186f6b6457e060405160405180910390a3805f806101000a81548173ffffffffffffffffffffffffffffffffffffffff021916908373ffffffffffffffffffffffffffffffffffffffff16021790555050565b5f80fd5b5f80fd5b5f80fd5b5f80fd5b5f80fd5b5f8083601f8401126107a3576107a2610782565b5b8235905067ffffffffffffffff8111156107c0576107bf610786565b5b6020830191508360208202830111156107dc576107db61078a565b5b9250929050565b5f80602083850312156107f9576107f861077a565b5b5f83013567ffffffffffffffff8111156108165761081561077e565b5b6108228582860161078e565b92509250509250929050565b5f81519050919050565b5f82825260208201905092915050565b5f819050602082019050919050565b5f73ffffffffffffffffffffffffffffffffffffffff82169050919050565b5f61088082610857565b9050919050565b61089081610876565b82525050565b5f6108a18383610887565b60208301905092915050565b5f602082019050919050565b5f6108c38261082e565b6108cd8185610838565b93506108d883610848565b805f5b838110156109085781516108ef8882610896565b97506108fa836108ad565b9250506001810190506108db565b5085935050505092915050565b5f6020820190508181035f83015261092d81846108b9565b905092915050565b61093e81610876565b82525050565b5f6020820190506109575f830184610935565b92915050565b5f8115159050919050565b6109718161095d565b82525050565b5f60208201905061098a5f830184610968565b92915050565b61099981610876565b81146109a3575f80fd5b50565b5f813590506109b481610990565b92915050565b5f602082840312156109cf576109ce61077a565b5b5f6109dc848285016109a6565b91505092915050565b5f82825260208201905092915050565b7f4f776e61626c653a2063616c6c6572206973206e6f7420746865206f776e65725f82015250565b5f610a296020836109e5565b9150610a34826109f5565b602082019050919050565b5f6020820190508181035f830152610a5681610a1d565b9050919050565b7f4e487b71000000000000000000000000000000000000000000000000000000005f52603260045260245ffd5b7f4e487b71000000000000000000000000000000000000000000000000000000005f52601160045260245ffd5b5f819050919050565b5f610aca82610ab7565b91507fffffffffffffffffffffffffffffffffffffffffffffffffffffffffffffffff8203610afc57610afb610a8a565b5b600182019050919050565b7f4e4f545f494e5f57484954454c495354000000000000000000000000000000005f82015250565b5f610b3b6010836109e5565b9150610b4682610b07565b602082019050919050565b5f6020820190508181035f830152610b6881610b2f565b9050919050565b7f4e487b71000000000000000000000000000000000000000000000000000000005f52604160045260245ffd5b7f4f776e61626c653a206e6577206f776e657220697320746865207a65726f20615f8201527f6464726573730000000000000000000000000000000000000000000000000000602082015250565b5f610bf66026836109e5565b9150610c0182610b9c565b604082019050919050565b5f6020820190508181035f830152610c2381610bea565b905091905056fea2646970667358221220f98a4ea3c60d72d908b0497ad81fd750121b028ecc43ac5dcb6e632e4ba2e50b64736f6c63430008150033",
					"opcodes": "PUSH1 0x80 PUSH1 0x40 MSTORE CALLVALUE DUP1 ISZERO PUSH2 0xF JUMPI PUSH0 DUP1 REVERT JUMPDEST POP CALLER PUSH0 DUP1 PUSH2 0x100 EXP DUP2 SLOAD DUP2 PUSH20 0xFFFFFFFFFFFFFFFFFFFFFFFFFFFFFFFFFFFFFFFF MUL NOT AND SWAP1 DUP4 PUSH20 0xFFFFFFFFFFFFFFFFFFFFFFFFFFFFFFFFFFFFFFFF AND MUL OR SWAP1 SSTORE POP PUSH0 DUP1 SLOAD SWAP1 PUSH2 0x100 EXP SWAP1 DIV PUSH20 0xFFFFFFFFFFFFFFFFFFFFFFFFFFFFFFFFFFFFFFFF AND PUSH20 0xFFFFFFFFFFFFFFFFFFFFFFFFFFFFFFFFFFFFFFFF AND PUSH0 PUSH20 0xFFFFFFFFFFFFFFFFFFFFFFFFFFFFFFFFFFFFFFFF AND PUSH32 0x8BE0079C531659141344CD1FD0A4F28419497F9722A3DAAFE3B4186F6B6457E0 PUSH1 0x40 MLOAD PUSH1 0x40 MLOAD DUP1 SWAP2 SUB SWAP1 LOG3 PUSH2 0xC60 DUP1 PUSH2 0xD5 PUSH0 CODECOPY PUSH0 RETURN INVALID PUSH1 0x80 PUSH1 0x40 MSTORE CALLVALUE DUP1 ISZERO PUSH2 0xF JUMPI PUSH0 DUP1 REVERT JUMPDEST POP PUSH1 0x4 CALLDATASIZE LT PUSH2 0x86 JUMPI PUSH0 CALLDATALOAD PUSH1 0xE0 SHR DUP1 PUSH4 0x8DA5CB5B GT PUSH2 0x59 JUMPI DUP1 PUSH4 0x8DA5CB5B EQ PUSH2 0xEA JUMPI DUP1 PUSH4 0x8F32D59B EQ PUSH2 0x108 JUMPI DUP1 PUSH4 0x9B19251A EQ PUSH2 0x126 JUMPI DUP1 PUSH4 0xF2FDE38B EQ PUSH2 0x156 JUMPI PUSH2 0x86 JUMP JUMPDEST DUP1 PUSH4 0x548DB174 EQ PUSH2 0x8A JUMPI DUP1 PUSH4 0x64A62EC4 EQ PUSH2 0xA6 JUMPI DUP1 PUSH4 0x715018A6 EQ PUSH2 0xC4 JUMPI DUP1 PUSH4 0x7F649783 EQ PUSH2 0xCE JUMPI JUMPDEST PUSH0 DUP1 REVERT JUMPDEST PUSH2 0xA4 PUSH1 0x4 DUP1 CALLDATASIZE SUB DUP2 ADD SWAP1 PUSH2 0x9F SWAP2 SWAP1 PUSH2 0x7E3 JUMP JUMPDEST PUSH2 0x172 JUMP JUMPDEST STOP JUMPDEST PUSH2 0xAE PUSH2 0x251 JUMP JUMPDEST PUSH1 0x40 MLOAD PUSH2 0xBB SWAP2 SWAP1 PUSH2 0x915 JUMP JUMPDEST PUSH1 0x40 MLOAD DUP1 SWAP2 SUB SWAP1 RETURN JUMPDEST PUSH2 0xCC PUSH2 0x37D JUMP JUMPDEST STOP JUMPDEST PUSH2 0xE8 PUSH1 0x4 DUP1 CALLDATASIZE SUB DUP2 ADD SWAP1 PUSH2 0xE3 SWAP2 SWAP1 PUSH2 0x7E3 JUMP JUMPDEST PUSH2 0x47E JUMP JUMPDEST STOP JUMPDEST PUSH2 0xF2 PUSH2 0x565 JUMP JUMPDEST PUSH1 0x40 MLOAD PUSH2 0xFF SWAP2 SWAP1 PUSH2 0x944 JUMP JUMPDEST PUSH1 0x40 MLOAD DUP1 SWAP2 SUB SWAP1 RETURN JUMPDEST PUSH2 0x110 PUSH2 0x58C JUMP JUMPDEST PUSH1 0x40 MLOAD PUSH2 0x11D SWAP2 SWAP1 PUSH2 0x977 JUMP JUMPDEST PUSH1 0x40 MLOAD DUP1 SWAP2 SUB SWAP1 RETURN JUMPDEST PUSH2 0x140 PUSH1 0x4 DUP1 CALLDATASIZE SUB DUP2 ADD SWAP1 PUSH2 0x13B SWAP2 SWAP1 PUSH2 0x9BA JUMP JUMPDEST PUSH2 0x5E1 JUMP JUMPDEST PUSH1 0x40 MLOAD PUSH2 0x14D SWAP2 SWAP1 PUSH2 0x977 JUMP JUMPDEST PUSH1 0x40 MLOAD DUP1 SWAP2 SUB SWAP1 RETURN JUMPDEST PUSH2 0x170 PUSH1 0x4 DUP1 CALLDATASIZE SUB DUP2 ADD SWAP1 PUSH2 0x16B SWAP2 SWAP1 PUSH2 0x9BA JUMP JUMPDEST PUSH2 0x5FE JUMP JUMPDEST STOP JUMPDEST PUSH2 0x17A PUSH2 0x58C JUMP JUMPDEST PUSH2 0x1B9 JUMPI PUSH1 0x40 MLOAD PUSH32 0x8C379A000000000000000000000000000000000000000000000000000000000 DUP2 MSTORE PUSH1 0x4 ADD PUSH2 0x1B0 SWAP1 PUSH2 0xA3F JUMP JUMPDEST PUSH1 0x40 MLOAD DUP1 SWAP2 SUB SWAP1 REVERT JUMPDEST PUSH0 JUMPDEST DUP3 DUP3 SWAP1 POP DUP2 LT ISZERO PUSH2 0x24C JUMPI PUSH1 0x1 PUSH0 DUP5 DUP5 DUP5 DUP2 DUP2 LT PUSH2 0x1DC JUMPI PUSH2 0x1DB PUSH2 0xA5D JUMP JUMPDEST JUMPDEST SWAP1 POP PUSH1 0x20 MUL ADD PUSH1 0x20 DUP2 ADD SWAP1 PUSH2 0x1F1 SWAP2 SWAP1 PUSH2 0x9BA JUMP JUMPDEST PUSH20 0xFFFFFFFFFFFFFFFFFFFFFFFFFFFFFFFFFFFFFFFF AND PUSH20 0xFFFFFFFFFFFFFFFFFFFFFFFFFFFFFFFFFFFFFFFF AND DUP2 MSTORE PUSH1 0x20 ADD SWAP1 DUP2 MSTORE PUSH1 0x20 ADD PUSH0 KECCAK256 PUSH0 PUSH2 0x100 EXP DUP2 SLOAD SWAP1 PUSH1 0xFF MUL NOT AND SWAP1 SSTORE DUP1 DUP1 PUSH2 0x244 SWAP1 PUSH2 0xAC0 JUMP JUMPDEST SWAP2 POP POP PUSH2 0x1BB JUMP JUMPDEST POP POP POP JUMP JUMPDEST PUSH1 0x60 PUSH1 0x1 PUSH0 CALLER PUSH20 0xFFFFFFFFFFFFFFFFFFFFFFFFFFFFFFFFFFFFFFFF AND PUSH20 0xFFFFFFFFFFFFFFFFFFFFFFFFFFFFFFFFFFFFFFFF AND DUP2 MSTORE PUSH1 0x20 ADD SWAP1 DUP2 MSTORE PUSH1 0x20 ADD PUSH0 KECCAK256 PUSH0 SWAP1 SLOAD SWAP1 PUSH2 0x100 EXP SWAP1 DIV PUSH1 0xFF AND PUSH2 0x2DC JUMPI PUSH1 0x40 MLOAD PUSH32 0x8C379A000000000000000000000000000000000000000000000000000000000 DUP2 MSTORE PUSH1 0x4 ADD PUSH2 0x2D3 SWAP1 PUSH2 0xB51 JUMP JUMPDEST PUSH1 0x40 MLOAD DUP1 SWAP2 SUB SWAP1 REVERT JUMPDEST PUSH0 DUP1 PUSH8 0xFFFFFFFFFFFFFFFF DUP2 GT ISZERO PUSH2 0x2F7 JUMPI PUSH2 0x2F6 PUSH2 0xB6F JUMP JUMPDEST JUMPDEST PUSH1 0x40 MLOAD SWAP1 DUP1 DUP3 MSTORE DUP1 PUSH1 0x20 MUL PUSH1 0x20 ADD DUP3 ADD PUSH1 0x40 MSTORE DUP1 ISZERO PUSH2 0x325 JUMPI DUP2 PUSH1 0x20 ADD PUSH1 0x20 DUP3 MUL DUP1 CALLDATASIZE DUP4 CALLDATACOPY DUP1 DUP3 ADD SWAP2 POP POP SWAP1 POP JUMPDEST POP SWAP1 POP CALLER DUP2 PUSH0 DUP2 MLOAD DUP2 LT PUSH2 0x33C JUMPI PUSH2 0x33B PUSH2 0xA5D JUMP JUMPDEST JUMPDEST PUSH1 0x20 MUL PUSH1 0x20 ADD ADD SWAP1 PUSH20 0xFFFFFFFFFFFFFFFFFFFFFFFFFFFFFFFFFFFFFFFF AND SWAP1 DUP2 PUSH20 0xFFFFFFFFFFFFFFFFFFFFFFFFFFFFFFFFFFFFFFFF AND DUP2 MSTORE POP POP DUP1 SWAP2 POP POP SWAP1 JUMP JUMPDEST PUSH2 0x385 PUSH2 0x58C JUMP JUMPDEST PUSH2 0x3C4 JUMPI PUSH1 0x40 MLOAD PUSH32 0x8C379A000000000000000000000000000000000000000000000000000000000 DUP2 MSTORE PUSH1 0x4 ADD PUSH2 0x3BB SWAP1 PUSH2 0xA3F JUMP JUMPDEST PUSH1 0x40 MLOAD DUP1 SWAP2 SUB SWAP1 REVERT JUMPDEST PUSH0 PUSH20 0xFFFFFFFFFFFFFFFFFFFFFFFFFFFFFFFFFFFFFFFF AND PUSH0 DUP1 SLOAD SWAP1 PUSH2 0x100 EXP SWAP1 DIV PUSH20 0xFFFFFFFFFFFFFFFFFFFFFFFFFFFFFFFFFFFFFFFF AND PUSH20 0xFFFFFFFFFFFFFFFFFFFFFFFFFFFFFFFFFFFFFFFF AND PUSH32 0x8BE0079C531659141344CD1FD0A4F28419497F9722A3DAAFE3B4186F6B6457E0 PUSH1 0x40 MLOAD PUSH1 0x40 MLOAD DUP1 SWAP2 SUB SWAP1 LOG3 PUSH0 DUP1 PUSH0 PUSH2 0x100 EXP DUP2 SLOAD DUP2 PUSH20 0xFFFFFFFFFFFFFFFFFFFFFFFFFFFFFFFFFFFFFFFF MUL NOT AND SWAP1 DUP4 PUSH20 0xFFFFFFFFFFFFFFFFFFFFFFFFFFFFFFFFFFFFFFFF AND MUL OR SWAP1 SSTORE POP JUMP JUMPDEST PUSH2 0x486 PUSH2 0x58C JUMP JUMPDEST PUSH2 0x4C5 JUMPI PUSH1 0x40 MLOAD PUSH32 0x8C379A000000000000000000000000000000000000000000000000000000000 DUP2 MSTORE PUSH1 0x4 ADD PUSH2 0x4BC SWAP1 PUSH2 0xA3F JUMP JUMPDEST PUSH1 0x40 MLOAD DUP1 SWAP2 SUB SWAP1 REVERT JUMPDEST PUSH0 JUMPDEST DUP3 DUP3 SWAP1 POP DUP2 LT ISZERO PUSH2 0x560 JUMPI PUSH1 0x1 DUP1 PUSH0 DUP6 DUP6 DUP6 DUP2 DUP2 LT PUSH2 0x4E9 JUMPI PUSH2 0x4E8 PUSH2 0xA5D JUMP JUMPDEST JUMPDEST SWAP1 POP PUSH1 0x20 MUL ADD PUSH1 0x20 DUP2 ADD SWAP1 PUSH2 0x4FE SWAP2 SWAP1 PUSH2 0x9BA JUMP JUMPDEST PUSH20 0xFFFFFFFFFFFFFFFFFFFFFFFFFFFFFFFFFFFFFFFF AND PUSH20 0xFFFFFFFFFFFFFFFFFFFFFFFFFFFFFFFFFFFFFFFF AND DUP2 MSTORE PUSH1 0x20 ADD SWAP1 DUP2 MSTORE PUSH1 0x20 ADD PUSH0 KECCAK256 PUSH0 PUSH2 0x100 EXP DUP2 SLOAD DUP2 PUSH1 0xFF MUL NOT AND SWAP1 DUP4 ISZERO ISZERO MUL OR SWAP1 SSTORE POP DUP1 DUP1 PUSH2 0x558 SWAP1 PUSH2 0xAC0 JUMP JUMPDEST SWAP2 POP POP PUSH2 0x4C7 JUMP JUMPDEST POP POP POP JUMP JUMPDEST PUSH0 DUP1 PUSH0 SWAP1 SLOAD SWAP1 PUSH2 0x100 EXP SWAP1 DIV PUSH20 0xFFFFFFFFFFFFFFFFFFFFFFFFFFFFFFFFFFFFFFFF AND SWAP1 POP SWAP1 JUMP JUMPDEST PUSH0 DUP1 PUSH0 SWAP1 SLOAD SWAP1 PUSH2 0x100 EXP SWAP1 DIV PUSH20 0xFFFFFFFFFFFFFFFFFFFFFFFFFFFFFFFFFFFFFFFF AND PUSH20 0xFFFFFFFFFFFFFFFFFFFFFFFFFFFFFFFFFFFFFFFF AND CALLER PUSH20 0xFFFFFFFFFFFFFFFFFFFFFFFFFFFFFFFFFFFFFFFF AND EQ SWAP1 POP SWAP1 JUMP JUMPDEST PUSH1 0x1 PUSH1 0x20 MSTORE DUP1 PUSH0 MSTORE PUSH1 0x40 PUSH0 KECCAK256 PUSH0 SWAP2 POP SLOAD SWAP1 PUSH2 0x100 EXP SWAP1 DIV PUSH1 0xFF AND DUP2 JUMP JUMPDEST PUSH2 0x606 PUSH2 0x58C JUMP JUMPDEST PUSH2 0x645 JUMPI PUSH1 0x40 MLOAD PUSH32 0x8C379A000000000000000000000000000000000000000000000000000000000 DUP2 MSTORE PUSH1 0x4 ADD PUSH2 0x63C SWAP1 PUSH2 0xA3F JUMP JUMPDEST PUSH1 0x40 MLOAD DUP1 SWAP2 SUB SWAP1 REVERT JUMPDEST PUSH2 0x64E DUP2 PUSH2 0x651 JUMP JUMPDEST POP JUMP JUMPDEST PUSH0 PUSH20 0xFFFFFFFFFFFFFFFFFFFFFFFFFFFFFFFFFFFFFFFF AND DUP2 PUSH20 0xFFFFFFFFFFFFFFFFFFFFFFFFFFFFFFFFFFFFFFFF AND SUB PUSH2 0x6BF JUMPI PUSH1 0x40 MLOAD PUSH32 0x8C379A000000000000000000000000000000000000000000000000000000000 DUP2 MSTORE PUSH1 0x4 ADD PUSH2 0x6B6 SWAP1 PUSH2 0xC0C JUMP JUMPDEST PUSH1 0x40 MLOAD DUP1 SWAP2 SUB SWAP1 REVERT JUMPDEST DUP1 PUSH20 0xFFFFFFFFFFFFFFFFFFFFFFFFFFFFFFFFFFFFFFFF AND PUSH0 DUP1 SLOAD SWAP1 PUSH2 0x100 EXP SWAP1 DIV PUSH20 0xFFFFFFFFFFFFFFFFFFFFFFFFFFFFFFFFFFFFFFFF AND PUSH20 0xFFFFFFFFFFFFFFFFFFFFFFFFFFFFFFFFFFFFFFFF AND PUSH32 0x8BE0079C531659141344CD1FD0A4F28419497F9722A3DAAFE3B4186F6B6457E0 PUSH1 0x40 MLOAD PUSH1 0x40 MLOAD DUP1 SWAP2 SUB SWAP1 LOG3 DUP1 PUSH0 DUP1 PUSH2 0x100 EXP DUP2 SLOAD DUP2 PUSH20 0xFFFFFFFFFFFFFFFFFFFFFFFFFFFFFFFFFFFFFFFF MUL NOT AND SWAP1 DUP4 PUSH20 0xFFFFFFFFFFFFFFFFFFFFFFFFFFFFFFFFFFFFFFFF AND MUL OR SWAP1 SSTORE POP POP JUMP JUMPDEST PUSH0 DUP1 REVERT JUMPDEST PUSH0 DUP1 REVERT JUMPDEST PUSH0 DUP1 REVERT JUMPDEST PUSH0 DUP1 REVERT JUMPDEST PUSH0 DUP1 REVERT JUMPDEST PUSH0 DUP1 DUP4 PUSH1 0x1F DUP5 ADD SLT PUSH2 0x7A3 JUMPI PUSH2 0x7A2 PUSH2 0x782 JUMP JUMPDEST JUMPDEST DUP3 CALLDATALOAD SWAP1 POP PUSH8 0xFFFFFFFFFFFFFFFF DUP2 GT ISZERO PUSH2 0x7C0 JUMPI PUSH2 0x7BF PUSH2 0x786 JUMP JUMPDEST JUMPDEST PUSH1 0x20 DUP4 ADD SWAP2 POP DUP4 PUSH1 0x20 DUP3 MUL DUP4 ADD GT ISZERO PUSH2 0x7DC JUMPI PUSH2 0x7DB PUSH2 0x78A JUMP JUMPDEST JUMPDEST SWAP3 POP SWAP3 SWAP1 POP JUMP JUMPDEST PUSH0 DUP1 PUSH1 0x20 DUP4 DUP6 SUB SLT ISZERO PUSH2 0x7F9 JUMPI PUSH2 0x7F8 PUSH2 0x77A JUMP JUMPDEST JUMPDEST PUSH0 DUP4 ADD CALLDATALOAD PUSH8 0xFFFFFFFFFFFFFFFF DUP2 GT ISZERO PUSH2 0x816 JUMPI PUSH2 0x815 PUSH2 0x77E JUMP JUMPDEST JUMPDEST PUSH2 0x822 DUP6 DUP3 DUP7 ADD PUSH2 0x78E JUMP JUMPDEST SWAP3 POP SWAP3 POP POP SWAP3 POP SWAP3 SWAP1 POP JUMP JUMPDEST PUSH0 DUP2 MLOAD SWAP1 POP SWAP2 SWAP1 POP JUMP JUMPDEST PUSH0 DUP3 DUP3 MSTORE PUSH1 0x20 DUP3 ADD SWAP1 POP SWAP3 SWAP2 POP POP JUMP JUMPDEST PUSH0 DUP2 SWAP1 POP PUSH1 0x20 DUP3 ADD SWAP1 POP SWAP2 SWAP1 POP JUMP JUMPDEST PUSH0 PUSH20 0xFFFFFFFFFFFFFFFFFFFFFFFFFFFFFFFFFFFFFFFF DUP3 AND SWAP1 POP SWAP2 SWAP1 POP JUMP JUMPDEST PUSH0 PUSH2 0x880 DUP3 PUSH2 0x857 JUMP JUMPDEST SWAP1 POP SWAP2 SWAP1 POP JUMP JUMPDEST PUSH2 0x890 DUP2 PUSH2 0x876 JUMP JUMPDEST DUP3 MSTORE POP POP JUMP JUMPDEST PUSH0 PUSH2 0x8A1 DUP4 DUP4 PUSH2 0x887 JUMP JUMPDEST PUSH1 0x20 DUP4 ADD SWAP1 POP SWAP3 SWAP2 POP POP JUMP JUMPDEST PUSH0 PUSH1 0x20 DUP3 ADD SWAP1 POP SWAP2 SWAP1 POP JUMP JUMPDEST PUSH0 PUSH2 0x8C3 DUP3 PUSH2 0x82E JUMP JUMPDEST PUSH2 0x8CD DUP2 DUP6 PUSH2 0x838 JUMP JUMPDEST SWAP4 POP PUSH2 0x8D8 DUP4 PUSH2 0x848 JUMP JUMPDEST DUP1 PUSH0 JUMPDEST DUP4 DUP2 LT ISZERO PUSH2 0x908 JUMPI DUP2 MLOAD PUSH2 0x8EF DUP9 DUP3 PUSH2 0x896 JUMP JUMPDEST SWAP8 POP PUSH2 0x8FA DUP4 PUSH2 0x8AD JUMP JUMPDEST SWAP3 POP POP PUSH1 0x1 DUP2 ADD SWAP1 POP PUSH2 0x8DB JUMP JUMPDEST POP DUP6 SWAP4 POP POP POP POP SWAP3 SWAP2 POP POP JUMP JUMPDEST PUSH0 PUSH1 0x20 DUP3 ADD SWAP1 POP DUP2 DUP2 SUB PUSH0 DUP4 ADD MSTORE PUSH2 0x92D DUP2 DUP5 PUSH2 0x8B9 JUMP JUMPDEST SWAP1 POP SWAP3 SWAP2 POP POP JUMP JUMPDEST PUSH2 0x93E DUP2 PUSH2 0x876 JUMP JUMPDEST DUP3 MSTORE POP POP JUMP JUMPDEST PUSH0 PUSH1 0x20 DUP3 ADD SWAP1 POP PUSH2 0x957 PUSH0 DUP4 ADD DUP5 PUSH2 0x935 JUMP JUMPDEST SWAP3 SWAP2 POP POP JUMP JUMPDEST PUSH0 DUP2 ISZERO ISZERO SWAP1 POP SWAP2 SWAP1 POP JUMP JUMPDEST PUSH2 0x971 DUP2 PUSH2 0x95D JUMP JUMPDEST DUP3 MSTORE POP POP JUMP JUMPDEST PUSH0 PUSH1 0x20 DUP3 ADD SWAP1 POP PUSH2 0x98A PUSH0 DUP4 ADD DUP5 PUSH2 0x968 JUMP JUMPDEST SWAP3 SWAP2 POP POP JUMP JUMPDEST PUSH2 0x999 DUP2 PUSH2 0x876 JUMP JUMPDEST DUP2 EQ PUSH2 0x9A3 JUMPI PUSH0 DUP1 REVERT JUMPDEST POP JUMP JUMPDEST PUSH0 DUP2 CALLDATALOAD SWAP1 POP PUSH2 0x9B4 DUP2 PUSH2 0x990 JUMP JUMPDEST SWAP3 SWAP2 POP POP JUMP JUMPDEST PUSH0 PUSH1 0x20 DUP3 DUP5 SUB SLT ISZERO PUSH2 0x9CF JUMPI PUSH2 0x9CE PUSH2 0x77A JUMP JUMPDEST JUMPDEST PUSH0 PUSH2 0x9DC DUP5 DUP3 DUP6 ADD PUSH2 0x9A6 JUMP JUMPDEST SWAP2 POP POP SWAP3 SWAP2 POP POP JUMP JUMPDEST PUSH0 DUP3 DUP3 MSTORE PUSH1 0x20 DUP3 ADD SWAP1 POP SWAP3 SWAP2 POP POP JUMP JUMPDEST PUSH32 0x4F776E61626C653A2063616C6C6572206973206E6F7420746865206F776E6572 PUSH0 DUP3 ADD MSTORE POP JUMP JUMPDEST PUSH0 PUSH2 0xA29 PUSH1 0x20 DUP4 PUSH2 0x9E5 JUMP JUMPDEST SWAP2 POP PUSH2 0xA34 DUP3 PUSH2 0x9F5 JUMP JUMPDEST PUSH1 0x20 DUP3 ADD SWAP1 POP SWAP2 SWAP1 POP JUMP JUMPDEST PUSH0 PUSH1 0x20 DUP3 ADD SWAP1 POP DUP2 DUP2 SUB PUSH0 DUP4 ADD MSTORE PUSH2 0xA56 DUP2 PUSH2 0xA1D JUMP JUMPDEST SWAP1 POP SWAP2 SWAP1 POP JUMP JUMPDEST PUSH32 0x4E487B7100000000000000000000000000000000000000000000000000000000 PUSH0 MSTORE PUSH1 0x32 PUSH1 0x4 MSTORE PUSH1 0x24 PUSH0 REVERT JUMPDEST PUSH32 0x4E487B7100000000000000000000000000000000000000000000000000000000 PUSH0 MSTORE PUSH1 0x11 PUSH1 0x4 MSTORE PUSH1 0x24 PUSH0 REVERT JUMPDEST PUSH0 DUP2 SWAP1 POP SWAP2 SWAP1 POP JUMP JUMPDEST PUSH0 PUSH2 0xACA DUP3 PUSH2 0xAB7 JUMP JUMPDEST SWAP2 POP PUSH32 0xFFFFFFFFFFFFFFFFFFFFFFFFFFFFFFFFFFFFFFFFFFFFFFFFFFFFFFFFFFFFFFFF DUP3 SUB PUSH2 0xAFC JUMPI PUSH2 0xAFB PUSH2 0xA8A JUMP JUMPDEST JUMPDEST PUSH1 0x1 DUP3 ADD SWAP1 POP SWAP2 SWAP1 POP JUMP JUMPDEST PUSH32 0x4E4F545F494E5F57484954454C49535400000000000000000000000000000000 PUSH0 DUP3 ADD MSTORE POP JUMP JUMPDEST PUSH0 PUSH2 0xB3B PUSH1 0x10 DUP4 PUSH2 0x9E5 JUMP JUMPDEST SWAP2 POP PUSH2 0xB46 DUP3 PUSH2 0xB07 JUMP JUMPDEST PUSH1 0x20 DUP3 ADD SWAP1 POP SWAP2 SWAP1 POP JUMP JUMPDEST PUSH0 PUSH1 0x20 DUP3 ADD SWAP1 POP DUP2 DUP2 SUB PUSH0 DUP4 ADD MSTORE PUSH2 0xB68 DUP2 PUSH2 0xB2F JUMP JUMPDEST SWAP1 POP SWAP2 SWAP1 POP JUMP JUMPDEST PUSH32 0x4E487B7100000000000000000000000000000000000000000000000000000000 PUSH0 MSTORE PUSH1 0x41 PUSH1 0x4 MSTORE PUSH1 0x24 PUSH0 REVERT JUMPDEST PUSH32 0x4F776E61626C653A206E6577206F776E657220697320746865207A65726F2061 PUSH0 DUP3 ADD MSTORE PUSH32 0x6464726573730000000000000000000000000000000000000000000000000000 PUSH1 0x20 DUP3 ADD MSTORE POP JUMP JUMPDEST PUSH0 PUSH2 0xBF6 PUSH1 0x26 DUP4 PUSH2 0x9E5 JUMP JUMPDEST SWAP2 POP PUSH2 0xC01 DUP3 PUSH2 0xB9C JUMP JUMPDEST PUSH1 0x40 DUP3 ADD SWAP1 POP SWAP2 SWAP1 POP JUMP JUMPDEST PUSH0 PUSH1 0x20 DUP3 ADD SWAP1 POP DUP2 DUP2 SUB PUSH0 DUP4 ADD MSTORE PUSH2 0xC23 DUP2 PUSH2 0xBEA JUMP JUMPDEST SWAP1 POP SWAP2 SWAP1 POP JUMP INVALID LOG2 PUSH5 0x6970667358 0x22 SLT KECCAK256 0xF9 DUP11 0x4E LOG3 0xC6 0xD PUSH19 0xD908B0497AD81FD750121B028ECC43AC5DCB6E PUSH4 0x2E4BA2E5 SIGNEXTEND PUSH5 0x736F6C6343 STOP ADDMOD ISZERO STOP CALLER "
				},
				"gasEstimates": {
					"creation": {
						"codeDepositCost": "633600",
						"executionCost": "28603",
						"totalCost": "662203"
					},
					"external": {
						"addToWhitelist(address[])": "infinite",
						"getFtsoWhitelistedPriceProviders()": "2692",
						"isOwner()": "2512",
						"owner()": "2515",
						"removeFromWhitelist(address[])": "infinite",
						"renounceOwnership()": "30332",
						"transferOwnership(address)": "30724",
						"whitelist(address)": "2877"
					}
				},
				"methodIdentifiers": {
					"addToWhitelist(address[])": "7f649783",
					"getFtsoWhitelistedPriceProviders()": "64a62ec4",
					"isOwner()": "8f32d59b",
					"owner()": "8da5cb5b",
					"removeFromWhitelist(address[])": "548db174",
					"renounceOwnership()": "715018a6",
					"transferOwnership(address)": "f2fde38b",
					"whitelist(address)": "9b19251a"
				}
			},
			"storageLayout": {
				"storage": [
					{
						"astId": 110,
						"contract": "contracts/OnChainWhitelistContract.sol:OnChainWhitelistContract",
						"label": "_owner",
						"offset": 0,
						"slot": "0",
						"type": "t_address"
					},
					{
						"astId": 8,
						"contract": "contracts/OnChainWhitelistContract.sol:OnChainWhitelistContract",
						"label": "whitelist",
						"offset": 0,
						"slot": "1",
						"type": "t_mapping(t_address,t_bool)"
					}
				],
				"types": {
					"t_address": {
						"encoding": "inplace",
						"label": "address",
						"numberOfBytes": "20"
					},
					"t_bool": {
						"encoding": "inplace",
						"label": "bool",
						"numberOfBytes": "1"
					},
					"t_mapping(t_address,t_bool)": {
						"encoding": "mapping",
						"key": "t_address",
						"label": "mapping(address => bool)",
						"numberOfBytes": "32",
						"value": "t_bool"
					}
				}
			},
			"userdoc": {
				"kind": "user",
				"methods": {
					"addToWhitelist(address[])": {
						"notice": "Add to whitelist"
					},
					"getFtsoWhitelistedPriceProviders()": {
						"notice": "Function with whitelist"
					},
					"removeFromWhitelist(address[])": {
						"notice": "Remove from whitelist"
					}
				},
				"version": 1
			}
		}
	}
}