{
	"data": {
		"bytecode": {
			"linkReferences": {},
			"object": "608060405234801562000010575f80fd5b5060405162001e0e38038062001e0e8339818101604052810190620000369190620000e2565b8060025f6101000a81548173ffffffffffffffffffffffffffffffffffffffff021916908373ffffffffffffffffffffffffffffffffffffffff1602179055505062000112565b5f80fd5b5f73ffffffffffffffffffffffffffffffffffffffff82169050919050565b5f620000ac8262000081565b9050919050565b620000be81620000a0565b8114620000c9575f80fd5b50565b5f81519050620000dc81620000b3565b92915050565b5f60208284031215620000fa57620000f96200007d565b5b5f6200010984828501620000cc565b91505092915050565b611cee80620001205f395ff3fe608060405234801561000f575f80fd5b5060043610610060575f3560e01c806306ed15a81461006457806327c6f43e1461008057806384900b041461009c5780639516a104146100ba578063a0c15b77146100d9578063cfc64a03146100f5575b5f80fd5b61007e60048036038101906100799190610f0b565b610113565b005b61009a60048036038101906100959190610f81565b61034a565b005b6100a46105a2565b6040516100b19190611042565b60405180910390f35b6100c26105c7565b6040516100d0929190611258565b60405180910390f35b6100f360048036038101906100ee9190610f81565b610902565b005b6100fd610c2b565b60405161010a919061129c565b60405180910390f35b806020815111801561012757506021815111155b610166576040517f08c379a000000000000000000000000000000000000000000000000000000000815260040161015d9061130f565b60405180910390fd5b61016f33610c50565b6101ae576040517f08c379a00000000000000000000000000000000000000000000000000000000081526004016101a590611377565b60405180910390fd5b5f805f3373ffffffffffffffffffffffffffffffffffffffff1673ffffffffffffffffffffffffffffffffffffffff1681526020019081526020015f2090505f5b8180549050811015610309578460405160200161020c91906113cf565b60405160208183030381529060405280519060200120828281548110610235576102346113e5565b5b905f5260205f2090600202016001016040516020016102549190611501565b60405160208183030381529060405280519060200120036102f65783828281548110610283576102826113e5565b5b905f5260205f209060020201600101908161029e91906116a2565b503373ffffffffffffffffffffffffffffffffffffffff167fd0e913f018d977555c1a828667c9481dcd12f91ee8ea5f4bea383eb04e91e7fc86866040516102e79291906117a9565b60405180910390a25050610345565b80806103019061180b565b9150506101ef565b506040517f08c379a000000000000000000000000000000000000000000000000000000000815260040161033c906118c2565b60405180910390fd5b505050565b806020815111801561035e57506021815111155b61039d576040517f08c379a00000000000000000000000000000000000000000000000000000000081526004016103949061130f565b60405180910390fd5b60055f803373ffffffffffffffffffffffffffffffffffffffff1673ffffffffffffffffffffffffffffffffffffffff1681526020019081526020015f20805490501061041f576040517f08c379a000000000000000000000000000000000000000000000000000000000815260040161041690611950565b60405180910390fd5b61042833610c50565b610467576040517f08c379a000000000000000000000000000000000000000000000000000000000815260040161045e90611377565b60405180910390fd5b5f803373ffffffffffffffffffffffffffffffffffffffff1673ffffffffffffffffffffffffffffffffffffffff1681526020019081526020015f2060405180604001604052803373ffffffffffffffffffffffffffffffffffffffff16815260200184815250908060018154018082558091505060019003905f5260205f2090600202015f909190919091505f820151815f015f6101000a81548173ffffffffffffffffffffffffffffffffffffffff021916908373ffffffffffffffffffffffffffffffffffffffff160217905550602082015181600101908161054d91906116a2565b5050503373ffffffffffffffffffffffffffffffffffffffff167f27dcab8cdfa14145566e2b9d04fea5a4e8ea320a3f04488a1de4d431ed1080ab83604051610596919061196e565b60405180910390a25050565b60025f9054906101000a900473ffffffffffffffffffffffffffffffffffffffff1681565b6060805f805f90505b5f803373ffffffffffffffffffffffffffffffffffffffff1673ffffffffffffffffffffffffffffffffffffffff1681526020019081526020015f208054905081101561063957600182610624919061198e565b915080806106319061180b565b9150506105d0565b508067ffffffffffffffff81111561065457610653610de7565b5b6040519080825280602002602001820160405280156106825781602001602082028036833780820191505090505b5092508067ffffffffffffffff81111561069f5761069e610de7565b5b6040519080825280602002602001820160405280156106d257816020015b60608152602001906001900390816106bd5790505b5091505f5b5f803373ffffffffffffffffffffffffffffffffffffffff1673ffffffffffffffffffffffffffffffffffffffff1681526020019081526020015f20805490508110156108fc575f803373ffffffffffffffffffffffffffffffffffffffff1673ffffffffffffffffffffffffffffffffffffffff1681526020019081526020015f20818154811061076c5761076b6113e5565b5b905f5260205f2090600202015f015f9054906101000a900473ffffffffffffffffffffffffffffffffffffffff168482815181106107ad576107ac6113e5565b5b602002602001019073ffffffffffffffffffffffffffffffffffffffff16908173ffffffffffffffffffffffffffffffffffffffff16815250505f803373ffffffffffffffffffffffffffffffffffffffff1673ffffffffffffffffffffffffffffffffffffffff1681526020019081526020015f208181548110610835576108346113e5565b5b905f5260205f209060020201600101805461084f9061143f565b80601f016020809104026020016040519081016040528092919081815260200182805461087b9061143f565b80156108c65780601f1061089d576101008083540402835291602001916108c6565b820191905f5260205f20905b8154815290600101906020018083116108a957829003601f168201915b50505050508382815181106108de576108dd6113e5565b5b602002602001018190525080806108f49061180b565b9150506106d7565b50509091565b806020815111801561091657506021815111155b610955576040517f08c379a000000000000000000000000000000000000000000000000000000000815260040161094c9061130f565b60405180910390fd5b61095e33610c50565b61099d576040517f08c379a000000000000000000000000000000000000000000000000000000000815260040161099490611377565b60405180910390fd5b5f805f3373ffffffffffffffffffffffffffffffffffffffff1673ffffffffffffffffffffffffffffffffffffffff1681526020019081526020015f2090505f5b8180549050811015610beb57836040516020016109fb91906113cf565b60405160208183030381529060405280519060200120828281548110610a2457610a236113e5565b5b905f5260205f209060020201600101604051602001610a439190611501565b6040516020818303038152906040528051906020012003610bd8578160018380549050610a7091906119c1565b81548110610a8157610a806113e5565b5b905f5260205f209060020201828281548110610aa057610a9f6113e5565b5b905f5260205f2090600202015f82015f9054906101000a900473ffffffffffffffffffffffffffffffffffffffff16815f015f6101000a81548173ffffffffffffffffffffffffffffffffffffffff021916908373ffffffffffffffffffffffffffffffffffffffff16021790555060018201816001019081610b239190611a09565b5090505081805480610b3857610b37611aee565b5b600190038181905f5260205f2090600202015f8082015f6101000a81549073ffffffffffffffffffffffffffffffffffffffff0219169055600182015f610b7f9190610d66565b505090553373ffffffffffffffffffffffffffffffffffffffff167f53d1025fa64c9cc66082e15b8ef38615443e44acececbc4589dee4b1394a947d85604051610bc9919061196e565b60405180910390a25050610c27565b8080610be39061180b565b9150506109de565b506040517f08c379a0000000000000000000000000000000000000000000000000000000008152600401610c1e90611b65565b60405180910390fd5b5050565b60015f9054906101000a900473ffffffffffffffffffffffffffffffffffffffff1681565b5f8060025f9054906101000a900473ffffffffffffffffffffffffffffffffffffffff1673ffffffffffffffffffffffffffffffffffffffff166364a62ec46040518163ffffffff1660e01b81526004015f60405180830381865afa158015610cbb573d5f803e3d5ffd5b505050506040513d5f823e3d601f19601f82011682018060405250810190610ce39190611c71565b90505f5b8151811015610d5b578373ffffffffffffffffffffffffffffffffffffffff16828281518110610d1a57610d196113e5565b5b602002602001015173ffffffffffffffffffffffffffffffffffffffff1603610d4857600192505050610d61565b8080610d539061180b565b915050610ce7565b505f9150505b919050565b508054610d729061143f565b5f825580601f10610d835750610da0565b601f0160209004905f5260205f2090810190610d9f9190610da3565b5b50565b5b80821115610dba575f815f905550600101610da4565b5090565b5f604051905090565b5f80fd5b5f80fd5b5f80fd5b5f80fd5b5f601f19601f8301169050919050565b7f4e487b71000000000000000000000000000000000000000000000000000000005f52604160045260245ffd5b610e1d82610dd7565b810181811067ffffffffffffffff82111715610e3c57610e3b610de7565b5b80604052505050565b5f610e4e610dbe565b9050610e5a8282610e14565b919050565b5f67ffffffffffffffff821115610e7957610e78610de7565b5b610e8282610dd7565b9050602081019050919050565b828183375f83830152505050565b5f610eaf610eaa84610e5f565b610e45565b905082815260208101848484011115610ecb57610eca610dd3565b5b610ed6848285610e8f565b509392505050565b5f82601f830112610ef257610ef1610dcf565b5b8135610f02848260208601610e9d565b91505092915050565b5f8060408385031215610f2157610f20610dc7565b5b5f83013567ffffffffffffffff811115610f3e57610f3d610dcb565b5b610f4a85828601610ede565b925050602083013567ffffffffffffffff811115610f6b57610f6a610dcb565b5b610f7785828601610ede565b9150509250929050565b5f60208284031215610f9657610f95610dc7565b5b5f82013567ffffffffffffffff811115610fb357610fb2610dcb565b5b610fbf84828501610ede565b91505092915050565b5f73ffffffffffffffffffffffffffffffffffffffff82169050919050565b5f819050919050565b5f61100a61100561100084610fc8565b610fe7565b610fc8565b9050919050565b5f61101b82610ff0565b9050919050565b5f61102c82611011565b9050919050565b61103c81611022565b82525050565b5f6020820190506110555f830184611033565b92915050565b5f81519050919050565b5f82825260208201905092915050565b5f819050602082019050919050565b5f61108e82610fc8565b9050919050565b61109e81611084565b82525050565b5f6110af8383611095565b60208301905092915050565b5f602082019050919050565b5f6110d18261105b565b6110db8185611065565b93506110e683611075565b805f5b838110156111165781516110fd88826110a4565b9750611108836110bb565b9250506001810190506110e9565b5085935050505092915050565b5f81519050919050565b5f82825260208201905092915050565b5f819050602082019050919050565b5f81519050919050565b5f82825260208201905092915050565b5f5b83811015611183578082015181840152602081019050611168565b5f8484015250505050565b5f6111988261114c565b6111a28185611156565b93506111b2818560208601611166565b6111bb81610dd7565b840191505092915050565b5f6111d1838361118e565b905092915050565b5f602082019050919050565b5f6111ef82611123565b6111f9818561112d565b93508360208202850161120b8561113d565b805f5b85811015611246578484038952815161122785826111c6565b9450611232836111d9565b925060208a0199505060018101905061120e565b50829750879550505050505092915050565b5f6040820190508181035f83015261127081856110c7565b9050818103602083015261128481846111e5565b90509392505050565b61129681611084565b82525050565b5f6020820190506112af5f83018461128d565b92915050565b5f82825260208201905092915050565b7f496e76616c6964204e6f6465204944206c656e677468000000000000000000005f82015250565b5f6112f96016836112b5565b9150611304826112c5565b602082019050919050565b5f6020820190508181035f830152611326816112ed565b9050919050565b7f53656e646572206973206e6f742077686974656c6973746564000000000000005f82015250565b5f6113616019836112b5565b915061136c8261132d565b602082019050919050565b5f6020820190508181035f83015261138e81611355565b9050919050565b5f81905092915050565b5f6113a98261114c565b6113b38185611395565b93506113c3818560208601611166565b80840191505092915050565b5f6113da828461139f565b915081905092915050565b7f4e487b71000000000000000000000000000000000000000000000000000000005f52603260045260245ffd5b7f4e487b71000000000000000000000000000000000000000000000000000000005f52602260045260245ffd5b5f600282049050600182168061145657607f821691505b60208210810361146957611468611412565b5b50919050565b5f819050815f5260205f209050919050565b5f815461148d8161143f565b6114978186611395565b9450600182165f81146114b157600181146114c6576114f8565b60ff19831686528115158202860193506114f8565b6114cf8561146f565b5f5b838110156114f0578154818901526001820191506020810190506114d1565b838801955050505b50505092915050565b5f61150c8284611481565b915081905092915050565b5f6020601f8301049050919050565b5f82821b905092915050565b5f600883026115617fffffffffffffffffffffffffffffffffffffffffffffffffffffffffffffffff82611526565b61156b8683611526565b95508019841693508086168417925050509392505050565b5f819050919050565b5f6115a66115a161159c84611583565b610fe7565b611583565b9050919050565b5f819050919050565b6115bf8361158c565b6115d36115cb826115ad565b848454611532565b825550505050565b5f90565b6115e76115db565b6115f28184846115b6565b505050565b5b818110156116155761160a5f826115df565b6001810190506115f8565b5050565b601f82111561165a5761162b8161146f565b61163484611517565b81016020851015611643578190505b61165761164f85611517565b8301826115f7565b50505b505050565b5f82821c905092915050565b5f61167a5f198460080261165f565b1980831691505092915050565b5f611692838361166b565b9150826002028217905092915050565b6116ab8261114c565b67ffffffffffffffff8111156116c4576116c3610de7565b5b6116ce825461143f565b6116d9828285611619565b5f60209050601f83116001811461170a575f84156116f8578287015190505b6117028582611687565b865550611769565b601f1984166117188661146f565b5f5b8281101561173f5784890151825560018201915060208501945060208101905061171a565b8683101561175c5784890151611758601f89168261166b565b8355505b6001600288020188555050505b505050505050565b5f61177b8261114c565b61178581856112b5565b9350611795818560208601611166565b61179e81610dd7565b840191505092915050565b5f6040820190508181035f8301526117c18185611771565b905081810360208301526117d58184611771565b90509392505050565b7f4e487b71000000000000000000000000000000000000000000000000000000005f52601160045260245ffd5b5f61181582611583565b91507fffffffffffffffffffffffffffffffffffffffffffffffffffffffffffffffff8203611847576118466117de565b5b600182019050919050565b7f4f6c64206e6f6465204944206e6f7420666f756e6420666f7220746865206f775f8201527f6e65720000000000000000000000000000000000000000000000000000000000602082015250565b5f6118ac6023836112b5565b91506118b782611852565b604082019050919050565b5f6020820190508181035f8301526118d9816118a0565b9050919050565b7f4f776e657220616c72656164792068617320352072656769737465726564206e5f8201527f6f64657300000000000000000000000000000000000000000000000000000000602082015250565b5f61193a6024836112b5565b9150611945826118e0565b604082019050919050565b5f6020820190508181035f8301526119678161192e565b9050919050565b5f6020820190508181035f8301526119868184611771565b905092915050565b5f61199882611583565b91506119a383611583565b92508282019050808211156119bb576119ba6117de565b5b92915050565b5f6119cb82611583565b91506119d683611583565b92508282039050818111156119ee576119ed6117de565b5b92915050565b5f81549050611a028161143f565b9050919050565b818103611a17575050611aec565b611a20826119f4565b67ffffffffffffffff811115611a3957611a38610de7565b5b611a43825461143f565b611a4e828285611619565b5f601f831160018114611a7b575f8415611a69578287015490505b611a738582611687565b865550611ae5565b601f198416611a898761146f565b9650611a948661146f565b5f5b82811015611abb57848901548255600182019150600185019450602081019050611a96565b86831015611ad85784890154611ad4601f89168261166b565b8355505b6001600288020188555050505b5050505050505b565b7f4e487b71000000000000000000000000000000000000000000000000000000005f52603160045260245ffd5b7f4e6f6465206e6f7420666f756e6420666f7220746865206f776e6572000000005f82015250565b5f611b4f601c836112b5565b9150611b5a82611b1b565b602082019050919050565b5f6020820190508181035f830152611b7c81611b43565b9050919050565b5f67ffffffffffffffff821115611b9d57611b9c610de7565b5b602082029050602081019050919050565b5f80fd5b611bbb81611084565b8114611bc5575f80fd5b50565b5f81519050611bd681611bb2565b92915050565b5f611bee611be984611b83565b610e45565b90508083825260208201905060208402830185811115611c1157611c10611bae565b5b835b81811015611c3a5780611c268882611bc8565b845260208401935050602081019050611c13565b5050509392505050565b5f82601f830112611c5857611c57610dcf565b5b8151611c68848260208601611bdc565b91505092915050565b5f60208284031215611c8657611c85610dc7565b5b5f82015167ffffffffffffffff811115611ca357611ca2610dcb565b5b611caf84828501611c44565b9150509291505056fea26469706673582212207772f6627f62c0c3ce077f1ddf01c85f6b033142c07394dffe7909fcd34648af64736f6c63430008150033",
			"opcodes": "PUSH1 0x80 PUSH1 0x40 MSTORE CALLVALUE DUP1 ISZERO PUSH3 0x10 JUMPI PUSH0 DUP1 REVERT JUMPDEST POP PUSH1 0x40 MLOAD PUSH3 0x1E0E CODESIZE SUB DUP1 PUSH3 0x1E0E DUP4 CODECOPY DUP2 DUP2 ADD PUSH1 0x40 MSTORE DUP2 ADD SWAP1 PUSH3 0x36 SWAP2 SWAP1 PUSH3 0xE2 JUMP JUMPDEST DUP1 PUSH1 0x2 PUSH0 PUSH2 0x100 EXP DUP2 SLOAD DUP2 PUSH20 0xFFFFFFFFFFFFFFFFFFFFFFFFFFFFFFFFFFFFFFFF MUL NOT AND SWAP1 DUP4 PUSH20 0xFFFFFFFFFFFFFFFFFFFFFFFFFFFFFFFFFFFFFFFF AND MUL OR SWAP1 SSTORE POP POP PUSH3 0x112 JUMP JUMPDEST PUSH0 DUP1 REVERT JUMPDEST PUSH0 PUSH20 0xFFFFFFFFFFFFFFFFFFFFFFFFFFFFFFFFFFFFFFFF DUP3 AND SWAP1 POP SWAP2 SWAP1 POP JUMP JUMPDEST PUSH0 PUSH3 0xAC DUP3 PUSH3 0x81 JUMP JUMPDEST SWAP1 POP SWAP2 SWAP1 POP JUMP JUMPDEST PUSH3 0xBE DUP2 PUSH3 0xA0 JUMP JUMPDEST DUP2 EQ PUSH3 0xC9 JUMPI PUSH0 DUP1 REVERT JUMPDEST POP JUMP JUMPDEST PUSH0 DUP2 MLOAD SWAP1 POP PUSH3 0xDC DUP2 PUSH3 0xB3 JUMP JUMPDEST SWAP3 SWAP2 POP POP JUMP JUMPDEST PUSH0 PUSH1 0x20 DUP3 DUP5 SUB SLT ISZERO PUSH3 0xFA JUMPI PUSH3 0xF9 PUSH3 0x7D JUMP JUMPDEST JUMPDEST PUSH0 PUSH3 0x109 DUP5 DUP3 DUP6 ADD PUSH3 0xCC JUMP JUMPDEST SWAP2 POP POP SWAP3 SWAP2 POP POP JUMP JUMPDEST PUSH2 0x1CEE DUP1 PUSH3 0x120 PUSH0 CODECOPY PUSH0 RETURN INVALID PUSH1 0x80 PUSH1 0x40 MSTORE CALLVALUE DUP1 ISZERO PUSH2 0xF JUMPI PUSH0 DUP1 REVERT JUMPDEST POP PUSH1 0x4 CALLDATASIZE LT PUSH2 0x60 JUMPI PUSH0 CALLDATALOAD PUSH1 0xE0 SHR DUP1 PUSH4 0x6ED15A8 EQ PUSH2 0x64 JUMPI DUP1 PUSH4 0x27C6F43E EQ PUSH2 0x80 JUMPI DUP1 PUSH4 0x84900B04 EQ PUSH2 0x9C JUMPI DUP1 PUSH4 0x9516A104 EQ PUSH2 0xBA JUMPI DUP1 PUSH4 0xA0C15B77 EQ PUSH2 0xD9 JUMPI DUP1 PUSH4 0xCFC64A03 EQ PUSH2 0xF5 JUMPI JUMPDEST PUSH0 DUP1 REVERT JUMPDEST PUSH2 0x7E PUSH1 0x4 DUP1 CALLDATASIZE SUB DUP2 ADD SWAP1 PUSH2 0x79 SWAP2 SWAP1 PUSH2 0xF0B JUMP JUMPDEST PUSH2 0x113 JUMP JUMPDEST STOP JUMPDEST PUSH2 0x9A PUSH1 0x4 DUP1 CALLDATASIZE SUB DUP2 ADD SWAP1 PUSH2 0x95 SWAP2 SWAP1 PUSH2 0xF81 JUMP JUMPDEST PUSH2 0x34A JUMP JUMPDEST STOP JUMPDEST PUSH2 0xA4 PUSH2 0x5A2 JUMP JUMPDEST PUSH1 0x40 MLOAD PUSH2 0xB1 SWAP2 SWAP1 PUSH2 0x1042 JUMP JUMPDEST PUSH1 0x40 MLOAD DUP1 SWAP2 SUB SWAP1 RETURN JUMPDEST PUSH2 0xC2 PUSH2 0x5C7 JUMP JUMPDEST PUSH1 0x40 MLOAD PUSH2 0xD0 SWAP3 SWAP2 SWAP1 PUSH2 0x1258 JUMP JUMPDEST PUSH1 0x40 MLOAD DUP1 SWAP2 SUB SWAP1 RETURN JUMPDEST PUSH2 0xF3 PUSH1 0x4 DUP1 CALLDATASIZE SUB DUP2 ADD SWAP1 PUSH2 0xEE SWAP2 SWAP1 PUSH2 0xF81 JUMP JUMPDEST PUSH2 0x902 JUMP JUMPDEST STOP JUMPDEST PUSH2 0xFD PUSH2 0xC2B JUMP JUMPDEST PUSH1 0x40 MLOAD PUSH2 0x10A SWAP2 SWAP1 PUSH2 0x129C JUMP JUMPDEST PUSH1 0x40 MLOAD DUP1 SWAP2 SUB SWAP1 RETURN JUMPDEST DUP1 PUSH1 0x20 DUP2 MLOAD GT DUP1 ISZERO PUSH2 0x127 JUMPI POP PUSH1 0x21 DUP2 MLOAD GT ISZERO JUMPDEST PUSH2 0x166 JUMPI PUSH1 0x40 MLOAD PUSH32 0x8C379A000000000000000000000000000000000000000000000000000000000 DUP2 MSTORE PUSH1 0x4 ADD PUSH2 0x15D SWAP1 PUSH2 0x130F JUMP JUMPDEST PUSH1 0x40 MLOAD DUP1 SWAP2 SUB SWAP1 REVERT JUMPDEST PUSH2 0x16F CALLER PUSH2 0xC50 JUMP JUMPDEST PUSH2 0x1AE JUMPI PUSH1 0x40 MLOAD PUSH32 0x8C379A000000000000000000000000000000000000000000000000000000000 DUP2 MSTORE PUSH1 0x4 ADD PUSH2 0x1A5 SWAP1 PUSH2 0x1377 JUMP JUMPDEST PUSH1 0x40 MLOAD DUP1 SWAP2 SUB SWAP1 REVERT JUMPDEST PUSH0 DUP1 PUSH0 CALLER PUSH20 0xFFFFFFFFFFFFFFFFFFFFFFFFFFFFFFFFFFFFFFFF AND PUSH20 0xFFFFFFFFFFFFFFFFFFFFFFFFFFFFFFFFFFFFFFFF AND DUP2 MSTORE PUSH1 0x20 ADD SWAP1 DUP2 MSTORE PUSH1 0x20 ADD PUSH0 KECCAK256 SWAP1 POP PUSH0 JUMPDEST DUP2 DUP1 SLOAD SWAP1 POP DUP2 LT ISZERO PUSH2 0x309 JUMPI DUP5 PUSH1 0x40 MLOAD PUSH1 0x20 ADD PUSH2 0x20C SWAP2 SWAP1 PUSH2 0x13CF JUMP JUMPDEST PUSH1 0x40 MLOAD PUSH1 0x20 DUP2 DUP4 SUB SUB DUP2 MSTORE SWAP1 PUSH1 0x40 MSTORE DUP1 MLOAD SWAP1 PUSH1 0x20 ADD KECCAK256 DUP3 DUP3 DUP2 SLOAD DUP2 LT PUSH2 0x235 JUMPI PUSH2 0x234 PUSH2 0x13E5 JUMP JUMPDEST JUMPDEST SWAP1 PUSH0 MSTORE PUSH1 0x20 PUSH0 KECCAK256 SWAP1 PUSH1 0x2 MUL ADD PUSH1 0x1 ADD PUSH1 0x40 MLOAD PUSH1 0x20 ADD PUSH2 0x254 SWAP2 SWAP1 PUSH2 0x1501 JUMP JUMPDEST PUSH1 0x40 MLOAD PUSH1 0x20 DUP2 DUP4 SUB SUB DUP2 MSTORE SWAP1 PUSH1 0x40 MSTORE DUP1 MLOAD SWAP1 PUSH1 0x20 ADD KECCAK256 SUB PUSH2 0x2F6 JUMPI DUP4 DUP3 DUP3 DUP2 SLOAD DUP2 LT PUSH2 0x283 JUMPI PUSH2 0x282 PUSH2 0x13E5 JUMP JUMPDEST JUMPDEST SWAP1 PUSH0 MSTORE PUSH1 0x20 PUSH0 KECCAK256 SWAP1 PUSH1 0x2 MUL ADD PUSH1 0x1 ADD SWAP1 DUP2 PUSH2 0x29E SWAP2 SWAP1 PUSH2 0x16A2 JUMP JUMPDEST POP CALLER PUSH20 0xFFFFFFFFFFFFFFFFFFFFFFFFFFFFFFFFFFFFFFFF AND PUSH32 0xD0E913F018D977555C1A828667C9481DCD12F91EE8EA5F4BEA383EB04E91E7FC DUP7 DUP7 PUSH1 0x40 MLOAD PUSH2 0x2E7 SWAP3 SWAP2 SWAP1 PUSH2 0x17A9 JUMP JUMPDEST PUSH1 0x40 MLOAD DUP1 SWAP2 SUB SWAP1 LOG2 POP POP PUSH2 0x345 JUMP JUMPDEST DUP1 DUP1 PUSH2 0x301 SWAP1 PUSH2 0x180B JUMP JUMPDEST SWAP2 POP POP PUSH2 0x1EF JUMP JUMPDEST POP PUSH1 0x40 MLOAD PUSH32 0x8C379A000000000000000000000000000000000000000000000000000000000 DUP2 MSTORE PUSH1 0x4 ADD PUSH2 0x33C SWAP1 PUSH2 0x18C2 JUMP JUMPDEST PUSH1 0x40 MLOAD DUP1 SWAP2 SUB SWAP1 REVERT JUMPDEST POP POP POP JUMP JUMPDEST DUP1 PUSH1 0x20 DUP2 MLOAD GT DUP1 ISZERO PUSH2 0x35E JUMPI POP PUSH1 0x21 DUP2 MLOAD GT ISZERO JUMPDEST PUSH2 0x39D JUMPI PUSH1 0x40 MLOAD PUSH32 0x8C379A000000000000000000000000000000000000000000000000000000000 DUP2 MSTORE PUSH1 0x4 ADD PUSH2 0x394 SWAP1 PUSH2 0x130F JUMP JUMPDEST PUSH1 0x40 MLOAD DUP1 SWAP2 SUB SWAP1 REVERT JUMPDEST PUSH1 0x5 PUSH0 DUP1 CALLER PUSH20 0xFFFFFFFFFFFFFFFFFFFFFFFFFFFFFFFFFFFFFFFF AND PUSH20 0xFFFFFFFFFFFFFFFFFFFFFFFFFFFFFFFFFFFFFFFF AND DUP2 MSTORE PUSH1 0x20 ADD SWAP1 DUP2 MSTORE PUSH1 0x20 ADD PUSH0 KECCAK256 DUP1 SLOAD SWAP1 POP LT PUSH2 0x41F JUMPI PUSH1 0x40 MLOAD PUSH32 0x8C379A000000000000000000000000000000000000000000000000000000000 DUP2 MSTORE PUSH1 0x4 ADD PUSH2 0x416 SWAP1 PUSH2 0x1950 JUMP JUMPDEST PUSH1 0x40 MLOAD DUP1 SWAP2 SUB SWAP1 REVERT JUMPDEST PUSH2 0x428 CALLER PUSH2 0xC50 JUMP JUMPDEST PUSH2 0x467 JUMPI PUSH1 0x40 MLOAD PUSH32 0x8C379A000000000000000000000000000000000000000000000000000000000 DUP2 MSTORE PUSH1 0x4 ADD PUSH2 0x45E SWAP1 PUSH2 0x1377 JUMP JUMPDEST PUSH1 0x40 MLOAD DUP1 SWAP2 SUB SWAP1 REVERT JUMPDEST PUSH0 DUP1 CALLER PUSH20 0xFFFFFFFFFFFFFFFFFFFFFFFFFFFFFFFFFFFFFFFF AND PUSH20 0xFFFFFFFFFFFFFFFFFFFFFFFFFFFFFFFFFFFFFFFF AND DUP2 MSTORE PUSH1 0x20 ADD SWAP1 DUP2 MSTORE PUSH1 0x20 ADD PUSH0 KECCAK256 PUSH1 0x40 MLOAD DUP1 PUSH1 0x40 ADD PUSH1 0x40 MSTORE DUP1 CALLER PUSH20 0xFFFFFFFFFFFFFFFFFFFFFFFFFFFFFFFFFFFFFFFF AND DUP2 MSTORE PUSH1 0x20 ADD DUP5 DUP2 MSTORE POP SWAP1 DUP1 PUSH1 0x1 DUP2 SLOAD ADD DUP1 DUP3 SSTORE DUP1 SWAP2 POP POP PUSH1 0x1 SWAP1 SUB SWAP1 PUSH0 MSTORE PUSH1 0x20 PUSH0 KECCAK256 SWAP1 PUSH1 0x2 MUL ADD PUSH0 SWAP1 SWAP2 SWAP1 SWAP2 SWAP1 SWAP2 POP PUSH0 DUP3 ADD MLOAD DUP2 PUSH0 ADD PUSH0 PUSH2 0x100 EXP DUP2 SLOAD DUP2 PUSH20 0xFFFFFFFFFFFFFFFFFFFFFFFFFFFFFFFFFFFFFFFF MUL NOT AND SWAP1 DUP4 PUSH20 0xFFFFFFFFFFFFFFFFFFFFFFFFFFFFFFFFFFFFFFFF AND MUL OR SWAP1 SSTORE POP PUSH1 0x20 DUP3 ADD MLOAD DUP2 PUSH1 0x1 ADD SWAP1 DUP2 PUSH2 0x54D SWAP2 SWAP1 PUSH2 0x16A2 JUMP JUMPDEST POP POP POP CALLER PUSH20 0xFFFFFFFFFFFFFFFFFFFFFFFFFFFFFFFFFFFFFFFF AND PUSH32 0x27DCAB8CDFA14145566E2B9D04FEA5A4E8EA320A3F04488A1DE4D431ED1080AB DUP4 PUSH1 0x40 MLOAD PUSH2 0x596 SWAP2 SWAP1 PUSH2 0x196E JUMP JUMPDEST PUSH1 0x40 MLOAD DUP1 SWAP2 SUB SWAP1 LOG2 POP POP JUMP JUMPDEST PUSH1 0x2 PUSH0 SWAP1 SLOAD SWAP1 PUSH2 0x100 EXP SWAP1 DIV PUSH20 0xFFFFFFFFFFFFFFFFFFFFFFFFFFFFFFFFFFFFFFFF AND DUP2 JUMP JUMPDEST PUSH1 0x60 DUP1 PUSH0 DUP1 PUSH0 SWAP1 POP JUMPDEST PUSH0 DUP1 CALLER PUSH20 0xFFFFFFFFFFFFFFFFFFFFFFFFFFFFFFFFFFFFFFFF AND PUSH20 0xFFFFFFFFFFFFFFFFFFFFFFFFFFFFFFFFFFFFFFFF AND DUP2 MSTORE PUSH1 0x20 ADD SWAP1 DUP2 MSTORE PUSH1 0x20 ADD PUSH0 KECCAK256 DUP1 SLOAD SWAP1 POP DUP2 LT ISZERO PUSH2 0x639 JUMPI PUSH1 0x1 DUP3 PUSH2 0x624 SWAP2 SWAP1 PUSH2 0x198E JUMP JUMPDEST SWAP2 POP DUP1 DUP1 PUSH2 0x631 SWAP1 PUSH2 0x180B JUMP JUMPDEST SWAP2 POP POP PUSH2 0x5D0 JUMP JUMPDEST POP DUP1 PUSH8 0xFFFFFFFFFFFFFFFF DUP2 GT ISZERO PUSH2 0x654 JUMPI PUSH2 0x653 PUSH2 0xDE7 JUMP JUMPDEST JUMPDEST PUSH1 0x40 MLOAD SWAP1 DUP1 DUP3 MSTORE DUP1 PUSH1 0x20 MUL PUSH1 0x20 ADD DUP3 ADD PUSH1 0x40 MSTORE DUP1 ISZERO PUSH2 0x682 JUMPI DUP2 PUSH1 0x20 ADD PUSH1 0x20 DUP3 MUL DUP1 CALLDATASIZE DUP4 CALLDATACOPY DUP1 DUP3 ADD SWAP2 POP POP SWAP1 POP JUMPDEST POP SWAP3 POP DUP1 PUSH8 0xFFFFFFFFFFFFFFFF DUP2 GT ISZERO PUSH2 0x69F JUMPI PUSH2 0x69E PUSH2 0xDE7 JUMP JUMPDEST JUMPDEST PUSH1 0x40 MLOAD SWAP1 DUP1 DUP3 MSTORE DUP1 PUSH1 0x20 MUL PUSH1 0x20 ADD DUP3 ADD PUSH1 0x40 MSTORE DUP1 ISZERO PUSH2 0x6D2 JUMPI DUP2 PUSH1 0x20 ADD JUMPDEST PUSH1 0x60 DUP2 MSTORE PUSH1 0x20 ADD SWAP1 PUSH1 0x1 SWAP1 SUB SWAP1 DUP2 PUSH2 0x6BD JUMPI SWAP1 POP JUMPDEST POP SWAP2 POP PUSH0 JUMPDEST PUSH0 DUP1 CALLER PUSH20 0xFFFFFFFFFFFFFFFFFFFFFFFFFFFFFFFFFFFFFFFF AND PUSH20 0xFFFFFFFFFFFFFFFFFFFFFFFFFFFFFFFFFFFFFFFF AND DUP2 MSTORE PUSH1 0x20 ADD SWAP1 DUP2 MSTORE PUSH1 0x20 ADD PUSH0 KECCAK256 DUP1 SLOAD SWAP1 POP DUP2 LT ISZERO PUSH2 0x8FC JUMPI PUSH0 DUP1 CALLER PUSH20 0xFFFFFFFFFFFFFFFFFFFFFFFFFFFFFFFFFFFFFFFF AND PUSH20 0xFFFFFFFFFFFFFFFFFFFFFFFFFFFFFFFFFFFFFFFF AND DUP2 MSTORE PUSH1 0x20 ADD SWAP1 DUP2 MSTORE PUSH1 0x20 ADD PUSH0 KECCAK256 DUP2 DUP2 SLOAD DUP2 LT PUSH2 0x76C JUMPI PUSH2 0x76B PUSH2 0x13E5 JUMP JUMPDEST JUMPDEST SWAP1 PUSH0 MSTORE PUSH1 0x20 PUSH0 KECCAK256 SWAP1 PUSH1 0x2 MUL ADD PUSH0 ADD PUSH0 SWAP1 SLOAD SWAP1 PUSH2 0x100 EXP SWAP1 DIV PUSH20 0xFFFFFFFFFFFFFFFFFFFFFFFFFFFFFFFFFFFFFFFF AND DUP5 DUP3 DUP2 MLOAD DUP2 LT PUSH2 0x7AD JUMPI PUSH2 0x7AC PUSH2 0x13E5 JUMP JUMPDEST JUMPDEST PUSH1 0x20 MUL PUSH1 0x20 ADD ADD SWAP1 PUSH20 0xFFFFFFFFFFFFFFFFFFFFFFFFFFFFFFFFFFFFFFFF AND SWAP1 DUP2 PUSH20 0xFFFFFFFFFFFFFFFFFFFFFFFFFFFFFFFFFFFFFFFF AND DUP2 MSTORE POP POP PUSH0 DUP1 CALLER PUSH20 0xFFFFFFFFFFFFFFFFFFFFFFFFFFFFFFFFFFFFFFFF AND PUSH20 0xFFFFFFFFFFFFFFFFFFFFFFFFFFFFFFFFFFFFFFFF AND DUP2 MSTORE PUSH1 0x20 ADD SWAP1 DUP2 MSTORE PUSH1 0x20 ADD PUSH0 KECCAK256 DUP2 DUP2 SLOAD DUP2 LT PUSH2 0x835 JUMPI PUSH2 0x834 PUSH2 0x13E5 JUMP JUMPDEST JUMPDEST SWAP1 PUSH0 MSTORE PUSH1 0x20 PUSH0 KECCAK256 SWAP1 PUSH1 0x2 MUL ADD PUSH1 0x1 ADD DUP1 SLOAD PUSH2 0x84F SWAP1 PUSH2 0x143F JUMP JUMPDEST DUP1 PUSH1 0x1F ADD PUSH1 0x20 DUP1 SWAP2 DIV MUL PUSH1 0x20 ADD PUSH1 0x40 MLOAD SWAP1 DUP2 ADD PUSH1 0x40 MSTORE DUP1 SWAP3 SWAP2 SWAP1 DUP2 DUP2 MSTORE PUSH1 0x20 ADD DUP3 DUP1 SLOAD PUSH2 0x87B SWAP1 PUSH2 0x143F JUMP JUMPDEST DUP1 ISZERO PUSH2 0x8C6 JUMPI DUP1 PUSH1 0x1F LT PUSH2 0x89D JUMPI PUSH2 0x100 DUP1 DUP4 SLOAD DIV MUL DUP4 MSTORE SWAP2 PUSH1 0x20 ADD SWAP2 PUSH2 0x8C6 JUMP JUMPDEST DUP3 ADD SWAP2 SWAP1 PUSH0 MSTORE PUSH1 0x20 PUSH0 KECCAK256 SWAP1 JUMPDEST DUP2 SLOAD DUP2 MSTORE SWAP1 PUSH1 0x1 ADD SWAP1 PUSH1 0x20 ADD DUP1 DUP4 GT PUSH2 0x8A9 JUMPI DUP3 SWAP1 SUB PUSH1 0x1F AND DUP3 ADD SWAP2 JUMPDEST POP POP POP POP POP DUP4 DUP3 DUP2 MLOAD DUP2 LT PUSH2 0x8DE JUMPI PUSH2 0x8DD PUSH2 0x13E5 JUMP JUMPDEST JUMPDEST PUSH1 0x20 MUL PUSH1 0x20 ADD ADD DUP2 SWAP1 MSTORE POP DUP1 DUP1 PUSH2 0x8F4 SWAP1 PUSH2 0x180B JUMP JUMPDEST SWAP2 POP POP PUSH2 0x6D7 JUMP JUMPDEST POP POP SWAP1 SWAP2 JUMP JUMPDEST DUP1 PUSH1 0x20 DUP2 MLOAD GT DUP1 ISZERO PUSH2 0x916 JUMPI POP PUSH1 0x21 DUP2 MLOAD GT ISZERO JUMPDEST PUSH2 0x955 JUMPI PUSH1 0x40 MLOAD PUSH32 0x8C379A000000000000000000000000000000000000000000000000000000000 DUP2 MSTORE PUSH1 0x4 ADD PUSH2 0x94C SWAP1 PUSH2 0x130F JUMP JUMPDEST PUSH1 0x40 MLOAD DUP1 SWAP2 SUB SWAP1 REVERT JUMPDEST PUSH2 0x95E CALLER PUSH2 0xC50 JUMP JUMPDEST PUSH2 0x99D JUMPI PUSH1 0x40 MLOAD PUSH32 0x8C379A000000000000000000000000000000000000000000000000000000000 DUP2 MSTORE PUSH1 0x4 ADD PUSH2 0x994 SWAP1 PUSH2 0x1377 JUMP JUMPDEST PUSH1 0x40 MLOAD DUP1 SWAP2 SUB SWAP1 REVERT JUMPDEST PUSH0 DUP1 PUSH0 CALLER PUSH20 0xFFFFFFFFFFFFFFFFFFFFFFFFFFFFFFFFFFFFFFFF AND PUSH20 0xFFFFFFFFFFFFFFFFFFFFFFFFFFFFFFFFFFFFFFFF AND DUP2 MSTORE PUSH1 0x20 ADD SWAP1 DUP2 MSTORE PUSH1 0x20 ADD PUSH0 KECCAK256 SWAP1 POP PUSH0 JUMPDEST DUP2 DUP1 SLOAD SWAP1 POP DUP2 LT ISZERO PUSH2 0xBEB JUMPI DUP4 PUSH1 0x40 MLOAD PUSH1 0x20 ADD PUSH2 0x9FB SWAP2 SWAP1 PUSH2 0x13CF JUMP JUMPDEST PUSH1 0x40 MLOAD PUSH1 0x20 DUP2 DUP4 SUB SUB DUP2 MSTORE SWAP1 PUSH1 0x40 MSTORE DUP1 MLOAD SWAP1 PUSH1 0x20 ADD KECCAK256 DUP3 DUP3 DUP2 SLOAD DUP2 LT PUSH2 0xA24 JUMPI PUSH2 0xA23 PUSH2 0x13E5 JUMP JUMPDEST JUMPDEST SWAP1 PUSH0 MSTORE PUSH1 0x20 PUSH0 KECCAK256 SWAP1 PUSH1 0x2 MUL ADD PUSH1 0x1 ADD PUSH1 0x40 MLOAD PUSH1 0x20 ADD PUSH2 0xA43 SWAP2 SWAP1 PUSH2 0x1501 JUMP JUMPDEST PUSH1 0x40 MLOAD PUSH1 0x20 DUP2 DUP4 SUB SUB DUP2 MSTORE SWAP1 PUSH1 0x40 MSTORE DUP1 MLOAD SWAP1 PUSH1 0x20 ADD KECCAK256 SUB PUSH2 0xBD8 JUMPI DUP2 PUSH1 0x1 DUP4 DUP1 SLOAD SWAP1 POP PUSH2 0xA70 SWAP2 SWAP1 PUSH2 0x19C1 JUMP JUMPDEST DUP2 SLOAD DUP2 LT PUSH2 0xA81 JUMPI PUSH2 0xA80 PUSH2 0x13E5 JUMP JUMPDEST JUMPDEST SWAP1 PUSH0 MSTORE PUSH1 0x20 PUSH0 KECCAK256 SWAP1 PUSH1 0x2 MUL ADD DUP3 DUP3 DUP2 SLOAD DUP2 LT PUSH2 0xAA0 JUMPI PUSH2 0xA9F PUSH2 0x13E5 JUMP JUMPDEST JUMPDEST SWAP1 PUSH0 MSTORE PUSH1 0x20 PUSH0 KECCAK256 SWAP1 PUSH1 0x2 MUL ADD PUSH0 DUP3 ADD PUSH0 SWAP1 SLOAD SWAP1 PUSH2 0x100 EXP SWAP1 DIV PUSH20 0xFFFFFFFFFFFFFFFFFFFFFFFFFFFFFFFFFFFFFFFF AND DUP2 PUSH0 ADD PUSH0 PUSH2 0x100 EXP DUP2 SLOAD DUP2 PUSH20 0xFFFFFFFFFFFFFFFFFFFFFFFFFFFFFFFFFFFFFFFF MUL NOT AND SWAP1 DUP4 PUSH20 0xFFFFFFFFFFFFFFFFFFFFFFFFFFFFFFFFFFFFFFFF AND MUL OR SWAP1 SSTORE POP PUSH1 0x1 DUP3 ADD DUP2 PUSH1 0x1 ADD SWAP1 DUP2 PUSH2 0xB23 SWAP2 SWAP1 PUSH2 0x1A09 JUMP JUMPDEST POP SWAP1 POP POP DUP2 DUP1 SLOAD DUP1 PUSH2 0xB38 JUMPI PUSH2 0xB37 PUSH2 0x1AEE JUMP JUMPDEST JUMPDEST PUSH1 0x1 SWAP1 SUB DUP2 DUP2 SWAP1 PUSH0 MSTORE PUSH1 0x20 PUSH0 KECCAK256 SWAP1 PUSH1 0x2 MUL ADD PUSH0 DUP1 DUP3 ADD PUSH0 PUSH2 0x100 EXP DUP2 SLOAD SWAP1 PUSH20 0xFFFFFFFFFFFFFFFFFFFFFFFFFFFFFFFFFFFFFFFF MUL NOT AND SWAP1 SSTORE PUSH1 0x1 DUP3 ADD PUSH0 PUSH2 0xB7F SWAP2 SWAP1 PUSH2 0xD66 JUMP JUMPDEST POP POP SWAP1 SSTORE CALLER PUSH20 0xFFFFFFFFFFFFFFFFFFFFFFFFFFFFFFFFFFFFFFFF AND PUSH32 0x53D1025FA64C9CC66082E15B8EF38615443E44ACECECBC4589DEE4B1394A947D DUP6 PUSH1 0x40 MLOAD PUSH2 0xBC9 SWAP2 SWAP1 PUSH2 0x196E JUMP JUMPDEST PUSH1 0x40 MLOAD DUP1 SWAP2 SUB SWAP1 LOG2 POP POP PUSH2 0xC27 JUMP JUMPDEST DUP1 DUP1 PUSH2 0xBE3 SWAP1 PUSH2 0x180B JUMP JUMPDEST SWAP2 POP POP PUSH2 0x9DE JUMP JUMPDEST POP PUSH1 0x40 MLOAD PUSH32 0x8C379A000000000000000000000000000000000000000000000000000000000 DUP2 MSTORE PUSH1 0x4 ADD PUSH2 0xC1E SWAP1 PUSH2 0x1B65 JUMP JUMPDEST PUSH1 0x40 MLOAD DUP1 SWAP2 SUB SWAP1 REVERT JUMPDEST POP POP JUMP JUMPDEST PUSH1 0x1 PUSH0 SWAP1 SLOAD SWAP1 PUSH2 0x100 EXP SWAP1 DIV PUSH20 0xFFFFFFFFFFFFFFFFFFFFFFFFFFFFFFFFFFFFFFFF AND DUP2 JUMP JUMPDEST PUSH0 DUP1 PUSH1 0x2 PUSH0 SWAP1 SLOAD SWAP1 PUSH2 0x100 EXP SWAP1 DIV PUSH20 0xFFFFFFFFFFFFFFFFFFFFFFFFFFFFFFFFFFFFFFFF AND PUSH20 0xFFFFFFFFFFFFFFFFFFFFFFFFFFFFFFFFFFFFFFFF AND PUSH4 0x64A62EC4 PUSH1 0x40 MLOAD DUP2 PUSH4 0xFFFFFFFF AND PUSH1 0xE0 SHL DUP2 MSTORE PUSH1 0x4 ADD PUSH0 PUSH1 0x40 MLOAD DUP1 DUP4 SUB DUP2 DUP7 GAS STATICCALL ISZERO DUP1 ISZERO PUSH2 0xCBB JUMPI RETURNDATASIZE PUSH0 DUP1 RETURNDATACOPY RETURNDATASIZE PUSH0 REVERT JUMPDEST POP POP POP POP PUSH1 0x40 MLOAD RETURNDATASIZE PUSH0 DUP3 RETURNDATACOPY RETURNDATASIZE PUSH1 0x1F NOT PUSH1 0x1F DUP3 ADD AND DUP3 ADD DUP1 PUSH1 0x40 MSTORE POP DUP2 ADD SWAP1 PUSH2 0xCE3 SWAP2 SWAP1 PUSH2 0x1C71 JUMP JUMPDEST SWAP1 POP PUSH0 JUMPDEST DUP2 MLOAD DUP2 LT ISZERO PUSH2 0xD5B JUMPI DUP4 PUSH20 0xFFFFFFFFFFFFFFFFFFFFFFFFFFFFFFFFFFFFFFFF AND DUP3 DUP3 DUP2 MLOAD DUP2 LT PUSH2 0xD1A JUMPI PUSH2 0xD19 PUSH2 0x13E5 JUMP JUMPDEST JUMPDEST PUSH1 0x20 MUL PUSH1 0x20 ADD ADD MLOAD PUSH20 0xFFFFFFFFFFFFFFFFFFFFFFFFFFFFFFFFFFFFFFFF AND SUB PUSH2 0xD48 JUMPI PUSH1 0x1 SWAP3 POP POP POP PUSH2 0xD61 JUMP JUMPDEST DUP1 DUP1 PUSH2 0xD53 SWAP1 PUSH2 0x180B JUMP JUMPDEST SWAP2 POP POP PUSH2 0xCE7 JUMP JUMPDEST POP PUSH0 SWAP2 POP POP JUMPDEST SWAP2 SWAP1 POP JUMP JUMPDEST POP DUP1 SLOAD PUSH2 0xD72 SWAP1 PUSH2 0x143F JUMP JUMPDEST PUSH0 DUP3 SSTORE DUP1 PUSH1 0x1F LT PUSH2 0xD83 JUMPI POP PUSH2 0xDA0 JUMP JUMPDEST PUSH1 0x1F ADD PUSH1 0x20 SWAP1 DIV SWAP1 PUSH0 MSTORE PUSH1 0x20 PUSH0 KECCAK256 SWAP1 DUP2 ADD SWAP1 PUSH2 0xD9F SWAP2 SWAP1 PUSH2 0xDA3 JUMP JUMPDEST JUMPDEST POP JUMP JUMPDEST JUMPDEST DUP1 DUP3 GT ISZERO PUSH2 0xDBA JUMPI PUSH0 DUP2 PUSH0 SWAP1 SSTORE POP PUSH1 0x1 ADD PUSH2 0xDA4 JUMP JUMPDEST POP SWAP1 JUMP JUMPDEST PUSH0 PUSH1 0x40 MLOAD SWAP1 POP SWAP1 JUMP JUMPDEST PUSH0 DUP1 REVERT JUMPDEST PUSH0 DUP1 REVERT JUMPDEST PUSH0 DUP1 REVERT JUMPDEST PUSH0 DUP1 REVERT JUMPDEST PUSH0 PUSH1 0x1F NOT PUSH1 0x1F DUP4 ADD AND SWAP1 POP SWAP2 SWAP1 POP JUMP JUMPDEST PUSH32 0x4E487B7100000000000000000000000000000000000000000000000000000000 PUSH0 MSTORE PUSH1 0x41 PUSH1 0x4 MSTORE PUSH1 0x24 PUSH0 REVERT JUMPDEST PUSH2 0xE1D DUP3 PUSH2 0xDD7 JUMP JUMPDEST DUP2 ADD DUP2 DUP2 LT PUSH8 0xFFFFFFFFFFFFFFFF DUP3 GT OR ISZERO PUSH2 0xE3C JUMPI PUSH2 0xE3B PUSH2 0xDE7 JUMP JUMPDEST JUMPDEST DUP1 PUSH1 0x40 MSTORE POP POP POP JUMP JUMPDEST PUSH0 PUSH2 0xE4E PUSH2 0xDBE JUMP JUMPDEST SWAP1 POP PUSH2 0xE5A DUP3 DUP3 PUSH2 0xE14 JUMP JUMPDEST SWAP2 SWAP1 POP JUMP JUMPDEST PUSH0 PUSH8 0xFFFFFFFFFFFFFFFF DUP3 GT ISZERO PUSH2 0xE79 JUMPI PUSH2 0xE78 PUSH2 0xDE7 JUMP JUMPDEST JUMPDEST PUSH2 0xE82 DUP3 PUSH2 0xDD7 JUMP JUMPDEST SWAP1 POP PUSH1 0x20 DUP2 ADD SWAP1 POP SWAP2 SWAP1 POP JUMP JUMPDEST DUP3 DUP2 DUP4 CALLDATACOPY PUSH0 DUP4 DUP4 ADD MSTORE POP POP POP JUMP JUMPDEST PUSH0 PUSH2 0xEAF PUSH2 0xEAA DUP5 PUSH2 0xE5F JUMP JUMPDEST PUSH2 0xE45 JUMP JUMPDEST SWAP1 POP DUP3 DUP2 MSTORE PUSH1 0x20 DUP2 ADD DUP5 DUP5 DUP5 ADD GT ISZERO PUSH2 0xECB JUMPI PUSH2 0xECA PUSH2 0xDD3 JUMP JUMPDEST JUMPDEST PUSH2 0xED6 DUP5 DUP3 DUP6 PUSH2 0xE8F JUMP JUMPDEST POP SWAP4 SWAP3 POP POP POP JUMP JUMPDEST PUSH0 DUP3 PUSH1 0x1F DUP4 ADD SLT PUSH2 0xEF2 JUMPI PUSH2 0xEF1 PUSH2 0xDCF JUMP JUMPDEST JUMPDEST DUP2 CALLDATALOAD PUSH2 0xF02 DUP5 DUP3 PUSH1 0x20 DUP7 ADD PUSH2 0xE9D JUMP JUMPDEST SWAP2 POP POP SWAP3 SWAP2 POP POP JUMP JUMPDEST PUSH0 DUP1 PUSH1 0x40 DUP4 DUP6 SUB SLT ISZERO PUSH2 0xF21 JUMPI PUSH2 0xF20 PUSH2 0xDC7 JUMP JUMPDEST JUMPDEST PUSH0 DUP4 ADD CALLDATALOAD PUSH8 0xFFFFFFFFFFFFFFFF DUP2 GT ISZERO PUSH2 0xF3E JUMPI PUSH2 0xF3D PUSH2 0xDCB JUMP JUMPDEST JUMPDEST PUSH2 0xF4A DUP6 DUP3 DUP7 ADD PUSH2 0xEDE JUMP JUMPDEST SWAP3 POP POP PUSH1 0x20 DUP4 ADD CALLDATALOAD PUSH8 0xFFFFFFFFFFFFFFFF DUP2 GT ISZERO PUSH2 0xF6B JUMPI PUSH2 0xF6A PUSH2 0xDCB JUMP JUMPDEST JUMPDEST PUSH2 0xF77 DUP6 DUP3 DUP7 ADD PUSH2 0xEDE JUMP JUMPDEST SWAP2 POP POP SWAP3 POP SWAP3 SWAP1 POP JUMP JUMPDEST PUSH0 PUSH1 0x20 DUP3 DUP5 SUB SLT ISZERO PUSH2 0xF96 JUMPI PUSH2 0xF95 PUSH2 0xDC7 JUMP JUMPDEST JUMPDEST PUSH0 DUP3 ADD CALLDATALOAD PUSH8 0xFFFFFFFFFFFFFFFF DUP2 GT ISZERO PUSH2 0xFB3 JUMPI PUSH2 0xFB2 PUSH2 0xDCB JUMP JUMPDEST JUMPDEST PUSH2 0xFBF DUP5 DUP3 DUP6 ADD PUSH2 0xEDE JUMP JUMPDEST SWAP2 POP POP SWAP3 SWAP2 POP POP JUMP JUMPDEST PUSH0 PUSH20 0xFFFFFFFFFFFFFFFFFFFFFFFFFFFFFFFFFFFFFFFF DUP3 AND SWAP1 POP SWAP2 SWAP1 POP JUMP JUMPDEST PUSH0 DUP2 SWAP1 POP SWAP2 SWAP1 POP JUMP JUMPDEST PUSH0 PUSH2 0x100A PUSH2 0x1005 PUSH2 0x1000 DUP5 PUSH2 0xFC8 JUMP JUMPDEST PUSH2 0xFE7 JUMP JUMPDEST PUSH2 0xFC8 JUMP JUMPDEST SWAP1 POP SWAP2 SWAP1 POP JUMP JUMPDEST PUSH0 PUSH2 0x101B DUP3 PUSH2 0xFF0 JUMP JUMPDEST SWAP1 POP SWAP2 SWAP1 POP JUMP JUMPDEST PUSH0 PUSH2 0x102C DUP3 PUSH2 0x1011 JUMP JUMPDEST SWAP1 POP SWAP2 SWAP1 POP JUMP JUMPDEST PUSH2 0x103C DUP2 PUSH2 0x1022 JUMP JUMPDEST DUP3 MSTORE POP POP JUMP JUMPDEST PUSH0 PUSH1 0x20 DUP3 ADD SWAP1 POP PUSH2 0x1055 PUSH0 DUP4 ADD DUP5 PUSH2 0x1033 JUMP JUMPDEST SWAP3 SWAP2 POP POP JUMP JUMPDEST PUSH0 DUP2 MLOAD SWAP1 POP SWAP2 SWAP1 POP JUMP JUMPDEST PUSH0 DUP3 DUP3 MSTORE PUSH1 0x20 DUP3 ADD SWAP1 POP SWAP3 SWAP2 POP POP JUMP JUMPDEST PUSH0 DUP2 SWAP1 POP PUSH1 0x20 DUP3 ADD SWAP1 POP SWAP2 SWAP1 POP JUMP JUMPDEST PUSH0 PUSH2 0x108E DUP3 PUSH2 0xFC8 JUMP JUMPDEST SWAP1 POP SWAP2 SWAP1 POP JUMP JUMPDEST PUSH2 0x109E DUP2 PUSH2 0x1084 JUMP JUMPDEST DUP3 MSTORE POP POP JUMP JUMPDEST PUSH0 PUSH2 0x10AF DUP4 DUP4 PUSH2 0x1095 JUMP JUMPDEST PUSH1 0x20 DUP4 ADD SWAP1 POP SWAP3 SWAP2 POP POP JUMP JUMPDEST PUSH0 PUSH1 0x20 DUP3 ADD SWAP1 POP SWAP2 SWAP1 POP JUMP JUMPDEST PUSH0 PUSH2 0x10D1 DUP3 PUSH2 0x105B JUMP JUMPDEST PUSH2 0x10DB DUP2 DUP6 PUSH2 0x1065 JUMP JUMPDEST SWAP4 POP PUSH2 0x10E6 DUP4 PUSH2 0x1075 JUMP JUMPDEST DUP1 PUSH0 JUMPDEST DUP4 DUP2 LT ISZERO PUSH2 0x1116 JUMPI DUP2 MLOAD PUSH2 0x10FD DUP9 DUP3 PUSH2 0x10A4 JUMP JUMPDEST SWAP8 POP PUSH2 0x1108 DUP4 PUSH2 0x10BB JUMP JUMPDEST SWAP3 POP POP PUSH1 0x1 DUP2 ADD SWAP1 POP PUSH2 0x10E9 JUMP JUMPDEST POP DUP6 SWAP4 POP POP POP POP SWAP3 SWAP2 POP POP JUMP JUMPDEST PUSH0 DUP2 MLOAD SWAP1 POP SWAP2 SWAP1 POP JUMP JUMPDEST PUSH0 DUP3 DUP3 MSTORE PUSH1 0x20 DUP3 ADD SWAP1 POP SWAP3 SWAP2 POP POP JUMP JUMPDEST PUSH0 DUP2 SWAP1 POP PUSH1 0x20 DUP3 ADD SWAP1 POP SWAP2 SWAP1 POP JUMP JUMPDEST PUSH0 DUP2 MLOAD SWAP1 POP SWAP2 SWAP1 POP JUMP JUMPDEST PUSH0 DUP3 DUP3 MSTORE PUSH1 0x20 DUP3 ADD SWAP1 POP SWAP3 SWAP2 POP POP JUMP JUMPDEST PUSH0 JUMPDEST DUP4 DUP2 LT ISZERO PUSH2 0x1183 JUMPI DUP1 DUP3 ADD MLOAD DUP2 DUP5 ADD MSTORE PUSH1 0x20 DUP2 ADD SWAP1 POP PUSH2 0x1168 JUMP JUMPDEST PUSH0 DUP5 DUP5 ADD MSTORE POP POP POP POP JUMP JUMPDEST PUSH0 PUSH2 0x1198 DUP3 PUSH2 0x114C JUMP JUMPDEST PUSH2 0x11A2 DUP2 DUP6 PUSH2 0x1156 JUMP JUMPDEST SWAP4 POP PUSH2 0x11B2 DUP2 DUP6 PUSH1 0x20 DUP7 ADD PUSH2 0x1166 JUMP JUMPDEST PUSH2 0x11BB DUP2 PUSH2 0xDD7 JUMP JUMPDEST DUP5 ADD SWAP2 POP POP SWAP3 SWAP2 POP POP JUMP JUMPDEST PUSH0 PUSH2 0x11D1 DUP4 DUP4 PUSH2 0x118E JUMP JUMPDEST SWAP1 POP SWAP3 SWAP2 POP POP JUMP JUMPDEST PUSH0 PUSH1 0x20 DUP3 ADD SWAP1 POP SWAP2 SWAP1 POP JUMP JUMPDEST PUSH0 PUSH2 0x11EF DUP3 PUSH2 0x1123 JUMP JUMPDEST PUSH2 0x11F9 DUP2 DUP6 PUSH2 0x112D JUMP JUMPDEST SWAP4 POP DUP4 PUSH1 0x20 DUP3 MUL DUP6 ADD PUSH2 0x120B DUP6 PUSH2 0x113D JUMP JUMPDEST DUP1 PUSH0 JUMPDEST DUP6 DUP2 LT ISZERO PUSH2 0x1246 JUMPI DUP5 DUP5 SUB DUP10 MSTORE DUP2 MLOAD PUSH2 0x1227 DUP6 DUP3 PUSH2 0x11C6 JUMP JUMPDEST SWAP5 POP PUSH2 0x1232 DUP4 PUSH2 0x11D9 JUMP JUMPDEST SWAP3 POP PUSH1 0x20 DUP11 ADD SWAP10 POP POP PUSH1 0x1 DUP2 ADD SWAP1 POP PUSH2 0x120E JUMP JUMPDEST POP DUP3 SWAP8 POP DUP8 SWAP6 POP POP POP POP POP POP SWAP3 SWAP2 POP POP JUMP JUMPDEST PUSH0 PUSH1 0x40 DUP3 ADD SWAP1 POP DUP2 DUP2 SUB PUSH0 DUP4 ADD MSTORE PUSH2 0x1270 DUP2 DUP6 PUSH2 0x10C7 JUMP JUMPDEST SWAP1 POP DUP2 DUP2 SUB PUSH1 0x20 DUP4 ADD MSTORE PUSH2 0x1284 DUP2 DUP5 PUSH2 0x11E5 JUMP JUMPDEST SWAP1 POP SWAP4 SWAP3 POP POP POP JUMP JUMPDEST PUSH2 0x1296 DUP2 PUSH2 0x1084 JUMP JUMPDEST DUP3 MSTORE POP POP JUMP JUMPDEST PUSH0 PUSH1 0x20 DUP3 ADD SWAP1 POP PUSH2 0x12AF PUSH0 DUP4 ADD DUP5 PUSH2 0x128D JUMP JUMPDEST SWAP3 SWAP2 POP POP JUMP JUMPDEST PUSH0 DUP3 DUP3 MSTORE PUSH1 0x20 DUP3 ADD SWAP1 POP SWAP3 SWAP2 POP POP JUMP JUMPDEST PUSH32 0x496E76616C6964204E6F6465204944206C656E67746800000000000000000000 PUSH0 DUP3 ADD MSTORE POP JUMP JUMPDEST PUSH0 PUSH2 0x12F9 PUSH1 0x16 DUP4 PUSH2 0x12B5 JUMP JUMPDEST SWAP2 POP PUSH2 0x1304 DUP3 PUSH2 0x12C5 JUMP JUMPDEST PUSH1 0x20 DUP3 ADD SWAP1 POP SWAP2 SWAP1 POP JUMP JUMPDEST PUSH0 PUSH1 0x20 DUP3 ADD SWAP1 POP DUP2 DUP2 SUB PUSH0 DUP4 ADD MSTORE PUSH2 0x1326 DUP2 PUSH2 0x12ED JUMP JUMPDEST SWAP1 POP SWAP2 SWAP1 POP JUMP JUMPDEST PUSH32 0x53656E646572206973206E6F742077686974656C697374656400000000000000 PUSH0 DUP3 ADD MSTORE POP JUMP JUMPDEST PUSH0 PUSH2 0x1361 PUSH1 0x19 DUP4 PUSH2 0x12B5 JUMP JUMPDEST SWAP2 POP PUSH2 0x136C DUP3 PUSH2 0x132D JUMP JUMPDEST PUSH1 0x20 DUP3 ADD SWAP1 POP SWAP2 SWAP1 POP JUMP JUMPDEST PUSH0 PUSH1 0x20 DUP3 ADD SWAP1 POP DUP2 DUP2 SUB PUSH0 DUP4 ADD MSTORE PUSH2 0x138E DUP2 PUSH2 0x1355 JUMP JUMPDEST SWAP1 POP SWAP2 SWAP1 POP JUMP JUMPDEST PUSH0 DUP2 SWAP1 POP SWAP3 SWAP2 POP POP JUMP JUMPDEST PUSH0 PUSH2 0x13A9 DUP3 PUSH2 0x114C JUMP JUMPDEST PUSH2 0x13B3 DUP2 DUP6 PUSH2 0x1395 JUMP JUMPDEST SWAP4 POP PUSH2 0x13C3 DUP2 DUP6 PUSH1 0x20 DUP7 ADD PUSH2 0x1166 JUMP JUMPDEST DUP1 DUP5 ADD SWAP2 POP POP SWAP3 SWAP2 POP POP JUMP JUMPDEST PUSH0 PUSH2 0x13DA DUP3 DUP5 PUSH2 0x139F JUMP JUMPDEST SWAP2 POP DUP2 SWAP1 POP SWAP3 SWAP2 POP POP JUMP JUMPDEST PUSH32 0x4E487B7100000000000000000000000000000000000000000000000000000000 PUSH0 MSTORE PUSH1 0x32 PUSH1 0x4 MSTORE PUSH1 0x24 PUSH0 REVERT JUMPDEST PUSH32 0x4E487B7100000000000000000000000000000000000000000000000000000000 PUSH0 MSTORE PUSH1 0x22 PUSH1 0x4 MSTORE PUSH1 0x24 PUSH0 REVERT JUMPDEST PUSH0 PUSH1 0x2 DUP3 DIV SWAP1 POP PUSH1 0x1 DUP3 AND DUP1 PUSH2 0x1456 JUMPI PUSH1 0x7F DUP3 AND SWAP2 POP JUMPDEST PUSH1 0x20 DUP3 LT DUP2 SUB PUSH2 0x1469 JUMPI PUSH2 0x1468 PUSH2 0x1412 JUMP JUMPDEST JUMPDEST POP SWAP2 SWAP1 POP JUMP JUMPDEST PUSH0 DUP2 SWAP1 POP DUP2 PUSH0 MSTORE PUSH1 0x20 PUSH0 KECCAK256 SWAP1 POP SWAP2 SWAP1 POP JUMP JUMPDEST PUSH0 DUP2 SLOAD PUSH2 0x148D DUP2 PUSH2 0x143F JUMP JUMPDEST PUSH2 0x1497 DUP2 DUP7 PUSH2 0x1395 JUMP JUMPDEST SWAP5 POP PUSH1 0x1 DUP3 AND PUSH0 DUP2 EQ PUSH2 0x14B1 JUMPI PUSH1 0x1 DUP2 EQ PUSH2 0x14C6 JUMPI PUSH2 0x14F8 JUMP JUMPDEST PUSH1 0xFF NOT DUP4 AND DUP7 MSTORE DUP2 ISZERO ISZERO DUP3 MUL DUP7 ADD SWAP4 POP PUSH2 0x14F8 JUMP JUMPDEST PUSH2 0x14CF DUP6 PUSH2 0x146F JUMP JUMPDEST PUSH0 JUMPDEST DUP4 DUP2 LT ISZERO PUSH2 0x14F0 JUMPI DUP2 SLOAD DUP2 DUP10 ADD MSTORE PUSH1 0x1 DUP3 ADD SWAP2 POP PUSH1 0x20 DUP2 ADD SWAP1 POP PUSH2 0x14D1 JUMP JUMPDEST DUP4 DUP9 ADD SWAP6 POP POP POP JUMPDEST POP POP POP SWAP3 SWAP2 POP POP JUMP JUMPDEST PUSH0 PUSH2 0x150C DUP3 DUP5 PUSH2 0x1481 JUMP JUMPDEST SWAP2 POP DUP2 SWAP1 POP SWAP3 SWAP2 POP POP JUMP JUMPDEST PUSH0 PUSH1 0x20 PUSH1 0x1F DUP4 ADD DIV SWAP1 POP SWAP2 SWAP1 POP JUMP JUMPDEST PUSH0 DUP3 DUP3 SHL SWAP1 POP SWAP3 SWAP2 POP POP JUMP JUMPDEST PUSH0 PUSH1 0x8 DUP4 MUL PUSH2 0x1561 PUSH32 0xFFFFFFFFFFFFFFFFFFFFFFFFFFFFFFFFFFFFFFFFFFFFFFFFFFFFFFFFFFFFFFFF DUP3 PUSH2 0x1526 JUMP JUMPDEST PUSH2 0x156B DUP7 DUP4 PUSH2 0x1526 JUMP JUMPDEST SWAP6 POP DUP1 NOT DUP5 AND SWAP4 POP DUP1 DUP7 AND DUP5 OR SWAP3 POP POP POP SWAP4 SWAP3 POP POP POP JUMP JUMPDEST PUSH0 DUP2 SWAP1 POP SWAP2 SWAP1 POP JUMP JUMPDEST PUSH0 PUSH2 0x15A6 PUSH2 0x15A1 PUSH2 0x159C DUP5 PUSH2 0x1583 JUMP JUMPDEST PUSH2 0xFE7 JUMP JUMPDEST PUSH2 0x1583 JUMP JUMPDEST SWAP1 POP SWAP2 SWAP1 POP JUMP JUMPDEST PUSH0 DUP2 SWAP1 POP SWAP2 SWAP1 POP JUMP JUMPDEST PUSH2 0x15BF DUP4 PUSH2 0x158C JUMP JUMPDEST PUSH2 0x15D3 PUSH2 0x15CB DUP3 PUSH2 0x15AD JUMP JUMPDEST DUP5 DUP5 SLOAD PUSH2 0x1532 JUMP JUMPDEST DUP3 SSTORE POP POP POP POP JUMP JUMPDEST PUSH0 SWAP1 JUMP JUMPDEST PUSH2 0x15E7 PUSH2 0x15DB JUMP JUMPDEST PUSH2 0x15F2 DUP2 DUP5 DUP5 PUSH2 0x15B6 JUMP JUMPDEST POP POP POP JUMP JUMPDEST JUMPDEST DUP2 DUP2 LT ISZERO PUSH2 0x1615 JUMPI PUSH2 0x160A PUSH0 DUP3 PUSH2 0x15DF JUMP JUMPDEST PUSH1 0x1 DUP2 ADD SWAP1 POP PUSH2 0x15F8 JUMP JUMPDEST POP POP JUMP JUMPDEST PUSH1 0x1F DUP3 GT ISZERO PUSH2 0x165A JUMPI PUSH2 0x162B DUP2 PUSH2 0x146F JUMP JUMPDEST PUSH2 0x1634 DUP5 PUSH2 0x1517 JUMP JUMPDEST DUP2 ADD PUSH1 0x20 DUP6 LT ISZERO PUSH2 0x1643 JUMPI DUP2 SWAP1 POP JUMPDEST PUSH2 0x1657 PUSH2 0x164F DUP6 PUSH2 0x1517 JUMP JUMPDEST DUP4 ADD DUP3 PUSH2 0x15F7 JUMP JUMPDEST POP POP JUMPDEST POP POP POP JUMP JUMPDEST PUSH0 DUP3 DUP3 SHR SWAP1 POP SWAP3 SWAP2 POP POP JUMP JUMPDEST PUSH0 PUSH2 0x167A PUSH0 NOT DUP5 PUSH1 0x8 MUL PUSH2 0x165F JUMP JUMPDEST NOT DUP1 DUP4 AND SWAP2 POP POP SWAP3 SWAP2 POP POP JUMP JUMPDEST PUSH0 PUSH2 0x1692 DUP4 DUP4 PUSH2 0x166B JUMP JUMPDEST SWAP2 POP DUP3 PUSH1 0x2 MUL DUP3 OR SWAP1 POP SWAP3 SWAP2 POP POP JUMP JUMPDEST PUSH2 0x16AB DUP3 PUSH2 0x114C JUMP JUMPDEST PUSH8 0xFFFFFFFFFFFFFFFF DUP2 GT ISZERO PUSH2 0x16C4 JUMPI PUSH2 0x16C3 PUSH2 0xDE7 JUMP JUMPDEST JUMPDEST PUSH2 0x16CE DUP3 SLOAD PUSH2 0x143F JUMP JUMPDEST PUSH2 0x16D9 DUP3 DUP3 DUP6 PUSH2 0x1619 JUMP JUMPDEST PUSH0 PUSH1 0x20 SWAP1 POP PUSH1 0x1F DUP4 GT PUSH1 0x1 DUP2 EQ PUSH2 0x170A JUMPI PUSH0 DUP5 ISZERO PUSH2 0x16F8 JUMPI DUP3 DUP8 ADD MLOAD SWAP1 POP JUMPDEST PUSH2 0x1702 DUP6 DUP3 PUSH2 0x1687 JUMP JUMPDEST DUP7 SSTORE POP PUSH2 0x1769 JUMP JUMPDEST PUSH1 0x1F NOT DUP5 AND PUSH2 0x1718 DUP7 PUSH2 0x146F JUMP JUMPDEST PUSH0 JUMPDEST DUP3 DUP2 LT ISZERO PUSH2 0x173F JUMPI DUP5 DUP10 ADD MLOAD DUP3 SSTORE PUSH1 0x1 DUP3 ADD SWAP2 POP PUSH1 0x20 DUP6 ADD SWAP5 POP PUSH1 0x20 DUP2 ADD SWAP1 POP PUSH2 0x171A JUMP JUMPDEST DUP7 DUP4 LT ISZERO PUSH2 0x175C JUMPI DUP5 DUP10 ADD MLOAD PUSH2 0x1758 PUSH1 0x1F DUP10 AND DUP3 PUSH2 0x166B JUMP JUMPDEST DUP4 SSTORE POP JUMPDEST PUSH1 0x1 PUSH1 0x2 DUP9 MUL ADD DUP9 SSTORE POP POP POP JUMPDEST POP POP POP POP POP POP JUMP JUMPDEST PUSH0 PUSH2 0x177B DUP3 PUSH2 0x114C JUMP JUMPDEST PUSH2 0x1785 DUP2 DUP6 PUSH2 0x12B5 JUMP JUMPDEST SWAP4 POP PUSH2 0x1795 DUP2 DUP6 PUSH1 0x20 DUP7 ADD PUSH2 0x1166 JUMP JUMPDEST PUSH2 0x179E DUP2 PUSH2 0xDD7 JUMP JUMPDEST DUP5 ADD SWAP2 POP POP SWAP3 SWAP2 POP POP JUMP JUMPDEST PUSH0 PUSH1 0x40 DUP3 ADD SWAP1 POP DUP2 DUP2 SUB PUSH0 DUP4 ADD MSTORE PUSH2 0x17C1 DUP2 DUP6 PUSH2 0x1771 JUMP JUMPDEST SWAP1 POP DUP2 DUP2 SUB PUSH1 0x20 DUP4 ADD MSTORE PUSH2 0x17D5 DUP2 DUP5 PUSH2 0x1771 JUMP JUMPDEST SWAP1 POP SWAP4 SWAP3 POP POP POP JUMP JUMPDEST PUSH32 0x4E487B7100000000000000000000000000000000000000000000000000000000 PUSH0 MSTORE PUSH1 0x11 PUSH1 0x4 MSTORE PUSH1 0x24 PUSH0 REVERT JUMPDEST PUSH0 PUSH2 0x1815 DUP3 PUSH2 0x1583 JUMP JUMPDEST SWAP2 POP PUSH32 0xFFFFFFFFFFFFFFFFFFFFFFFFFFFFFFFFFFFFFFFFFFFFFFFFFFFFFFFFFFFFFFFF DUP3 SUB PUSH2 0x1847 JUMPI PUSH2 0x1846 PUSH2 0x17DE JUMP JUMPDEST JUMPDEST PUSH1 0x1 DUP3 ADD SWAP1 POP SWAP2 SWAP1 POP JUMP JUMPDEST PUSH32 0x4F6C64206E6F6465204944206E6F7420666F756E6420666F7220746865206F77 PUSH0 DUP3 ADD MSTORE PUSH32 0x6E65720000000000000000000000000000000000000000000000000000000000 PUSH1 0x20 DUP3 ADD MSTORE POP JUMP JUMPDEST PUSH0 PUSH2 0x18AC PUSH1 0x23 DUP4 PUSH2 0x12B5 JUMP JUMPDEST SWAP2 POP PUSH2 0x18B7 DUP3 PUSH2 0x1852 JUMP JUMPDEST PUSH1 0x40 DUP3 ADD SWAP1 POP SWAP2 SWAP1 POP JUMP JUMPDEST PUSH0 PUSH1 0x20 DUP3 ADD SWAP1 POP DUP2 DUP2 SUB PUSH0 DUP4 ADD MSTORE PUSH2 0x18D9 DUP2 PUSH2 0x18A0 JUMP JUMPDEST SWAP1 POP SWAP2 SWAP1 POP JUMP JUMPDEST PUSH32 0x4F776E657220616C72656164792068617320352072656769737465726564206E PUSH0 DUP3 ADD MSTORE PUSH32 0x6F64657300000000000000000000000000000000000000000000000000000000 PUSH1 0x20 DUP3 ADD MSTORE POP JUMP JUMPDEST PUSH0 PUSH2 0x193A PUSH1 0x24 DUP4 PUSH2 0x12B5 JUMP JUMPDEST SWAP2 POP PUSH2 0x1945 DUP3 PUSH2 0x18E0 JUMP JUMPDEST PUSH1 0x40 DUP3 ADD SWAP1 POP SWAP2 SWAP1 POP JUMP JUMPDEST PUSH0 PUSH1 0x20 DUP3 ADD SWAP1 POP DUP2 DUP2 SUB PUSH0 DUP4 ADD MSTORE PUSH2 0x1967 DUP2 PUSH2 0x192E JUMP JUMPDEST SWAP1 POP SWAP2 SWAP1 POP JUMP JUMPDEST PUSH0 PUSH1 0x20 DUP3 ADD SWAP1 POP DUP2 DUP2 SUB PUSH0 DUP4 ADD MSTORE PUSH2 0x1986 DUP2 DUP5 PUSH2 0x1771 JUMP JUMPDEST SWAP1 POP SWAP3 SWAP2 POP POP JUMP JUMPDEST PUSH0 PUSH2 0x1998 DUP3 PUSH2 0x1583 JUMP JUMPDEST SWAP2 POP PUSH2 0x19A3 DUP4 PUSH2 0x1583 JUMP JUMPDEST SWAP3 POP DUP3 DUP3 ADD SWAP1 POP DUP1 DUP3 GT ISZERO PUSH2 0x19BB JUMPI PUSH2 0x19BA PUSH2 0x17DE JUMP JUMPDEST JUMPDEST SWAP3 SWAP2 POP POP JUMP JUMPDEST PUSH0 PUSH2 0x19CB DUP3 PUSH2 0x1583 JUMP JUMPDEST SWAP2 POP PUSH2 0x19D6 DUP4 PUSH2 0x1583 JUMP JUMPDEST SWAP3 POP DUP3 DUP3 SUB SWAP1 POP DUP2 DUP2 GT ISZERO PUSH2 0x19EE JUMPI PUSH2 0x19ED PUSH2 0x17DE JUMP JUMPDEST JUMPDEST SWAP3 SWAP2 POP POP JUMP JUMPDEST PUSH0 DUP2 SLOAD SWAP1 POP PUSH2 0x1A02 DUP2 PUSH2 0x143F JUMP JUMPDEST SWAP1 POP SWAP2 SWAP1 POP JUMP JUMPDEST DUP2 DUP2 SUB PUSH2 0x1A17 JUMPI POP POP PUSH2 0x1AEC JUMP JUMPDEST PUSH2 0x1A20 DUP3 PUSH2 0x19F4 JUMP JUMPDEST PUSH8 0xFFFFFFFFFFFFFFFF DUP2 GT ISZERO PUSH2 0x1A39 JUMPI PUSH2 0x1A38 PUSH2 0xDE7 JUMP JUMPDEST JUMPDEST PUSH2 0x1A43 DUP3 SLOAD PUSH2 0x143F JUMP JUMPDEST PUSH2 0x1A4E DUP3 DUP3 DUP6 PUSH2 0x1619 JUMP JUMPDEST PUSH0 PUSH1 0x1F DUP4 GT PUSH1 0x1 DUP2 EQ PUSH2 0x1A7B JUMPI PUSH0 DUP5 ISZERO PUSH2 0x1A69 JUMPI DUP3 DUP8 ADD SLOAD SWAP1 POP JUMPDEST PUSH2 0x1A73 DUP6 DUP3 PUSH2 0x1687 JUMP JUMPDEST DUP7 SSTORE POP PUSH2 0x1AE5 JUMP JUMPDEST PUSH1 0x1F NOT DUP5 AND PUSH2 0x1A89 DUP8 PUSH2 0x146F JUMP JUMPDEST SWAP7 POP PUSH2 0x1A94 DUP7 PUSH2 0x146F JUMP JUMPDEST PUSH0 JUMPDEST DUP3 DUP2 LT ISZERO PUSH2 0x1ABB JUMPI DUP5 DUP10 ADD SLOAD DUP3 SSTORE PUSH1 0x1 DUP3 ADD SWAP2 POP PUSH1 0x1 DUP6 ADD SWAP5 POP PUSH1 0x20 DUP2 ADD SWAP1 POP PUSH2 0x1A96 JUMP JUMPDEST DUP7 DUP4 LT ISZERO PUSH2 0x1AD8 JUMPI DUP5 DUP10 ADD SLOAD PUSH2 0x1AD4 PUSH1 0x1F DUP10 AND DUP3 PUSH2 0x166B JUMP JUMPDEST DUP4 SSTORE POP JUMPDEST PUSH1 0x1 PUSH1 0x2 DUP9 MUL ADD DUP9 SSTORE POP POP POP JUMPDEST POP POP POP POP POP POP JUMPDEST JUMP JUMPDEST PUSH32 0x4E487B7100000000000000000000000000000000000000000000000000000000 PUSH0 MSTORE PUSH1 0x31 PUSH1 0x4 MSTORE PUSH1 0x24 PUSH0 REVERT JUMPDEST PUSH32 0x4E6F6465206E6F7420666F756E6420666F7220746865206F776E657200000000 PUSH0 DUP3 ADD MSTORE POP JUMP JUMPDEST PUSH0 PUSH2 0x1B4F PUSH1 0x1C DUP4 PUSH2 0x12B5 JUMP JUMPDEST SWAP2 POP PUSH2 0x1B5A DUP3 PUSH2 0x1B1B JUMP JUMPDEST PUSH1 0x20 DUP3 ADD SWAP1 POP SWAP2 SWAP1 POP JUMP JUMPDEST PUSH0 PUSH1 0x20 DUP3 ADD SWAP1 POP DUP2 DUP2 SUB PUSH0 DUP4 ADD MSTORE PUSH2 0x1B7C DUP2 PUSH2 0x1B43 JUMP JUMPDEST SWAP1 POP SWAP2 SWAP1 POP JUMP JUMPDEST PUSH0 PUSH8 0xFFFFFFFFFFFFFFFF DUP3 GT ISZERO PUSH2 0x1B9D JUMPI PUSH2 0x1B9C PUSH2 0xDE7 JUMP JUMPDEST JUMPDEST PUSH1 0x20 DUP3 MUL SWAP1 POP PUSH1 0x20 DUP2 ADD SWAP1 POP SWAP2 SWAP1 POP JUMP JUMPDEST PUSH0 DUP1 REVERT JUMPDEST PUSH2 0x1BBB DUP2 PUSH2 0x1084 JUMP JUMPDEST DUP2 EQ PUSH2 0x1BC5 JUMPI PUSH0 DUP1 REVERT JUMPDEST POP JUMP JUMPDEST PUSH0 DUP2 MLOAD SWAP1 POP PUSH2 0x1BD6 DUP2 PUSH2 0x1BB2 JUMP JUMPDEST SWAP3 SWAP2 POP POP JUMP JUMPDEST PUSH0 PUSH2 0x1BEE PUSH2 0x1BE9 DUP5 PUSH2 0x1B83 JUMP JUMPDEST PUSH2 0xE45 JUMP JUMPDEST SWAP1 POP DUP1 DUP4 DUP3 MSTORE PUSH1 0x20 DUP3 ADD SWAP1 POP PUSH1 0x20 DUP5 MUL DUP4 ADD DUP6 DUP2 GT ISZERO PUSH2 0x1C11 JUMPI PUSH2 0x1C10 PUSH2 0x1BAE JUMP JUMPDEST JUMPDEST DUP4 JUMPDEST DUP2 DUP2 LT ISZERO PUSH2 0x1C3A JUMPI DUP1 PUSH2 0x1C26 DUP9 DUP3 PUSH2 0x1BC8 JUMP JUMPDEST DUP5 MSTORE PUSH1 0x20 DUP5 ADD SWAP4 POP POP PUSH1 0x20 DUP2 ADD SWAP1 POP PUSH2 0x1C13 JUMP JUMPDEST POP POP POP SWAP4 SWAP3 POP POP POP JUMP JUMPDEST PUSH0 DUP3 PUSH1 0x1F DUP4 ADD SLT PUSH2 0x1C58 JUMPI PUSH2 0x1C57 PUSH2 0xDCF JUMP JUMPDEST JUMPDEST DUP2 MLOAD PUSH2 0x1C68 DUP5 DUP3 PUSH1 0x20 DUP7 ADD PUSH2 0x1BDC JUMP JUMPDEST SWAP2 POP POP SWAP3 SWAP2 POP POP JUMP JUMPDEST PUSH0 PUSH1 0x20 DUP3 DUP5 SUB SLT ISZERO PUSH2 0x1C86 JUMPI PUSH2 0x1C85 PUSH2 0xDC7 JUMP JUMPDEST JUMPDEST PUSH0 DUP3 ADD MLOAD PUSH8 0xFFFFFFFFFFFFFFFF DUP2 GT ISZERO PUSH2 0x1CA3 JUMPI PUSH2 0x1CA2 PUSH2 0xDCB JUMP JUMPDEST JUMPDEST PUSH2 0x1CAF DUP5 DUP3 DUP6 ADD PUSH2 0x1C44 JUMP JUMPDEST SWAP2 POP POP SWAP3 SWAP2 POP POP JUMP INVALID LOG2 PUSH5 0x6970667358 0x22 SLT KECCAK256 PUSH24 0x72F6627F62C0C3CE077F1DDF01C85F6B033142C07394DFFE PUSH26 0x9FCD34648AF64736F6C63430008150033000000000000000000 "
		},
		"gasEstimates": {
			"creation": {
				"codeDepositCost": "1481200",
				"executionCost": "infinite",
				"totalCost": "infinite"
			},
			"external": {
				"deleteNode(string)": "infinite",
				"getAllAddresses()": "infinite",
				"modifyNode(string,string)": "infinite",
				"registerNode(string)": "infinite",
				"voterWhitelisterAddress()": "2596",
				"whitelistContract()": "infinite"
			},
			"internal": {
				"isAddressWhitelisted(address)": "infinite"
			}
		},
		"methodIdentifiers": {
			"deleteNode(string)": "a0c15b77",
			"getAllAddresses()": "9516a104",
			"modifyNode(string,string)": "06ed15a8",
			"registerNode(string)": "27c6f43e",
			"voterWhitelisterAddress()": "cfc64a03",
			"whitelistContract()": "84900b04"
		}
	},
	"abi": [
		{
			"inputs": [
				{
					"internalType": "address",
					"name": "_whitelistContractAddress",
					"type": "address"
				}
			],
			"stateMutability": "nonpayable",
			"type": "constructor"
		},
		{
			"anonymous": false,
			"inputs": [
				{
					"indexed": true,
					"internalType": "address",
					"name": "owner",
					"type": "address"
				},
				{
					"indexed": false,
					"internalType": "string",
					"name": "nodeID",
					"type": "string"
				}
			],
			"name": "NodeDeleted",
			"type": "event"
		},
		{
			"anonymous": false,
			"inputs": [
				{
					"indexed": true,
					"internalType": "address",
					"name": "owner",
					"type": "address"
				},
				{
					"indexed": false,
					"internalType": "string",
					"name": "oldNodeID",
					"type": "string"
				},
				{
					"indexed": false,
					"internalType": "string",
					"name": "newNodeID",
					"type": "string"
				}
			],
			"name": "NodeModified",
			"type": "event"
		},
		{
			"anonymous": false,
			"inputs": [
				{
					"indexed": true,
					"internalType": "address",
					"name": "owner",
					"type": "address"
				},
				{
					"indexed": false,
					"internalType": "string",
					"name": "nodeID",
					"type": "string"
				}
			],
			"name": "NodeRegistered",
			"type": "event"
		},
		{
			"inputs": [
				{
					"internalType": "string",
					"name": "nodeID",
					"type": "string"
				}
			],
			"name": "deleteNode",
			"outputs": [],
			"stateMutability": "nonpayable",
			"type": "function"
		},
		{
			"inputs": [],
			"name": "getAllAddresses",
			"outputs": [
				{
					"internalType": "address[]",
					"name": "allOwners",
					"type": "address[]"
				},
				{
					"internalType": "string[]",
					"name": "nodeIDs",
					"type": "string[]"
				}
			],
			"stateMutability": "view",
			"type": "function"
		},
		{
			"inputs": [
				{
					"internalType": "string",
					"name": "oldNodeID",
					"type": "string"
				},
				{
					"internalType": "string",
					"name": "newNodeID",
					"type": "string"
				}
			],
			"name": "modifyNode",
			"outputs": [],
			"stateMutability": "nonpayable",
			"type": "function"
		},
		{
			"inputs": [
				{
					"internalType": "string",
					"name": "nodeID",
					"type": "string"
				}
			],
			"name": "registerNode",
			"outputs": [],
			"stateMutability": "nonpayable",
			"type": "function"
		},
		{
			"inputs": [],
			"name": "voterWhitelisterAddress",
			"outputs": [
				{
					"internalType": "address",
					"name": "",
					"type": "address"
				}
			],
			"stateMutability": "view",
			"type": "function"
		},
		{
			"inputs": [],
			"name": "whitelistContract",
			"outputs": [
				{
					"internalType": "contract OnChainWhitelistContract",
					"name": "",
					"type": "address"
				}
			],
			"stateMutability": "view",
			"type": "function"
		}
	]
}