{
	"data": {
		"bytecode": {
			"linkReferences": {},
			"object": "60806040523480156200001157600080fd5b5060405162001e2638038062001e268339818101604052810190620000379190620000e9565b80600160006101000a81548173ffffffffffffffffffffffffffffffffffffffff021916908373ffffffffffffffffffffffffffffffffffffffff160217905550506200011b565b600080fd5b600073ffffffffffffffffffffffffffffffffffffffff82169050919050565b6000620000b18262000084565b9050919050565b620000c381620000a4565b8114620000cf57600080fd5b50565b600081519050620000e381620000b8565b92915050565b6000602082840312156200010257620001016200007f565b5b60006200011284828501620000d2565b91505092915050565b611cfb806200012b6000396000f3fe608060405234801561001057600080fd5b50600436106100575760003560e01c806306ed15a81461005c57806327c6f43e146100785780639516a10414610094578063a0c15b77146100b3578063cfc64a03146100cf575b600080fd5b61007660048036038101906100719190610f1a565b6100ed565b005b610092600480360381019061008d9190610f92565b61032c565b005b61009c61058e565b6040516100aa92919061120c565b60405180910390f35b6100cd60048036038101906100c89190610f92565b6108dc565b005b6100d7610c18565b6040516100e49190611252565b60405180910390f35b806020815111801561010157506021815111155b610140576040517f08c379a0000000000000000000000000000000000000000000000000000000008152600401610137906112ca565b60405180910390fd5b61014933610c3e565b610188576040517f08c379a000000000000000000000000000000000000000000000000000000000815260040161017f90611336565b60405180910390fd5b60008060003373ffffffffffffffffffffffffffffffffffffffff1673ffffffffffffffffffffffffffffffffffffffff168152602001908152602001600020905060005b81805490508110156102eb57846040516020016101ea9190611392565b60405160208183030381529060405280519060200120828281548110610213576102126113a9565b5b906000526020600020906002020160010160405160200161023491906114d0565b60405160208183030381529060405280519060200120036102d85783828281548110610263576102626113a9565b5b906000526020600020906002020160010190816102809190611688565b503373ffffffffffffffffffffffffffffffffffffffff167fd0e913f018d977555c1a828667c9481dcd12f91ee8ea5f4bea383eb04e91e7fc86866040516102c9929190611793565b60405180910390a25050610327565b80806102e3906117f9565b9150506101cd565b506040517f08c379a000000000000000000000000000000000000000000000000000000000815260040161031e906118b3565b60405180910390fd5b505050565b806020815111801561034057506021815111155b61037f576040517f08c379a0000000000000000000000000000000000000000000000000000000008152600401610376906112ca565b60405180910390fd5b60056000803373ffffffffffffffffffffffffffffffffffffffff1673ffffffffffffffffffffffffffffffffffffffff1681526020019081526020016000208054905010610403576040517f08c379a00000000000000000000000000000000000000000000000000000000081526004016103fa90611945565b60405180910390fd5b61040c33610c3e565b61044b576040517f08c379a000000000000000000000000000000000000000000000000000000000815260040161044290611336565b60405180910390fd5b6000803373ffffffffffffffffffffffffffffffffffffffff1673ffffffffffffffffffffffffffffffffffffffff16815260200190815260200160002060405180604001604052803373ffffffffffffffffffffffffffffffffffffffff16815260200184815250908060018154018082558091505060019003906000526020600020906002020160009091909190915060008201518160000160006101000a81548173ffffffffffffffffffffffffffffffffffffffff021916908373ffffffffffffffffffffffffffffffffffffffff16021790555060208201518160010190816105399190611688565b5050503373ffffffffffffffffffffffffffffffffffffffff167f27dcab8cdfa14145566e2b9d04fea5a4e8ea320a3f04488a1de4d431ed1080ab836040516105829190611965565b60405180910390a25050565b606080600080600090505b6000803373ffffffffffffffffffffffffffffffffffffffff1673ffffffffffffffffffffffffffffffffffffffff16815260200190815260200160002080549050811015610604576001826105ef9190611987565b915080806105fc906117f9565b915050610599565b508067ffffffffffffffff81111561061f5761061e610def565b5b60405190808252806020026020018201604052801561064d5781602001602082028036833780820191505090505b5092508067ffffffffffffffff81111561066a57610669610def565b5b60405190808252806020026020018201604052801561069d57816020015b60608152602001906001900390816106885790505b50915060005b6000803373ffffffffffffffffffffffffffffffffffffffff1673ffffffffffffffffffffffffffffffffffffffff168152602001908152602001600020805490508110156108d6576000803373ffffffffffffffffffffffffffffffffffffffff1673ffffffffffffffffffffffffffffffffffffffff168152602001908152602001600020818154811061073c5761073b6113a9565b5b906000526020600020906002020160000160009054906101000a900473ffffffffffffffffffffffffffffffffffffffff16848281518110610781576107806113a9565b5b602002602001019073ffffffffffffffffffffffffffffffffffffffff16908173ffffffffffffffffffffffffffffffffffffffff16815250506000803373ffffffffffffffffffffffffffffffffffffffff1673ffffffffffffffffffffffffffffffffffffffff168152602001908152602001600020818154811061080b5761080a6113a9565b5b9060005260206000209060020201600101805461082790611407565b80601f016020809104026020016040519081016040528092919081815260200182805461085390611407565b80156108a05780601f10610875576101008083540402835291602001916108a0565b820191906000526020600020905b81548152906001019060200180831161088357829003601f168201915b50505050508382815181106108b8576108b76113a9565b5b602002602001018190525080806108ce906117f9565b9150506106a3565b50509091565b80602081511180156108f057506021815111155b61092f576040517f08c379a0000000000000000000000000000000000000000000000000000000008152600401610926906112ca565b60405180910390fd5b61093833610c3e565b610977576040517f08c379a000000000000000000000000000000000000000000000000000000000815260040161096e90611336565b60405180910390fd5b60008060003373ffffffffffffffffffffffffffffffffffffffff1673ffffffffffffffffffffffffffffffffffffffff168152602001908152602001600020905060005b8180549050811015610bd857836040516020016109d99190611392565b60405160208183030381529060405280519060200120828281548110610a0257610a016113a9565b5b9060005260206000209060020201600101604051602001610a2391906114d0565b6040516020818303038152906040528051906020012003610bc5578160018380549050610a5091906119bb565b81548110610a6157610a606113a9565b5b9060005260206000209060020201828281548110610a8257610a816113a9565b5b90600052602060002090600202016000820160009054906101000a900473ffffffffffffffffffffffffffffffffffffffff168160000160006101000a81548173ffffffffffffffffffffffffffffffffffffffff021916908373ffffffffffffffffffffffffffffffffffffffff16021790555060018201816001019081610b0b9190611a05565b5090505081805480610b2057610b1f611aed565b5b6001900381819060005260206000209060020201600080820160006101000a81549073ffffffffffffffffffffffffffffffffffffffff0219169055600182016000610b6c9190610d63565b505090553373ffffffffffffffffffffffffffffffffffffffff167f53d1025fa64c9cc66082e15b8ef38615443e44acececbc4589dee4b1394a947d85604051610bb69190611965565b60405180910390a25050610c14565b8080610bd0906117f9565b9150506109bc565b506040517f08c379a0000000000000000000000000000000000000000000000000000000008152600401610c0b90611b68565b60405180910390fd5b5050565b600160009054906101000a900473ffffffffffffffffffffffffffffffffffffffff1681565b600080600160009054906101000a900473ffffffffffffffffffffffffffffffffffffffff16905060008173ffffffffffffffffffffffffffffffffffffffff166364a62ec46040518163ffffffff1660e01b8152600401600060405180830381865afa158015610cb3573d6000803e3d6000fd5b505050506040513d6000823e3d601f19601f82011682018060405250810190610cdc9190611c7c565b905060005b8151811015610d56578473ffffffffffffffffffffffffffffffffffffffff16828281518110610d1457610d136113a9565b5b602002602001015173ffffffffffffffffffffffffffffffffffffffff1603610d435760019350505050610d5e565b8080610d4e906117f9565b915050610ce1565b506000925050505b919050565b508054610d6f90611407565b6000825580601f10610d815750610da0565b601f016020900490600052602060002090810190610d9f9190610da3565b5b50565b5b80821115610dbc576000816000905550600101610da4565b5090565b6000604051905090565b600080fd5b600080fd5b600080fd5b600080fd5b6000601f19601f8301169050919050565b7f4e487b7100000000000000000000000000000000000000000000000000000000600052604160045260246000fd5b610e2782610dde565b810181811067ffffffffffffffff82111715610e4657610e45610def565b5b80604052505050565b6000610e59610dc0565b9050610e658282610e1e565b919050565b600067ffffffffffffffff821115610e8557610e84610def565b5b610e8e82610dde565b9050602081019050919050565b82818337600083830152505050565b6000610ebd610eb884610e6a565b610e4f565b905082815260208101848484011115610ed957610ed8610dd9565b5b610ee4848285610e9b565b509392505050565b600082601f830112610f0157610f00610dd4565b5b8135610f11848260208601610eaa565b91505092915050565b60008060408385031215610f3157610f30610dca565b5b600083013567ffffffffffffffff811115610f4f57610f4e610dcf565b5b610f5b85828601610eec565b925050602083013567ffffffffffffffff811115610f7c57610f7b610dcf565b5b610f8885828601610eec565b9150509250929050565b600060208284031215610fa857610fa7610dca565b5b600082013567ffffffffffffffff811115610fc657610fc5610dcf565b5b610fd284828501610eec565b91505092915050565b600081519050919050565b600082825260208201905092915050565b6000819050602082019050919050565b600073ffffffffffffffffffffffffffffffffffffffff82169050919050565b600061103282611007565b9050919050565b61104281611027565b82525050565b60006110548383611039565b60208301905092915050565b6000602082019050919050565b600061107882610fdb565b6110828185610fe6565b935061108d83610ff7565b8060005b838110156110be5781516110a58882611048565b97506110b083611060565b925050600181019050611091565b5085935050505092915050565b600081519050919050565b600082825260208201905092915050565b6000819050602082019050919050565b600081519050919050565b600082825260208201905092915050565b60005b83811015611131578082015181840152602081019050611116565b60008484015250505050565b6000611148826110f7565b6111528185611102565b9350611162818560208601611113565b61116b81610dde565b840191505092915050565b6000611182838361113d565b905092915050565b6000602082019050919050565b60006111a2826110cb565b6111ac81856110d6565b9350836020820285016111be856110e7565b8060005b858110156111fa57848403895281516111db8582611176565b94506111e68361118a565b925060208a019950506001810190506111c2565b50829750879550505050505092915050565b60006040820190508181036000830152611226818561106d565b9050818103602083015261123a8184611197565b90509392505050565b61124c81611027565b82525050565b60006020820190506112676000830184611243565b92915050565b600082825260208201905092915050565b7f496e76616c6964204e6f6465204944206c656e67746800000000000000000000600082015250565b60006112b460168361126d565b91506112bf8261127e565b602082019050919050565b600060208201905081810360008301526112e3816112a7565b9050919050565b7f53656e646572206973206e6f742077686974656c697374656400000000000000600082015250565b600061132060198361126d565b915061132b826112ea565b602082019050919050565b6000602082019050818103600083015261134f81611313565b9050919050565b600081905092915050565b600061136c826110f7565b6113768185611356565b9350611386818560208601611113565b80840191505092915050565b600061139e8284611361565b915081905092915050565b7f4e487b7100000000000000000000000000000000000000000000000000000000600052603260045260246000fd5b7f4e487b7100000000000000000000000000000000000000000000000000000000600052602260045260246000fd5b6000600282049050600182168061141f57607f821691505b602082108103611432576114316113d8565b5b50919050565b60008190508160005260206000209050919050565b6000815461145a81611407565b6114648186611356565b9450600182166000811461147f5760018114611494576114c7565b60ff19831686528115158202860193506114c7565b61149d85611438565b60005b838110156114bf578154818901526001820191506020810190506114a0565b838801955050505b50505092915050565b60006114dc828461144d565b915081905092915050565b60006020601f8301049050919050565b600082821b905092915050565b6000600883026115347fffffffffffffffffffffffffffffffffffffffffffffffffffffffffffffffff826114f7565b61153e86836114f7565b95508019841693508086168417925050509392505050565b6000819050919050565b6000819050919050565b600061158561158061157b84611556565b611560565b611556565b9050919050565b6000819050919050565b61159f8361156a565b6115b36115ab8261158c565b848454611504565b825550505050565b600090565b6115c86115bb565b6115d3818484611596565b505050565b5b818110156115f7576115ec6000826115c0565b6001810190506115d9565b5050565b601f82111561163c5761160d81611438565b611616846114e7565b81016020851015611625578190505b611639611631856114e7565b8301826115d8565b50505b505050565b600082821c905092915050565b600061165f60001984600802611641565b1980831691505092915050565b6000611678838361164e565b9150826002028217905092915050565b611691826110f7565b67ffffffffffffffff8111156116aa576116a9610def565b5b6116b48254611407565b6116bf8282856115fb565b600060209050601f8311600181146116f257600084156116e0578287015190505b6116ea858261166c565b865550611752565b601f19841661170086611438565b60005b8281101561172857848901518255600182019150602085019450602081019050611703565b868310156117455784890151611741601f89168261164e565b8355505b6001600288020188555050505b505050505050565b6000611765826110f7565b61176f818561126d565b935061177f818560208601611113565b61178881610dde565b840191505092915050565b600060408201905081810360008301526117ad818561175a565b905081810360208301526117c1818461175a565b90509392505050565b7f4e487b7100000000000000000000000000000000000000000000000000000000600052601160045260246000fd5b600061180482611556565b91507fffffffffffffffffffffffffffffffffffffffffffffffffffffffffffffffff8203611836576118356117ca565b5b600182019050919050565b7f4f6c64206e6f6465204944206e6f7420666f756e6420666f7220746865206f7760008201527f6e65720000000000000000000000000000000000000000000000000000000000602082015250565b600061189d60238361126d565b91506118a882611841565b604082019050919050565b600060208201905081810360008301526118cc81611890565b9050919050565b7f4f776e657220616c72656164792068617320352072656769737465726564206e60008201527f6f64657300000000000000000000000000000000000000000000000000000000602082015250565b600061192f60248361126d565b915061193a826118d3565b604082019050919050565b6000602082019050818103600083015261195e81611922565b9050919050565b6000602082019050818103600083015261197f818461175a565b905092915050565b600061199282611556565b915061199d83611556565b92508282019050808211156119b5576119b46117ca565b5b92915050565b60006119c682611556565b91506119d183611556565b92508282039050818111156119e9576119e86117ca565b5b92915050565b6000815490506119fe81611407565b9050919050565b818103611a13575050611aeb565b611a1c826119ef565b67ffffffffffffffff811115611a3557611a34610def565b5b611a3f8254611407565b611a4a8282856115fb565b6000601f831160018114611a795760008415611a67578287015490505b611a71858261166c565b865550611ae4565b601f198416611a8787611438565b9650611a9286611438565b60005b82811015611aba57848901548255600182019150600185019450602081019050611a95565b86831015611ad75784890154611ad3601f89168261164e565b8355505b6001600288020188555050505b5050505050505b565b7f4e487b7100000000000000000000000000000000000000000000000000000000600052603160045260246000fd5b7f4e6f6465206e6f7420666f756e6420666f7220746865206f776e657200000000600082015250565b6000611b52601c8361126d565b9150611b5d82611b1c565b602082019050919050565b60006020820190508181036000830152611b8181611b45565b9050919050565b600067ffffffffffffffff821115611ba357611ba2610def565b5b602082029050602081019050919050565b600080fd5b611bc281611027565b8114611bcd57600080fd5b50565b600081519050611bdf81611bb9565b92915050565b6000611bf8611bf384611b88565b610e4f565b90508083825260208201905060208402830185811115611c1b57611c1a611bb4565b5b835b81811015611c445780611c308882611bd0565b845260208401935050602081019050611c1d565b5050509392505050565b600082601f830112611c6357611c62610dd4565b5b8151611c73848260208601611be5565b91505092915050565b600060208284031215611c9257611c91610dca565b5b600082015167ffffffffffffffff811115611cb057611caf610dcf565b5b611cbc84828501611c4e565b9150509291505056fea26469706673582212204947659a44e6edd18d0d692cd089292703b2951226257129934c10bfc9b3071664736f6c63430008120033",
			"opcodes": "PUSH1 0x80 PUSH1 0x40 MSTORE CALLVALUE DUP1 ISZERO PUSH3 0x11 JUMPI PUSH1 0x0 DUP1 REVERT JUMPDEST POP PUSH1 0x40 MLOAD PUSH3 0x1E26 CODESIZE SUB DUP1 PUSH3 0x1E26 DUP4 CODECOPY DUP2 DUP2 ADD PUSH1 0x40 MSTORE DUP2 ADD SWAP1 PUSH3 0x37 SWAP2 SWAP1 PUSH3 0xE9 JUMP JUMPDEST DUP1 PUSH1 0x1 PUSH1 0x0 PUSH2 0x100 EXP DUP2 SLOAD DUP2 PUSH20 0xFFFFFFFFFFFFFFFFFFFFFFFFFFFFFFFFFFFFFFFF MUL NOT AND SWAP1 DUP4 PUSH20 0xFFFFFFFFFFFFFFFFFFFFFFFFFFFFFFFFFFFFFFFF AND MUL OR SWAP1 SSTORE POP POP PUSH3 0x11B JUMP JUMPDEST PUSH1 0x0 DUP1 REVERT JUMPDEST PUSH1 0x0 PUSH20 0xFFFFFFFFFFFFFFFFFFFFFFFFFFFFFFFFFFFFFFFF DUP3 AND SWAP1 POP SWAP2 SWAP1 POP JUMP JUMPDEST PUSH1 0x0 PUSH3 0xB1 DUP3 PUSH3 0x84 JUMP JUMPDEST SWAP1 POP SWAP2 SWAP1 POP JUMP JUMPDEST PUSH3 0xC3 DUP2 PUSH3 0xA4 JUMP JUMPDEST DUP2 EQ PUSH3 0xCF JUMPI PUSH1 0x0 DUP1 REVERT JUMPDEST POP JUMP JUMPDEST PUSH1 0x0 DUP2 MLOAD SWAP1 POP PUSH3 0xE3 DUP2 PUSH3 0xB8 JUMP JUMPDEST SWAP3 SWAP2 POP POP JUMP JUMPDEST PUSH1 0x0 PUSH1 0x20 DUP3 DUP5 SUB SLT ISZERO PUSH3 0x102 JUMPI PUSH3 0x101 PUSH3 0x7F JUMP JUMPDEST JUMPDEST PUSH1 0x0 PUSH3 0x112 DUP5 DUP3 DUP6 ADD PUSH3 0xD2 JUMP JUMPDEST SWAP2 POP POP SWAP3 SWAP2 POP POP JUMP JUMPDEST PUSH2 0x1CFB DUP1 PUSH3 0x12B PUSH1 0x0 CODECOPY PUSH1 0x0 RETURN INVALID PUSH1 0x80 PUSH1 0x40 MSTORE CALLVALUE DUP1 ISZERO PUSH2 0x10 JUMPI PUSH1 0x0 DUP1 REVERT JUMPDEST POP PUSH1 0x4 CALLDATASIZE LT PUSH2 0x57 JUMPI PUSH1 0x0 CALLDATALOAD PUSH1 0xE0 SHR DUP1 PUSH4 0x6ED15A8 EQ PUSH2 0x5C JUMPI DUP1 PUSH4 0x27C6F43E EQ PUSH2 0x78 JUMPI DUP1 PUSH4 0x9516A104 EQ PUSH2 0x94 JUMPI DUP1 PUSH4 0xA0C15B77 EQ PUSH2 0xB3 JUMPI DUP1 PUSH4 0xCFC64A03 EQ PUSH2 0xCF JUMPI JUMPDEST PUSH1 0x0 DUP1 REVERT JUMPDEST PUSH2 0x76 PUSH1 0x4 DUP1 CALLDATASIZE SUB DUP2 ADD SWAP1 PUSH2 0x71 SWAP2 SWAP1 PUSH2 0xF1A JUMP JUMPDEST PUSH2 0xED JUMP JUMPDEST STOP JUMPDEST PUSH2 0x92 PUSH1 0x4 DUP1 CALLDATASIZE SUB DUP2 ADD SWAP1 PUSH2 0x8D SWAP2 SWAP1 PUSH2 0xF92 JUMP JUMPDEST PUSH2 0x32C JUMP JUMPDEST STOP JUMPDEST PUSH2 0x9C PUSH2 0x58E JUMP JUMPDEST PUSH1 0x40 MLOAD PUSH2 0xAA SWAP3 SWAP2 SWAP1 PUSH2 0x120C JUMP JUMPDEST PUSH1 0x40 MLOAD DUP1 SWAP2 SUB SWAP1 RETURN JUMPDEST PUSH2 0xCD PUSH1 0x4 DUP1 CALLDATASIZE SUB DUP2 ADD SWAP1 PUSH2 0xC8 SWAP2 SWAP1 PUSH2 0xF92 JUMP JUMPDEST PUSH2 0x8DC JUMP JUMPDEST STOP JUMPDEST PUSH2 0xD7 PUSH2 0xC18 JUMP JUMPDEST PUSH1 0x40 MLOAD PUSH2 0xE4 SWAP2 SWAP1 PUSH2 0x1252 JUMP JUMPDEST PUSH1 0x40 MLOAD DUP1 SWAP2 SUB SWAP1 RETURN JUMPDEST DUP1 PUSH1 0x20 DUP2 MLOAD GT DUP1 ISZERO PUSH2 0x101 JUMPI POP PUSH1 0x21 DUP2 MLOAD GT ISZERO JUMPDEST PUSH2 0x140 JUMPI PUSH1 0x40 MLOAD PUSH32 0x8C379A000000000000000000000000000000000000000000000000000000000 DUP2 MSTORE PUSH1 0x4 ADD PUSH2 0x137 SWAP1 PUSH2 0x12CA JUMP JUMPDEST PUSH1 0x40 MLOAD DUP1 SWAP2 SUB SWAP1 REVERT JUMPDEST PUSH2 0x149 CALLER PUSH2 0xC3E JUMP JUMPDEST PUSH2 0x188 JUMPI PUSH1 0x40 MLOAD PUSH32 0x8C379A000000000000000000000000000000000000000000000000000000000 DUP2 MSTORE PUSH1 0x4 ADD PUSH2 0x17F SWAP1 PUSH2 0x1336 JUMP JUMPDEST PUSH1 0x40 MLOAD DUP1 SWAP2 SUB SWAP1 REVERT JUMPDEST PUSH1 0x0 DUP1 PUSH1 0x0 CALLER PUSH20 0xFFFFFFFFFFFFFFFFFFFFFFFFFFFFFFFFFFFFFFFF AND PUSH20 0xFFFFFFFFFFFFFFFFFFFFFFFFFFFFFFFFFFFFFFFF AND DUP2 MSTORE PUSH1 0x20 ADD SWAP1 DUP2 MSTORE PUSH1 0x20 ADD PUSH1 0x0 KECCAK256 SWAP1 POP PUSH1 0x0 JUMPDEST DUP2 DUP1 SLOAD SWAP1 POP DUP2 LT ISZERO PUSH2 0x2EB JUMPI DUP5 PUSH1 0x40 MLOAD PUSH1 0x20 ADD PUSH2 0x1EA SWAP2 SWAP1 PUSH2 0x1392 JUMP JUMPDEST PUSH1 0x40 MLOAD PUSH1 0x20 DUP2 DUP4 SUB SUB DUP2 MSTORE SWAP1 PUSH1 0x40 MSTORE DUP1 MLOAD SWAP1 PUSH1 0x20 ADD KECCAK256 DUP3 DUP3 DUP2 SLOAD DUP2 LT PUSH2 0x213 JUMPI PUSH2 0x212 PUSH2 0x13A9 JUMP JUMPDEST JUMPDEST SWAP1 PUSH1 0x0 MSTORE PUSH1 0x20 PUSH1 0x0 KECCAK256 SWAP1 PUSH1 0x2 MUL ADD PUSH1 0x1 ADD PUSH1 0x40 MLOAD PUSH1 0x20 ADD PUSH2 0x234 SWAP2 SWAP1 PUSH2 0x14D0 JUMP JUMPDEST PUSH1 0x40 MLOAD PUSH1 0x20 DUP2 DUP4 SUB SUB DUP2 MSTORE SWAP1 PUSH1 0x40 MSTORE DUP1 MLOAD SWAP1 PUSH1 0x20 ADD KECCAK256 SUB PUSH2 0x2D8 JUMPI DUP4 DUP3 DUP3 DUP2 SLOAD DUP2 LT PUSH2 0x263 JUMPI PUSH2 0x262 PUSH2 0x13A9 JUMP JUMPDEST JUMPDEST SWAP1 PUSH1 0x0 MSTORE PUSH1 0x20 PUSH1 0x0 KECCAK256 SWAP1 PUSH1 0x2 MUL ADD PUSH1 0x1 ADD SWAP1 DUP2 PUSH2 0x280 SWAP2 SWAP1 PUSH2 0x1688 JUMP JUMPDEST POP CALLER PUSH20 0xFFFFFFFFFFFFFFFFFFFFFFFFFFFFFFFFFFFFFFFF AND PUSH32 0xD0E913F018D977555C1A828667C9481DCD12F91EE8EA5F4BEA383EB04E91E7FC DUP7 DUP7 PUSH1 0x40 MLOAD PUSH2 0x2C9 SWAP3 SWAP2 SWAP1 PUSH2 0x1793 JUMP JUMPDEST PUSH1 0x40 MLOAD DUP1 SWAP2 SUB SWAP1 LOG2 POP POP PUSH2 0x327 JUMP JUMPDEST DUP1 DUP1 PUSH2 0x2E3 SWAP1 PUSH2 0x17F9 JUMP JUMPDEST SWAP2 POP POP PUSH2 0x1CD JUMP JUMPDEST POP PUSH1 0x40 MLOAD PUSH32 0x8C379A000000000000000000000000000000000000000000000000000000000 DUP2 MSTORE PUSH1 0x4 ADD PUSH2 0x31E SWAP1 PUSH2 0x18B3 JUMP JUMPDEST PUSH1 0x40 MLOAD DUP1 SWAP2 SUB SWAP1 REVERT JUMPDEST POP POP POP JUMP JUMPDEST DUP1 PUSH1 0x20 DUP2 MLOAD GT DUP1 ISZERO PUSH2 0x340 JUMPI POP PUSH1 0x21 DUP2 MLOAD GT ISZERO JUMPDEST PUSH2 0x37F JUMPI PUSH1 0x40 MLOAD PUSH32 0x8C379A000000000000000000000000000000000000000000000000000000000 DUP2 MSTORE PUSH1 0x4 ADD PUSH2 0x376 SWAP1 PUSH2 0x12CA JUMP JUMPDEST PUSH1 0x40 MLOAD DUP1 SWAP2 SUB SWAP1 REVERT JUMPDEST PUSH1 0x5 PUSH1 0x0 DUP1 CALLER PUSH20 0xFFFFFFFFFFFFFFFFFFFFFFFFFFFFFFFFFFFFFFFF AND PUSH20 0xFFFFFFFFFFFFFFFFFFFFFFFFFFFFFFFFFFFFFFFF AND DUP2 MSTORE PUSH1 0x20 ADD SWAP1 DUP2 MSTORE PUSH1 0x20 ADD PUSH1 0x0 KECCAK256 DUP1 SLOAD SWAP1 POP LT PUSH2 0x403 JUMPI PUSH1 0x40 MLOAD PUSH32 0x8C379A000000000000000000000000000000000000000000000000000000000 DUP2 MSTORE PUSH1 0x4 ADD PUSH2 0x3FA SWAP1 PUSH2 0x1945 JUMP JUMPDEST PUSH1 0x40 MLOAD DUP1 SWAP2 SUB SWAP1 REVERT JUMPDEST PUSH2 0x40C CALLER PUSH2 0xC3E JUMP JUMPDEST PUSH2 0x44B JUMPI PUSH1 0x40 MLOAD PUSH32 0x8C379A000000000000000000000000000000000000000000000000000000000 DUP2 MSTORE PUSH1 0x4 ADD PUSH2 0x442 SWAP1 PUSH2 0x1336 JUMP JUMPDEST PUSH1 0x40 MLOAD DUP1 SWAP2 SUB SWAP1 REVERT JUMPDEST PUSH1 0x0 DUP1 CALLER PUSH20 0xFFFFFFFFFFFFFFFFFFFFFFFFFFFFFFFFFFFFFFFF AND PUSH20 0xFFFFFFFFFFFFFFFFFFFFFFFFFFFFFFFFFFFFFFFF AND DUP2 MSTORE PUSH1 0x20 ADD SWAP1 DUP2 MSTORE PUSH1 0x20 ADD PUSH1 0x0 KECCAK256 PUSH1 0x40 MLOAD DUP1 PUSH1 0x40 ADD PUSH1 0x40 MSTORE DUP1 CALLER PUSH20 0xFFFFFFFFFFFFFFFFFFFFFFFFFFFFFFFFFFFFFFFF AND DUP2 MSTORE PUSH1 0x20 ADD DUP5 DUP2 MSTORE POP SWAP1 DUP1 PUSH1 0x1 DUP2 SLOAD ADD DUP1 DUP3 SSTORE DUP1 SWAP2 POP POP PUSH1 0x1 SWAP1 SUB SWAP1 PUSH1 0x0 MSTORE PUSH1 0x20 PUSH1 0x0 KECCAK256 SWAP1 PUSH1 0x2 MUL ADD PUSH1 0x0 SWAP1 SWAP2 SWAP1 SWAP2 SWAP1 SWAP2 POP PUSH1 0x0 DUP3 ADD MLOAD DUP2 PUSH1 0x0 ADD PUSH1 0x0 PUSH2 0x100 EXP DUP2 SLOAD DUP2 PUSH20 0xFFFFFFFFFFFFFFFFFFFFFFFFFFFFFFFFFFFFFFFF MUL NOT AND SWAP1 DUP4 PUSH20 0xFFFFFFFFFFFFFFFFFFFFFFFFFFFFFFFFFFFFFFFF AND MUL OR SWAP1 SSTORE POP PUSH1 0x20 DUP3 ADD MLOAD DUP2 PUSH1 0x1 ADD SWAP1 DUP2 PUSH2 0x539 SWAP2 SWAP1 PUSH2 0x1688 JUMP JUMPDEST POP POP POP CALLER PUSH20 0xFFFFFFFFFFFFFFFFFFFFFFFFFFFFFFFFFFFFFFFF AND PUSH32 0x27DCAB8CDFA14145566E2B9D04FEA5A4E8EA320A3F04488A1DE4D431ED1080AB DUP4 PUSH1 0x40 MLOAD PUSH2 0x582 SWAP2 SWAP1 PUSH2 0x1965 JUMP JUMPDEST PUSH1 0x40 MLOAD DUP1 SWAP2 SUB SWAP1 LOG2 POP POP JUMP JUMPDEST PUSH1 0x60 DUP1 PUSH1 0x0 DUP1 PUSH1 0x0 SWAP1 POP JUMPDEST PUSH1 0x0 DUP1 CALLER PUSH20 0xFFFFFFFFFFFFFFFFFFFFFFFFFFFFFFFFFFFFFFFF AND PUSH20 0xFFFFFFFFFFFFFFFFFFFFFFFFFFFFFFFFFFFFFFFF AND DUP2 MSTORE PUSH1 0x20 ADD SWAP1 DUP2 MSTORE PUSH1 0x20 ADD PUSH1 0x0 KECCAK256 DUP1 SLOAD SWAP1 POP DUP2 LT ISZERO PUSH2 0x604 JUMPI PUSH1 0x1 DUP3 PUSH2 0x5EF SWAP2 SWAP1 PUSH2 0x1987 JUMP JUMPDEST SWAP2 POP DUP1 DUP1 PUSH2 0x5FC SWAP1 PUSH2 0x17F9 JUMP JUMPDEST SWAP2 POP POP PUSH2 0x599 JUMP JUMPDEST POP DUP1 PUSH8 0xFFFFFFFFFFFFFFFF DUP2 GT ISZERO PUSH2 0x61F JUMPI PUSH2 0x61E PUSH2 0xDEF JUMP JUMPDEST JUMPDEST PUSH1 0x40 MLOAD SWAP1 DUP1 DUP3 MSTORE DUP1 PUSH1 0x20 MUL PUSH1 0x20 ADD DUP3 ADD PUSH1 0x40 MSTORE DUP1 ISZERO PUSH2 0x64D JUMPI DUP2 PUSH1 0x20 ADD PUSH1 0x20 DUP3 MUL DUP1 CALLDATASIZE DUP4 CALLDATACOPY DUP1 DUP3 ADD SWAP2 POP POP SWAP1 POP JUMPDEST POP SWAP3 POP DUP1 PUSH8 0xFFFFFFFFFFFFFFFF DUP2 GT ISZERO PUSH2 0x66A JUMPI PUSH2 0x669 PUSH2 0xDEF JUMP JUMPDEST JUMPDEST PUSH1 0x40 MLOAD SWAP1 DUP1 DUP3 MSTORE DUP1 PUSH1 0x20 MUL PUSH1 0x20 ADD DUP3 ADD PUSH1 0x40 MSTORE DUP1 ISZERO PUSH2 0x69D JUMPI DUP2 PUSH1 0x20 ADD JUMPDEST PUSH1 0x60 DUP2 MSTORE PUSH1 0x20 ADD SWAP1 PUSH1 0x1 SWAP1 SUB SWAP1 DUP2 PUSH2 0x688 JUMPI SWAP1 POP JUMPDEST POP SWAP2 POP PUSH1 0x0 JUMPDEST PUSH1 0x0 DUP1 CALLER PUSH20 0xFFFFFFFFFFFFFFFFFFFFFFFFFFFFFFFFFFFFFFFF AND PUSH20 0xFFFFFFFFFFFFFFFFFFFFFFFFFFFFFFFFFFFFFFFF AND DUP2 MSTORE PUSH1 0x20 ADD SWAP1 DUP2 MSTORE PUSH1 0x20 ADD PUSH1 0x0 KECCAK256 DUP1 SLOAD SWAP1 POP DUP2 LT ISZERO PUSH2 0x8D6 JUMPI PUSH1 0x0 DUP1 CALLER PUSH20 0xFFFFFFFFFFFFFFFFFFFFFFFFFFFFFFFFFFFFFFFF AND PUSH20 0xFFFFFFFFFFFFFFFFFFFFFFFFFFFFFFFFFFFFFFFF AND DUP2 MSTORE PUSH1 0x20 ADD SWAP1 DUP2 MSTORE PUSH1 0x20 ADD PUSH1 0x0 KECCAK256 DUP2 DUP2 SLOAD DUP2 LT PUSH2 0x73C JUMPI PUSH2 0x73B PUSH2 0x13A9 JUMP JUMPDEST JUMPDEST SWAP1 PUSH1 0x0 MSTORE PUSH1 0x20 PUSH1 0x0 KECCAK256 SWAP1 PUSH1 0x2 MUL ADD PUSH1 0x0 ADD PUSH1 0x0 SWAP1 SLOAD SWAP1 PUSH2 0x100 EXP SWAP1 DIV PUSH20 0xFFFFFFFFFFFFFFFFFFFFFFFFFFFFFFFFFFFFFFFF AND DUP5 DUP3 DUP2 MLOAD DUP2 LT PUSH2 0x781 JUMPI PUSH2 0x780 PUSH2 0x13A9 JUMP JUMPDEST JUMPDEST PUSH1 0x20 MUL PUSH1 0x20 ADD ADD SWAP1 PUSH20 0xFFFFFFFFFFFFFFFFFFFFFFFFFFFFFFFFFFFFFFFF AND SWAP1 DUP2 PUSH20 0xFFFFFFFFFFFFFFFFFFFFFFFFFFFFFFFFFFFFFFFF AND DUP2 MSTORE POP POP PUSH1 0x0 DUP1 CALLER PUSH20 0xFFFFFFFFFFFFFFFFFFFFFFFFFFFFFFFFFFFFFFFF AND PUSH20 0xFFFFFFFFFFFFFFFFFFFFFFFFFFFFFFFFFFFFFFFF AND DUP2 MSTORE PUSH1 0x20 ADD SWAP1 DUP2 MSTORE PUSH1 0x20 ADD PUSH1 0x0 KECCAK256 DUP2 DUP2 SLOAD DUP2 LT PUSH2 0x80B JUMPI PUSH2 0x80A PUSH2 0x13A9 JUMP JUMPDEST JUMPDEST SWAP1 PUSH1 0x0 MSTORE PUSH1 0x20 PUSH1 0x0 KECCAK256 SWAP1 PUSH1 0x2 MUL ADD PUSH1 0x1 ADD DUP1 SLOAD PUSH2 0x827 SWAP1 PUSH2 0x1407 JUMP JUMPDEST DUP1 PUSH1 0x1F ADD PUSH1 0x20 DUP1 SWAP2 DIV MUL PUSH1 0x20 ADD PUSH1 0x40 MLOAD SWAP1 DUP2 ADD PUSH1 0x40 MSTORE DUP1 SWAP3 SWAP2 SWAP1 DUP2 DUP2 MSTORE PUSH1 0x20 ADD DUP3 DUP1 SLOAD PUSH2 0x853 SWAP1 PUSH2 0x1407 JUMP JUMPDEST DUP1 ISZERO PUSH2 0x8A0 JUMPI DUP1 PUSH1 0x1F LT PUSH2 0x875 JUMPI PUSH2 0x100 DUP1 DUP4 SLOAD DIV MUL DUP4 MSTORE SWAP2 PUSH1 0x20 ADD SWAP2 PUSH2 0x8A0 JUMP JUMPDEST DUP3 ADD SWAP2 SWAP1 PUSH1 0x0 MSTORE PUSH1 0x20 PUSH1 0x0 KECCAK256 SWAP1 JUMPDEST DUP2 SLOAD DUP2 MSTORE SWAP1 PUSH1 0x1 ADD SWAP1 PUSH1 0x20 ADD DUP1 DUP4 GT PUSH2 0x883 JUMPI DUP3 SWAP1 SUB PUSH1 0x1F AND DUP3 ADD SWAP2 JUMPDEST POP POP POP POP POP DUP4 DUP3 DUP2 MLOAD DUP2 LT PUSH2 0x8B8 JUMPI PUSH2 0x8B7 PUSH2 0x13A9 JUMP JUMPDEST JUMPDEST PUSH1 0x20 MUL PUSH1 0x20 ADD ADD DUP2 SWAP1 MSTORE POP DUP1 DUP1 PUSH2 0x8CE SWAP1 PUSH2 0x17F9 JUMP JUMPDEST SWAP2 POP POP PUSH2 0x6A3 JUMP JUMPDEST POP POP SWAP1 SWAP2 JUMP JUMPDEST DUP1 PUSH1 0x20 DUP2 MLOAD GT DUP1 ISZERO PUSH2 0x8F0 JUMPI POP PUSH1 0x21 DUP2 MLOAD GT ISZERO JUMPDEST PUSH2 0x92F JUMPI PUSH1 0x40 MLOAD PUSH32 0x8C379A000000000000000000000000000000000000000000000000000000000 DUP2 MSTORE PUSH1 0x4 ADD PUSH2 0x926 SWAP1 PUSH2 0x12CA JUMP JUMPDEST PUSH1 0x40 MLOAD DUP1 SWAP2 SUB SWAP1 REVERT JUMPDEST PUSH2 0x938 CALLER PUSH2 0xC3E JUMP JUMPDEST PUSH2 0x977 JUMPI PUSH1 0x40 MLOAD PUSH32 0x8C379A000000000000000000000000000000000000000000000000000000000 DUP2 MSTORE PUSH1 0x4 ADD PUSH2 0x96E SWAP1 PUSH2 0x1336 JUMP JUMPDEST PUSH1 0x40 MLOAD DUP1 SWAP2 SUB SWAP1 REVERT JUMPDEST PUSH1 0x0 DUP1 PUSH1 0x0 CALLER PUSH20 0xFFFFFFFFFFFFFFFFFFFFFFFFFFFFFFFFFFFFFFFF AND PUSH20 0xFFFFFFFFFFFFFFFFFFFFFFFFFFFFFFFFFFFFFFFF AND DUP2 MSTORE PUSH1 0x20 ADD SWAP1 DUP2 MSTORE PUSH1 0x20 ADD PUSH1 0x0 KECCAK256 SWAP1 POP PUSH1 0x0 JUMPDEST DUP2 DUP1 SLOAD SWAP1 POP DUP2 LT ISZERO PUSH2 0xBD8 JUMPI DUP4 PUSH1 0x40 MLOAD PUSH1 0x20 ADD PUSH2 0x9D9 SWAP2 SWAP1 PUSH2 0x1392 JUMP JUMPDEST PUSH1 0x40 MLOAD PUSH1 0x20 DUP2 DUP4 SUB SUB DUP2 MSTORE SWAP1 PUSH1 0x40 MSTORE DUP1 MLOAD SWAP1 PUSH1 0x20 ADD KECCAK256 DUP3 DUP3 DUP2 SLOAD DUP2 LT PUSH2 0xA02 JUMPI PUSH2 0xA01 PUSH2 0x13A9 JUMP JUMPDEST JUMPDEST SWAP1 PUSH1 0x0 MSTORE PUSH1 0x20 PUSH1 0x0 KECCAK256 SWAP1 PUSH1 0x2 MUL ADD PUSH1 0x1 ADD PUSH1 0x40 MLOAD PUSH1 0x20 ADD PUSH2 0xA23 SWAP2 SWAP1 PUSH2 0x14D0 JUMP JUMPDEST PUSH1 0x40 MLOAD PUSH1 0x20 DUP2 DUP4 SUB SUB DUP2 MSTORE SWAP1 PUSH1 0x40 MSTORE DUP1 MLOAD SWAP1 PUSH1 0x20 ADD KECCAK256 SUB PUSH2 0xBC5 JUMPI DUP2 PUSH1 0x1 DUP4 DUP1 SLOAD SWAP1 POP PUSH2 0xA50 SWAP2 SWAP1 PUSH2 0x19BB JUMP JUMPDEST DUP2 SLOAD DUP2 LT PUSH2 0xA61 JUMPI PUSH2 0xA60 PUSH2 0x13A9 JUMP JUMPDEST JUMPDEST SWAP1 PUSH1 0x0 MSTORE PUSH1 0x20 PUSH1 0x0 KECCAK256 SWAP1 PUSH1 0x2 MUL ADD DUP3 DUP3 DUP2 SLOAD DUP2 LT PUSH2 0xA82 JUMPI PUSH2 0xA81 PUSH2 0x13A9 JUMP JUMPDEST JUMPDEST SWAP1 PUSH1 0x0 MSTORE PUSH1 0x20 PUSH1 0x0 KECCAK256 SWAP1 PUSH1 0x2 MUL ADD PUSH1 0x0 DUP3 ADD PUSH1 0x0 SWAP1 SLOAD SWAP1 PUSH2 0x100 EXP SWAP1 DIV PUSH20 0xFFFFFFFFFFFFFFFFFFFFFFFFFFFFFFFFFFFFFFFF AND DUP2 PUSH1 0x0 ADD PUSH1 0x0 PUSH2 0x100 EXP DUP2 SLOAD DUP2 PUSH20 0xFFFFFFFFFFFFFFFFFFFFFFFFFFFFFFFFFFFFFFFF MUL NOT AND SWAP1 DUP4 PUSH20 0xFFFFFFFFFFFFFFFFFFFFFFFFFFFFFFFFFFFFFFFF AND MUL OR SWAP1 SSTORE POP PUSH1 0x1 DUP3 ADD DUP2 PUSH1 0x1 ADD SWAP1 DUP2 PUSH2 0xB0B SWAP2 SWAP1 PUSH2 0x1A05 JUMP JUMPDEST POP SWAP1 POP POP DUP2 DUP1 SLOAD DUP1 PUSH2 0xB20 JUMPI PUSH2 0xB1F PUSH2 0x1AED JUMP JUMPDEST JUMPDEST PUSH1 0x1 SWAP1 SUB DUP2 DUP2 SWAP1 PUSH1 0x0 MSTORE PUSH1 0x20 PUSH1 0x0 KECCAK256 SWAP1 PUSH1 0x2 MUL ADD PUSH1 0x0 DUP1 DUP3 ADD PUSH1 0x0 PUSH2 0x100 EXP DUP2 SLOAD SWAP1 PUSH20 0xFFFFFFFFFFFFFFFFFFFFFFFFFFFFFFFFFFFFFFFF MUL NOT AND SWAP1 SSTORE PUSH1 0x1 DUP3 ADD PUSH1 0x0 PUSH2 0xB6C SWAP2 SWAP1 PUSH2 0xD63 JUMP JUMPDEST POP POP SWAP1 SSTORE CALLER PUSH20 0xFFFFFFFFFFFFFFFFFFFFFFFFFFFFFFFFFFFFFFFF AND PUSH32 0x53D1025FA64C9CC66082E15B8EF38615443E44ACECECBC4589DEE4B1394A947D DUP6 PUSH1 0x40 MLOAD PUSH2 0xBB6 SWAP2 SWAP1 PUSH2 0x1965 JUMP JUMPDEST PUSH1 0x40 MLOAD DUP1 SWAP2 SUB SWAP1 LOG2 POP POP PUSH2 0xC14 JUMP JUMPDEST DUP1 DUP1 PUSH2 0xBD0 SWAP1 PUSH2 0x17F9 JUMP JUMPDEST SWAP2 POP POP PUSH2 0x9BC JUMP JUMPDEST POP PUSH1 0x40 MLOAD PUSH32 0x8C379A000000000000000000000000000000000000000000000000000000000 DUP2 MSTORE PUSH1 0x4 ADD PUSH2 0xC0B SWAP1 PUSH2 0x1B68 JUMP JUMPDEST PUSH1 0x40 MLOAD DUP1 SWAP2 SUB SWAP1 REVERT JUMPDEST POP POP JUMP JUMPDEST PUSH1 0x1 PUSH1 0x0 SWAP1 SLOAD SWAP1 PUSH2 0x100 EXP SWAP1 DIV PUSH20 0xFFFFFFFFFFFFFFFFFFFFFFFFFFFFFFFFFFFFFFFF AND DUP2 JUMP JUMPDEST PUSH1 0x0 DUP1 PUSH1 0x1 PUSH1 0x0 SWAP1 SLOAD SWAP1 PUSH2 0x100 EXP SWAP1 DIV PUSH20 0xFFFFFFFFFFFFFFFFFFFFFFFFFFFFFFFFFFFFFFFF AND SWAP1 POP PUSH1 0x0 DUP2 PUSH20 0xFFFFFFFFFFFFFFFFFFFFFFFFFFFFFFFFFFFFFFFF AND PUSH4 0x64A62EC4 PUSH1 0x40 MLOAD DUP2 PUSH4 0xFFFFFFFF AND PUSH1 0xE0 SHL DUP2 MSTORE PUSH1 0x4 ADD PUSH1 0x0 PUSH1 0x40 MLOAD DUP1 DUP4 SUB DUP2 DUP7 GAS STATICCALL ISZERO DUP1 ISZERO PUSH2 0xCB3 JUMPI RETURNDATASIZE PUSH1 0x0 DUP1 RETURNDATACOPY RETURNDATASIZE PUSH1 0x0 REVERT JUMPDEST POP POP POP POP PUSH1 0x40 MLOAD RETURNDATASIZE PUSH1 0x0 DUP3 RETURNDATACOPY RETURNDATASIZE PUSH1 0x1F NOT PUSH1 0x1F DUP3 ADD AND DUP3 ADD DUP1 PUSH1 0x40 MSTORE POP DUP2 ADD SWAP1 PUSH2 0xCDC SWAP2 SWAP1 PUSH2 0x1C7C JUMP JUMPDEST SWAP1 POP PUSH1 0x0 JUMPDEST DUP2 MLOAD DUP2 LT ISZERO PUSH2 0xD56 JUMPI DUP5 PUSH20 0xFFFFFFFFFFFFFFFFFFFFFFFFFFFFFFFFFFFFFFFF AND DUP3 DUP3 DUP2 MLOAD DUP2 LT PUSH2 0xD14 JUMPI PUSH2 0xD13 PUSH2 0x13A9 JUMP JUMPDEST JUMPDEST PUSH1 0x20 MUL PUSH1 0x20 ADD ADD MLOAD PUSH20 0xFFFFFFFFFFFFFFFFFFFFFFFFFFFFFFFFFFFFFFFF AND SUB PUSH2 0xD43 JUMPI PUSH1 0x1 SWAP4 POP POP POP POP PUSH2 0xD5E JUMP JUMPDEST DUP1 DUP1 PUSH2 0xD4E SWAP1 PUSH2 0x17F9 JUMP JUMPDEST SWAP2 POP POP PUSH2 0xCE1 JUMP JUMPDEST POP PUSH1 0x0 SWAP3 POP POP POP JUMPDEST SWAP2 SWAP1 POP JUMP JUMPDEST POP DUP1 SLOAD PUSH2 0xD6F SWAP1 PUSH2 0x1407 JUMP JUMPDEST PUSH1 0x0 DUP3 SSTORE DUP1 PUSH1 0x1F LT PUSH2 0xD81 JUMPI POP PUSH2 0xDA0 JUMP JUMPDEST PUSH1 0x1F ADD PUSH1 0x20 SWAP1 DIV SWAP1 PUSH1 0x0 MSTORE PUSH1 0x20 PUSH1 0x0 KECCAK256 SWAP1 DUP2 ADD SWAP1 PUSH2 0xD9F SWAP2 SWAP1 PUSH2 0xDA3 JUMP JUMPDEST JUMPDEST POP JUMP JUMPDEST JUMPDEST DUP1 DUP3 GT ISZERO PUSH2 0xDBC JUMPI PUSH1 0x0 DUP2 PUSH1 0x0 SWAP1 SSTORE POP PUSH1 0x1 ADD PUSH2 0xDA4 JUMP JUMPDEST POP SWAP1 JUMP JUMPDEST PUSH1 0x0 PUSH1 0x40 MLOAD SWAP1 POP SWAP1 JUMP JUMPDEST PUSH1 0x0 DUP1 REVERT JUMPDEST PUSH1 0x0 DUP1 REVERT JUMPDEST PUSH1 0x0 DUP1 REVERT JUMPDEST PUSH1 0x0 DUP1 REVERT JUMPDEST PUSH1 0x0 PUSH1 0x1F NOT PUSH1 0x1F DUP4 ADD AND SWAP1 POP SWAP2 SWAP1 POP JUMP JUMPDEST PUSH32 0x4E487B7100000000000000000000000000000000000000000000000000000000 PUSH1 0x0 MSTORE PUSH1 0x41 PUSH1 0x4 MSTORE PUSH1 0x24 PUSH1 0x0 REVERT JUMPDEST PUSH2 0xE27 DUP3 PUSH2 0xDDE JUMP JUMPDEST DUP2 ADD DUP2 DUP2 LT PUSH8 0xFFFFFFFFFFFFFFFF DUP3 GT OR ISZERO PUSH2 0xE46 JUMPI PUSH2 0xE45 PUSH2 0xDEF JUMP JUMPDEST JUMPDEST DUP1 PUSH1 0x40 MSTORE POP POP POP JUMP JUMPDEST PUSH1 0x0 PUSH2 0xE59 PUSH2 0xDC0 JUMP JUMPDEST SWAP1 POP PUSH2 0xE65 DUP3 DUP3 PUSH2 0xE1E JUMP JUMPDEST SWAP2 SWAP1 POP JUMP JUMPDEST PUSH1 0x0 PUSH8 0xFFFFFFFFFFFFFFFF DUP3 GT ISZERO PUSH2 0xE85 JUMPI PUSH2 0xE84 PUSH2 0xDEF JUMP JUMPDEST JUMPDEST PUSH2 0xE8E DUP3 PUSH2 0xDDE JUMP JUMPDEST SWAP1 POP PUSH1 0x20 DUP2 ADD SWAP1 POP SWAP2 SWAP1 POP JUMP JUMPDEST DUP3 DUP2 DUP4 CALLDATACOPY PUSH1 0x0 DUP4 DUP4 ADD MSTORE POP POP POP JUMP JUMPDEST PUSH1 0x0 PUSH2 0xEBD PUSH2 0xEB8 DUP5 PUSH2 0xE6A JUMP JUMPDEST PUSH2 0xE4F JUMP JUMPDEST SWAP1 POP DUP3 DUP2 MSTORE PUSH1 0x20 DUP2 ADD DUP5 DUP5 DUP5 ADD GT ISZERO PUSH2 0xED9 JUMPI PUSH2 0xED8 PUSH2 0xDD9 JUMP JUMPDEST JUMPDEST PUSH2 0xEE4 DUP5 DUP3 DUP6 PUSH2 0xE9B JUMP JUMPDEST POP SWAP4 SWAP3 POP POP POP JUMP JUMPDEST PUSH1 0x0 DUP3 PUSH1 0x1F DUP4 ADD SLT PUSH2 0xF01 JUMPI PUSH2 0xF00 PUSH2 0xDD4 JUMP JUMPDEST JUMPDEST DUP2 CALLDATALOAD PUSH2 0xF11 DUP5 DUP3 PUSH1 0x20 DUP7 ADD PUSH2 0xEAA JUMP JUMPDEST SWAP2 POP POP SWAP3 SWAP2 POP POP JUMP JUMPDEST PUSH1 0x0 DUP1 PUSH1 0x40 DUP4 DUP6 SUB SLT ISZERO PUSH2 0xF31 JUMPI PUSH2 0xF30 PUSH2 0xDCA JUMP JUMPDEST JUMPDEST PUSH1 0x0 DUP4 ADD CALLDATALOAD PUSH8 0xFFFFFFFFFFFFFFFF DUP2 GT ISZERO PUSH2 0xF4F JUMPI PUSH2 0xF4E PUSH2 0xDCF JUMP JUMPDEST JUMPDEST PUSH2 0xF5B DUP6 DUP3 DUP7 ADD PUSH2 0xEEC JUMP JUMPDEST SWAP3 POP POP PUSH1 0x20 DUP4 ADD CALLDATALOAD PUSH8 0xFFFFFFFFFFFFFFFF DUP2 GT ISZERO PUSH2 0xF7C JUMPI PUSH2 0xF7B PUSH2 0xDCF JUMP JUMPDEST JUMPDEST PUSH2 0xF88 DUP6 DUP3 DUP7 ADD PUSH2 0xEEC JUMP JUMPDEST SWAP2 POP POP SWAP3 POP SWAP3 SWAP1 POP JUMP JUMPDEST PUSH1 0x0 PUSH1 0x20 DUP3 DUP5 SUB SLT ISZERO PUSH2 0xFA8 JUMPI PUSH2 0xFA7 PUSH2 0xDCA JUMP JUMPDEST JUMPDEST PUSH1 0x0 DUP3 ADD CALLDATALOAD PUSH8 0xFFFFFFFFFFFFFFFF DUP2 GT ISZERO PUSH2 0xFC6 JUMPI PUSH2 0xFC5 PUSH2 0xDCF JUMP JUMPDEST JUMPDEST PUSH2 0xFD2 DUP5 DUP3 DUP6 ADD PUSH2 0xEEC JUMP JUMPDEST SWAP2 POP POP SWAP3 SWAP2 POP POP JUMP JUMPDEST PUSH1 0x0 DUP2 MLOAD SWAP1 POP SWAP2 SWAP1 POP JUMP JUMPDEST PUSH1 0x0 DUP3 DUP3 MSTORE PUSH1 0x20 DUP3 ADD SWAP1 POP SWAP3 SWAP2 POP POP JUMP JUMPDEST PUSH1 0x0 DUP2 SWAP1 POP PUSH1 0x20 DUP3 ADD SWAP1 POP SWAP2 SWAP1 POP JUMP JUMPDEST PUSH1 0x0 PUSH20 0xFFFFFFFFFFFFFFFFFFFFFFFFFFFFFFFFFFFFFFFF DUP3 AND SWAP1 POP SWAP2 SWAP1 POP JUMP JUMPDEST PUSH1 0x0 PUSH2 0x1032 DUP3 PUSH2 0x1007 JUMP JUMPDEST SWAP1 POP SWAP2 SWAP1 POP JUMP JUMPDEST PUSH2 0x1042 DUP2 PUSH2 0x1027 JUMP JUMPDEST DUP3 MSTORE POP POP JUMP JUMPDEST PUSH1 0x0 PUSH2 0x1054 DUP4 DUP4 PUSH2 0x1039 JUMP JUMPDEST PUSH1 0x20 DUP4 ADD SWAP1 POP SWAP3 SWAP2 POP POP JUMP JUMPDEST PUSH1 0x0 PUSH1 0x20 DUP3 ADD SWAP1 POP SWAP2 SWAP1 POP JUMP JUMPDEST PUSH1 0x0 PUSH2 0x1078 DUP3 PUSH2 0xFDB JUMP JUMPDEST PUSH2 0x1082 DUP2 DUP6 PUSH2 0xFE6 JUMP JUMPDEST SWAP4 POP PUSH2 0x108D DUP4 PUSH2 0xFF7 JUMP JUMPDEST DUP1 PUSH1 0x0 JUMPDEST DUP4 DUP2 LT ISZERO PUSH2 0x10BE JUMPI DUP2 MLOAD PUSH2 0x10A5 DUP9 DUP3 PUSH2 0x1048 JUMP JUMPDEST SWAP8 POP PUSH2 0x10B0 DUP4 PUSH2 0x1060 JUMP JUMPDEST SWAP3 POP POP PUSH1 0x1 DUP2 ADD SWAP1 POP PUSH2 0x1091 JUMP JUMPDEST POP DUP6 SWAP4 POP POP POP POP SWAP3 SWAP2 POP POP JUMP JUMPDEST PUSH1 0x0 DUP2 MLOAD SWAP1 POP SWAP2 SWAP1 POP JUMP JUMPDEST PUSH1 0x0 DUP3 DUP3 MSTORE PUSH1 0x20 DUP3 ADD SWAP1 POP SWAP3 SWAP2 POP POP JUMP JUMPDEST PUSH1 0x0 DUP2 SWAP1 POP PUSH1 0x20 DUP3 ADD SWAP1 POP SWAP2 SWAP1 POP JUMP JUMPDEST PUSH1 0x0 DUP2 MLOAD SWAP1 POP SWAP2 SWAP1 POP JUMP JUMPDEST PUSH1 0x0 DUP3 DUP3 MSTORE PUSH1 0x20 DUP3 ADD SWAP1 POP SWAP3 SWAP2 POP POP JUMP JUMPDEST PUSH1 0x0 JUMPDEST DUP4 DUP2 LT ISZERO PUSH2 0x1131 JUMPI DUP1 DUP3 ADD MLOAD DUP2 DUP5 ADD MSTORE PUSH1 0x20 DUP2 ADD SWAP1 POP PUSH2 0x1116 JUMP JUMPDEST PUSH1 0x0 DUP5 DUP5 ADD MSTORE POP POP POP POP JUMP JUMPDEST PUSH1 0x0 PUSH2 0x1148 DUP3 PUSH2 0x10F7 JUMP JUMPDEST PUSH2 0x1152 DUP2 DUP6 PUSH2 0x1102 JUMP JUMPDEST SWAP4 POP PUSH2 0x1162 DUP2 DUP6 PUSH1 0x20 DUP7 ADD PUSH2 0x1113 JUMP JUMPDEST PUSH2 0x116B DUP2 PUSH2 0xDDE JUMP JUMPDEST DUP5 ADD SWAP2 POP POP SWAP3 SWAP2 POP POP JUMP JUMPDEST PUSH1 0x0 PUSH2 0x1182 DUP4 DUP4 PUSH2 0x113D JUMP JUMPDEST SWAP1 POP SWAP3 SWAP2 POP POP JUMP JUMPDEST PUSH1 0x0 PUSH1 0x20 DUP3 ADD SWAP1 POP SWAP2 SWAP1 POP JUMP JUMPDEST PUSH1 0x0 PUSH2 0x11A2 DUP3 PUSH2 0x10CB JUMP JUMPDEST PUSH2 0x11AC DUP2 DUP6 PUSH2 0x10D6 JUMP JUMPDEST SWAP4 POP DUP4 PUSH1 0x20 DUP3 MUL DUP6 ADD PUSH2 0x11BE DUP6 PUSH2 0x10E7 JUMP JUMPDEST DUP1 PUSH1 0x0 JUMPDEST DUP6 DUP2 LT ISZERO PUSH2 0x11FA JUMPI DUP5 DUP5 SUB DUP10 MSTORE DUP2 MLOAD PUSH2 0x11DB DUP6 DUP3 PUSH2 0x1176 JUMP JUMPDEST SWAP5 POP PUSH2 0x11E6 DUP4 PUSH2 0x118A JUMP JUMPDEST SWAP3 POP PUSH1 0x20 DUP11 ADD SWAP10 POP POP PUSH1 0x1 DUP2 ADD SWAP1 POP PUSH2 0x11C2 JUMP JUMPDEST POP DUP3 SWAP8 POP DUP8 SWAP6 POP POP POP POP POP POP SWAP3 SWAP2 POP POP JUMP JUMPDEST PUSH1 0x0 PUSH1 0x40 DUP3 ADD SWAP1 POP DUP2 DUP2 SUB PUSH1 0x0 DUP4 ADD MSTORE PUSH2 0x1226 DUP2 DUP6 PUSH2 0x106D JUMP JUMPDEST SWAP1 POP DUP2 DUP2 SUB PUSH1 0x20 DUP4 ADD MSTORE PUSH2 0x123A DUP2 DUP5 PUSH2 0x1197 JUMP JUMPDEST SWAP1 POP SWAP4 SWAP3 POP POP POP JUMP JUMPDEST PUSH2 0x124C DUP2 PUSH2 0x1027 JUMP JUMPDEST DUP3 MSTORE POP POP JUMP JUMPDEST PUSH1 0x0 PUSH1 0x20 DUP3 ADD SWAP1 POP PUSH2 0x1267 PUSH1 0x0 DUP4 ADD DUP5 PUSH2 0x1243 JUMP JUMPDEST SWAP3 SWAP2 POP POP JUMP JUMPDEST PUSH1 0x0 DUP3 DUP3 MSTORE PUSH1 0x20 DUP3 ADD SWAP1 POP SWAP3 SWAP2 POP POP JUMP JUMPDEST PUSH32 0x496E76616C6964204E6F6465204944206C656E67746800000000000000000000 PUSH1 0x0 DUP3 ADD MSTORE POP JUMP JUMPDEST PUSH1 0x0 PUSH2 0x12B4 PUSH1 0x16 DUP4 PUSH2 0x126D JUMP JUMPDEST SWAP2 POP PUSH2 0x12BF DUP3 PUSH2 0x127E JUMP JUMPDEST PUSH1 0x20 DUP3 ADD SWAP1 POP SWAP2 SWAP1 POP JUMP JUMPDEST PUSH1 0x0 PUSH1 0x20 DUP3 ADD SWAP1 POP DUP2 DUP2 SUB PUSH1 0x0 DUP4 ADD MSTORE PUSH2 0x12E3 DUP2 PUSH2 0x12A7 JUMP JUMPDEST SWAP1 POP SWAP2 SWAP1 POP JUMP JUMPDEST PUSH32 0x53656E646572206973206E6F742077686974656C697374656400000000000000 PUSH1 0x0 DUP3 ADD MSTORE POP JUMP JUMPDEST PUSH1 0x0 PUSH2 0x1320 PUSH1 0x19 DUP4 PUSH2 0x126D JUMP JUMPDEST SWAP2 POP PUSH2 0x132B DUP3 PUSH2 0x12EA JUMP JUMPDEST PUSH1 0x20 DUP3 ADD SWAP1 POP SWAP2 SWAP1 POP JUMP JUMPDEST PUSH1 0x0 PUSH1 0x20 DUP3 ADD SWAP1 POP DUP2 DUP2 SUB PUSH1 0x0 DUP4 ADD MSTORE PUSH2 0x134F DUP2 PUSH2 0x1313 JUMP JUMPDEST SWAP1 POP SWAP2 SWAP1 POP JUMP JUMPDEST PUSH1 0x0 DUP2 SWAP1 POP SWAP3 SWAP2 POP POP JUMP JUMPDEST PUSH1 0x0 PUSH2 0x136C DUP3 PUSH2 0x10F7 JUMP JUMPDEST PUSH2 0x1376 DUP2 DUP6 PUSH2 0x1356 JUMP JUMPDEST SWAP4 POP PUSH2 0x1386 DUP2 DUP6 PUSH1 0x20 DUP7 ADD PUSH2 0x1113 JUMP JUMPDEST DUP1 DUP5 ADD SWAP2 POP POP SWAP3 SWAP2 POP POP JUMP JUMPDEST PUSH1 0x0 PUSH2 0x139E DUP3 DUP5 PUSH2 0x1361 JUMP JUMPDEST SWAP2 POP DUP2 SWAP1 POP SWAP3 SWAP2 POP POP JUMP JUMPDEST PUSH32 0x4E487B7100000000000000000000000000000000000000000000000000000000 PUSH1 0x0 MSTORE PUSH1 0x32 PUSH1 0x4 MSTORE PUSH1 0x24 PUSH1 0x0 REVERT JUMPDEST PUSH32 0x4E487B7100000000000000000000000000000000000000000000000000000000 PUSH1 0x0 MSTORE PUSH1 0x22 PUSH1 0x4 MSTORE PUSH1 0x24 PUSH1 0x0 REVERT JUMPDEST PUSH1 0x0 PUSH1 0x2 DUP3 DIV SWAP1 POP PUSH1 0x1 DUP3 AND DUP1 PUSH2 0x141F JUMPI PUSH1 0x7F DUP3 AND SWAP2 POP JUMPDEST PUSH1 0x20 DUP3 LT DUP2 SUB PUSH2 0x1432 JUMPI PUSH2 0x1431 PUSH2 0x13D8 JUMP JUMPDEST JUMPDEST POP SWAP2 SWAP1 POP JUMP JUMPDEST PUSH1 0x0 DUP2 SWAP1 POP DUP2 PUSH1 0x0 MSTORE PUSH1 0x20 PUSH1 0x0 KECCAK256 SWAP1 POP SWAP2 SWAP1 POP JUMP JUMPDEST PUSH1 0x0 DUP2 SLOAD PUSH2 0x145A DUP2 PUSH2 0x1407 JUMP JUMPDEST PUSH2 0x1464 DUP2 DUP7 PUSH2 0x1356 JUMP JUMPDEST SWAP5 POP PUSH1 0x1 DUP3 AND PUSH1 0x0 DUP2 EQ PUSH2 0x147F JUMPI PUSH1 0x1 DUP2 EQ PUSH2 0x1494 JUMPI PUSH2 0x14C7 JUMP JUMPDEST PUSH1 0xFF NOT DUP4 AND DUP7 MSTORE DUP2 ISZERO ISZERO DUP3 MUL DUP7 ADD SWAP4 POP PUSH2 0x14C7 JUMP JUMPDEST PUSH2 0x149D DUP6 PUSH2 0x1438 JUMP JUMPDEST PUSH1 0x0 JUMPDEST DUP4 DUP2 LT ISZERO PUSH2 0x14BF JUMPI DUP2 SLOAD DUP2 DUP10 ADD MSTORE PUSH1 0x1 DUP3 ADD SWAP2 POP PUSH1 0x20 DUP2 ADD SWAP1 POP PUSH2 0x14A0 JUMP JUMPDEST DUP4 DUP9 ADD SWAP6 POP POP POP JUMPDEST POP POP POP SWAP3 SWAP2 POP POP JUMP JUMPDEST PUSH1 0x0 PUSH2 0x14DC DUP3 DUP5 PUSH2 0x144D JUMP JUMPDEST SWAP2 POP DUP2 SWAP1 POP SWAP3 SWAP2 POP POP JUMP JUMPDEST PUSH1 0x0 PUSH1 0x20 PUSH1 0x1F DUP4 ADD DIV SWAP1 POP SWAP2 SWAP1 POP JUMP JUMPDEST PUSH1 0x0 DUP3 DUP3 SHL SWAP1 POP SWAP3 SWAP2 POP POP JUMP JUMPDEST PUSH1 0x0 PUSH1 0x8 DUP4 MUL PUSH2 0x1534 PUSH32 0xFFFFFFFFFFFFFFFFFFFFFFFFFFFFFFFFFFFFFFFFFFFFFFFFFFFFFFFFFFFFFFFF DUP3 PUSH2 0x14F7 JUMP JUMPDEST PUSH2 0x153E DUP7 DUP4 PUSH2 0x14F7 JUMP JUMPDEST SWAP6 POP DUP1 NOT DUP5 AND SWAP4 POP DUP1 DUP7 AND DUP5 OR SWAP3 POP POP POP SWAP4 SWAP3 POP POP POP JUMP JUMPDEST PUSH1 0x0 DUP2 SWAP1 POP SWAP2 SWAP1 POP JUMP JUMPDEST PUSH1 0x0 DUP2 SWAP1 POP SWAP2 SWAP1 POP JUMP JUMPDEST PUSH1 0x0 PUSH2 0x1585 PUSH2 0x1580 PUSH2 0x157B DUP5 PUSH2 0x1556 JUMP JUMPDEST PUSH2 0x1560 JUMP JUMPDEST PUSH2 0x1556 JUMP JUMPDEST SWAP1 POP SWAP2 SWAP1 POP JUMP JUMPDEST PUSH1 0x0 DUP2 SWAP1 POP SWAP2 SWAP1 POP JUMP JUMPDEST PUSH2 0x159F DUP4 PUSH2 0x156A JUMP JUMPDEST PUSH2 0x15B3 PUSH2 0x15AB DUP3 PUSH2 0x158C JUMP JUMPDEST DUP5 DUP5 SLOAD PUSH2 0x1504 JUMP JUMPDEST DUP3 SSTORE POP POP POP POP JUMP JUMPDEST PUSH1 0x0 SWAP1 JUMP JUMPDEST PUSH2 0x15C8 PUSH2 0x15BB JUMP JUMPDEST PUSH2 0x15D3 DUP2 DUP5 DUP5 PUSH2 0x1596 JUMP JUMPDEST POP POP POP JUMP JUMPDEST JUMPDEST DUP2 DUP2 LT ISZERO PUSH2 0x15F7 JUMPI PUSH2 0x15EC PUSH1 0x0 DUP3 PUSH2 0x15C0 JUMP JUMPDEST PUSH1 0x1 DUP2 ADD SWAP1 POP PUSH2 0x15D9 JUMP JUMPDEST POP POP JUMP JUMPDEST PUSH1 0x1F DUP3 GT ISZERO PUSH2 0x163C JUMPI PUSH2 0x160D DUP2 PUSH2 0x1438 JUMP JUMPDEST PUSH2 0x1616 DUP5 PUSH2 0x14E7 JUMP JUMPDEST DUP2 ADD PUSH1 0x20 DUP6 LT ISZERO PUSH2 0x1625 JUMPI DUP2 SWAP1 POP JUMPDEST PUSH2 0x1639 PUSH2 0x1631 DUP6 PUSH2 0x14E7 JUMP JUMPDEST DUP4 ADD DUP3 PUSH2 0x15D8 JUMP JUMPDEST POP POP JUMPDEST POP POP POP JUMP JUMPDEST PUSH1 0x0 DUP3 DUP3 SHR SWAP1 POP SWAP3 SWAP2 POP POP JUMP JUMPDEST PUSH1 0x0 PUSH2 0x165F PUSH1 0x0 NOT DUP5 PUSH1 0x8 MUL PUSH2 0x1641 JUMP JUMPDEST NOT DUP1 DUP4 AND SWAP2 POP POP SWAP3 SWAP2 POP POP JUMP JUMPDEST PUSH1 0x0 PUSH2 0x1678 DUP4 DUP4 PUSH2 0x164E JUMP JUMPDEST SWAP2 POP DUP3 PUSH1 0x2 MUL DUP3 OR SWAP1 POP SWAP3 SWAP2 POP POP JUMP JUMPDEST PUSH2 0x1691 DUP3 PUSH2 0x10F7 JUMP JUMPDEST PUSH8 0xFFFFFFFFFFFFFFFF DUP2 GT ISZERO PUSH2 0x16AA JUMPI PUSH2 0x16A9 PUSH2 0xDEF JUMP JUMPDEST JUMPDEST PUSH2 0x16B4 DUP3 SLOAD PUSH2 0x1407 JUMP JUMPDEST PUSH2 0x16BF DUP3 DUP3 DUP6 PUSH2 0x15FB JUMP JUMPDEST PUSH1 0x0 PUSH1 0x20 SWAP1 POP PUSH1 0x1F DUP4 GT PUSH1 0x1 DUP2 EQ PUSH2 0x16F2 JUMPI PUSH1 0x0 DUP5 ISZERO PUSH2 0x16E0 JUMPI DUP3 DUP8 ADD MLOAD SWAP1 POP JUMPDEST PUSH2 0x16EA DUP6 DUP3 PUSH2 0x166C JUMP JUMPDEST DUP7 SSTORE POP PUSH2 0x1752 JUMP JUMPDEST PUSH1 0x1F NOT DUP5 AND PUSH2 0x1700 DUP7 PUSH2 0x1438 JUMP JUMPDEST PUSH1 0x0 JUMPDEST DUP3 DUP2 LT ISZERO PUSH2 0x1728 JUMPI DUP5 DUP10 ADD MLOAD DUP3 SSTORE PUSH1 0x1 DUP3 ADD SWAP2 POP PUSH1 0x20 DUP6 ADD SWAP5 POP PUSH1 0x20 DUP2 ADD SWAP1 POP PUSH2 0x1703 JUMP JUMPDEST DUP7 DUP4 LT ISZERO PUSH2 0x1745 JUMPI DUP5 DUP10 ADD MLOAD PUSH2 0x1741 PUSH1 0x1F DUP10 AND DUP3 PUSH2 0x164E JUMP JUMPDEST DUP4 SSTORE POP JUMPDEST PUSH1 0x1 PUSH1 0x2 DUP9 MUL ADD DUP9 SSTORE POP POP POP JUMPDEST POP POP POP POP POP POP JUMP JUMPDEST PUSH1 0x0 PUSH2 0x1765 DUP3 PUSH2 0x10F7 JUMP JUMPDEST PUSH2 0x176F DUP2 DUP6 PUSH2 0x126D JUMP JUMPDEST SWAP4 POP PUSH2 0x177F DUP2 DUP6 PUSH1 0x20 DUP7 ADD PUSH2 0x1113 JUMP JUMPDEST PUSH2 0x1788 DUP2 PUSH2 0xDDE JUMP JUMPDEST DUP5 ADD SWAP2 POP POP SWAP3 SWAP2 POP POP JUMP JUMPDEST PUSH1 0x0 PUSH1 0x40 DUP3 ADD SWAP1 POP DUP2 DUP2 SUB PUSH1 0x0 DUP4 ADD MSTORE PUSH2 0x17AD DUP2 DUP6 PUSH2 0x175A JUMP JUMPDEST SWAP1 POP DUP2 DUP2 SUB PUSH1 0x20 DUP4 ADD MSTORE PUSH2 0x17C1 DUP2 DUP5 PUSH2 0x175A JUMP JUMPDEST SWAP1 POP SWAP4 SWAP3 POP POP POP JUMP JUMPDEST PUSH32 0x4E487B7100000000000000000000000000000000000000000000000000000000 PUSH1 0x0 MSTORE PUSH1 0x11 PUSH1 0x4 MSTORE PUSH1 0x24 PUSH1 0x0 REVERT JUMPDEST PUSH1 0x0 PUSH2 0x1804 DUP3 PUSH2 0x1556 JUMP JUMPDEST SWAP2 POP PUSH32 0xFFFFFFFFFFFFFFFFFFFFFFFFFFFFFFFFFFFFFFFFFFFFFFFFFFFFFFFFFFFFFFFF DUP3 SUB PUSH2 0x1836 JUMPI PUSH2 0x1835 PUSH2 0x17CA JUMP JUMPDEST JUMPDEST PUSH1 0x1 DUP3 ADD SWAP1 POP SWAP2 SWAP1 POP JUMP JUMPDEST PUSH32 0x4F6C64206E6F6465204944206E6F7420666F756E6420666F7220746865206F77 PUSH1 0x0 DUP3 ADD MSTORE PUSH32 0x6E65720000000000000000000000000000000000000000000000000000000000 PUSH1 0x20 DUP3 ADD MSTORE POP JUMP JUMPDEST PUSH1 0x0 PUSH2 0x189D PUSH1 0x23 DUP4 PUSH2 0x126D JUMP JUMPDEST SWAP2 POP PUSH2 0x18A8 DUP3 PUSH2 0x1841 JUMP JUMPDEST PUSH1 0x40 DUP3 ADD SWAP1 POP SWAP2 SWAP1 POP JUMP JUMPDEST PUSH1 0x0 PUSH1 0x20 DUP3 ADD SWAP1 POP DUP2 DUP2 SUB PUSH1 0x0 DUP4 ADD MSTORE PUSH2 0x18CC DUP2 PUSH2 0x1890 JUMP JUMPDEST SWAP1 POP SWAP2 SWAP1 POP JUMP JUMPDEST PUSH32 0x4F776E657220616C72656164792068617320352072656769737465726564206E PUSH1 0x0 DUP3 ADD MSTORE PUSH32 0x6F64657300000000000000000000000000000000000000000000000000000000 PUSH1 0x20 DUP3 ADD MSTORE POP JUMP JUMPDEST PUSH1 0x0 PUSH2 0x192F PUSH1 0x24 DUP4 PUSH2 0x126D JUMP JUMPDEST SWAP2 POP PUSH2 0x193A DUP3 PUSH2 0x18D3 JUMP JUMPDEST PUSH1 0x40 DUP3 ADD SWAP1 POP SWAP2 SWAP1 POP JUMP JUMPDEST PUSH1 0x0 PUSH1 0x20 DUP3 ADD SWAP1 POP DUP2 DUP2 SUB PUSH1 0x0 DUP4 ADD MSTORE PUSH2 0x195E DUP2 PUSH2 0x1922 JUMP JUMPDEST SWAP1 POP SWAP2 SWAP1 POP JUMP JUMPDEST PUSH1 0x0 PUSH1 0x20 DUP3 ADD SWAP1 POP DUP2 DUP2 SUB PUSH1 0x0 DUP4 ADD MSTORE PUSH2 0x197F DUP2 DUP5 PUSH2 0x175A JUMP JUMPDEST SWAP1 POP SWAP3 SWAP2 POP POP JUMP JUMPDEST PUSH1 0x0 PUSH2 0x1992 DUP3 PUSH2 0x1556 JUMP JUMPDEST SWAP2 POP PUSH2 0x199D DUP4 PUSH2 0x1556 JUMP JUMPDEST SWAP3 POP DUP3 DUP3 ADD SWAP1 POP DUP1 DUP3 GT ISZERO PUSH2 0x19B5 JUMPI PUSH2 0x19B4 PUSH2 0x17CA JUMP JUMPDEST JUMPDEST SWAP3 SWAP2 POP POP JUMP JUMPDEST PUSH1 0x0 PUSH2 0x19C6 DUP3 PUSH2 0x1556 JUMP JUMPDEST SWAP2 POP PUSH2 0x19D1 DUP4 PUSH2 0x1556 JUMP JUMPDEST SWAP3 POP DUP3 DUP3 SUB SWAP1 POP DUP2 DUP2 GT ISZERO PUSH2 0x19E9 JUMPI PUSH2 0x19E8 PUSH2 0x17CA JUMP JUMPDEST JUMPDEST SWAP3 SWAP2 POP POP JUMP JUMPDEST PUSH1 0x0 DUP2 SLOAD SWAP1 POP PUSH2 0x19FE DUP2 PUSH2 0x1407 JUMP JUMPDEST SWAP1 POP SWAP2 SWAP1 POP JUMP JUMPDEST DUP2 DUP2 SUB PUSH2 0x1A13 JUMPI POP POP PUSH2 0x1AEB JUMP JUMPDEST PUSH2 0x1A1C DUP3 PUSH2 0x19EF JUMP JUMPDEST PUSH8 0xFFFFFFFFFFFFFFFF DUP2 GT ISZERO PUSH2 0x1A35 JUMPI PUSH2 0x1A34 PUSH2 0xDEF JUMP JUMPDEST JUMPDEST PUSH2 0x1A3F DUP3 SLOAD PUSH2 0x1407 JUMP JUMPDEST PUSH2 0x1A4A DUP3 DUP3 DUP6 PUSH2 0x15FB JUMP JUMPDEST PUSH1 0x0 PUSH1 0x1F DUP4 GT PUSH1 0x1 DUP2 EQ PUSH2 0x1A79 JUMPI PUSH1 0x0 DUP5 ISZERO PUSH2 0x1A67 JUMPI DUP3 DUP8 ADD SLOAD SWAP1 POP JUMPDEST PUSH2 0x1A71 DUP6 DUP3 PUSH2 0x166C JUMP JUMPDEST DUP7 SSTORE POP PUSH2 0x1AE4 JUMP JUMPDEST PUSH1 0x1F NOT DUP5 AND PUSH2 0x1A87 DUP8 PUSH2 0x1438 JUMP JUMPDEST SWAP7 POP PUSH2 0x1A92 DUP7 PUSH2 0x1438 JUMP JUMPDEST PUSH1 0x0 JUMPDEST DUP3 DUP2 LT ISZERO PUSH2 0x1ABA JUMPI DUP5 DUP10 ADD SLOAD DUP3 SSTORE PUSH1 0x1 DUP3 ADD SWAP2 POP PUSH1 0x1 DUP6 ADD SWAP5 POP PUSH1 0x20 DUP2 ADD SWAP1 POP PUSH2 0x1A95 JUMP JUMPDEST DUP7 DUP4 LT ISZERO PUSH2 0x1AD7 JUMPI DUP5 DUP10 ADD SLOAD PUSH2 0x1AD3 PUSH1 0x1F DUP10 AND DUP3 PUSH2 0x164E JUMP JUMPDEST DUP4 SSTORE POP JUMPDEST PUSH1 0x1 PUSH1 0x2 DUP9 MUL ADD DUP9 SSTORE POP POP POP JUMPDEST POP POP POP POP POP POP JUMPDEST JUMP JUMPDEST PUSH32 0x4E487B7100000000000000000000000000000000000000000000000000000000 PUSH1 0x0 MSTORE PUSH1 0x31 PUSH1 0x4 MSTORE PUSH1 0x24 PUSH1 0x0 REVERT JUMPDEST PUSH32 0x4E6F6465206E6F7420666F756E6420666F7220746865206F776E657200000000 PUSH1 0x0 DUP3 ADD MSTORE POP JUMP JUMPDEST PUSH1 0x0 PUSH2 0x1B52 PUSH1 0x1C DUP4 PUSH2 0x126D JUMP JUMPDEST SWAP2 POP PUSH2 0x1B5D DUP3 PUSH2 0x1B1C JUMP JUMPDEST PUSH1 0x20 DUP3 ADD SWAP1 POP SWAP2 SWAP1 POP JUMP JUMPDEST PUSH1 0x0 PUSH1 0x20 DUP3 ADD SWAP1 POP DUP2 DUP2 SUB PUSH1 0x0 DUP4 ADD MSTORE PUSH2 0x1B81 DUP2 PUSH2 0x1B45 JUMP JUMPDEST SWAP1 POP SWAP2 SWAP1 POP JUMP JUMPDEST PUSH1 0x0 PUSH8 0xFFFFFFFFFFFFFFFF DUP3 GT ISZERO PUSH2 0x1BA3 JUMPI PUSH2 0x1BA2 PUSH2 0xDEF JUMP JUMPDEST JUMPDEST PUSH1 0x20 DUP3 MUL SWAP1 POP PUSH1 0x20 DUP2 ADD SWAP1 POP SWAP2 SWAP1 POP JUMP JUMPDEST PUSH1 0x0 DUP1 REVERT JUMPDEST PUSH2 0x1BC2 DUP2 PUSH2 0x1027 JUMP JUMPDEST DUP2 EQ PUSH2 0x1BCD JUMPI PUSH1 0x0 DUP1 REVERT JUMPDEST POP JUMP JUMPDEST PUSH1 0x0 DUP2 MLOAD SWAP1 POP PUSH2 0x1BDF DUP2 PUSH2 0x1BB9 JUMP JUMPDEST SWAP3 SWAP2 POP POP JUMP JUMPDEST PUSH1 0x0 PUSH2 0x1BF8 PUSH2 0x1BF3 DUP5 PUSH2 0x1B88 JUMP JUMPDEST PUSH2 0xE4F JUMP JUMPDEST SWAP1 POP DUP1 DUP4 DUP3 MSTORE PUSH1 0x20 DUP3 ADD SWAP1 POP PUSH1 0x20 DUP5 MUL DUP4 ADD DUP6 DUP2 GT ISZERO PUSH2 0x1C1B JUMPI PUSH2 0x1C1A PUSH2 0x1BB4 JUMP JUMPDEST JUMPDEST DUP4 JUMPDEST DUP2 DUP2 LT ISZERO PUSH2 0x1C44 JUMPI DUP1 PUSH2 0x1C30 DUP9 DUP3 PUSH2 0x1BD0 JUMP JUMPDEST DUP5 MSTORE PUSH1 0x20 DUP5 ADD SWAP4 POP POP PUSH1 0x20 DUP2 ADD SWAP1 POP PUSH2 0x1C1D JUMP JUMPDEST POP POP POP SWAP4 SWAP3 POP POP POP JUMP JUMPDEST PUSH1 0x0 DUP3 PUSH1 0x1F DUP4 ADD SLT PUSH2 0x1C63 JUMPI PUSH2 0x1C62 PUSH2 0xDD4 JUMP JUMPDEST JUMPDEST DUP2 MLOAD PUSH2 0x1C73 DUP5 DUP3 PUSH1 0x20 DUP7 ADD PUSH2 0x1BE5 JUMP JUMPDEST SWAP2 POP POP SWAP3 SWAP2 POP POP JUMP JUMPDEST PUSH1 0x0 PUSH1 0x20 DUP3 DUP5 SUB SLT ISZERO PUSH2 0x1C92 JUMPI PUSH2 0x1C91 PUSH2 0xDCA JUMP JUMPDEST JUMPDEST PUSH1 0x0 DUP3 ADD MLOAD PUSH8 0xFFFFFFFFFFFFFFFF DUP2 GT ISZERO PUSH2 0x1CB0 JUMPI PUSH2 0x1CAF PUSH2 0xDCF JUMP JUMPDEST JUMPDEST PUSH2 0x1CBC DUP5 DUP3 DUP6 ADD PUSH2 0x1C4E JUMP JUMPDEST SWAP2 POP POP SWAP3 SWAP2 POP POP JUMP INVALID LOG2 PUSH5 0x6970667358 0x22 SLT KECCAK256 0x49 SELFBALANCE PUSH6 0x9A44E6EDD18D 0xD PUSH10 0x2CD089292703B2951226 0x25 PUSH18 0x29934C10BFC9B3071664736F6C6343000812 STOP CALLER "
		},
		"gasEstimates": {
			"creation": {
				"codeDepositCost": "1483800",
				"executionCost": "infinite",
				"totalCost": "infinite"
			},
			"external": {
				"deleteNode(string)": "infinite",
				"getAllAddresses()": "infinite",
				"modifyNode(string,string)": "infinite",
				"registerNode(string)": "infinite",
				"voterWhitelisterAddress()": "2580"
			},
			"internal": {
				"isAddressWhitelisted(address)": "infinite"
			}
		},
		"methodIdentifiers": {
			"deleteNode(string)": "a0c15b77",
			"getAllAddresses()": "9516a104",
			"modifyNode(string,string)": "06ed15a8",
			"registerNode(string)": "27c6f43e",
			"voterWhitelisterAddress()": "cfc64a03"
		}
	},
	"abi": [
		{
			"inputs": [
				{
					"internalType": "address",
					"name": "_voterWhitelisterAddress",
					"type": "address"
				}
			],
			"stateMutability": "nonpayable",
			"type": "constructor"
		},
		{
			"anonymous": false,
			"inputs": [
				{
					"indexed": true,
					"internalType": "address",
					"name": "owner",
					"type": "address"
				},
				{
					"indexed": false,
					"internalType": "string",
					"name": "nodeID",
					"type": "string"
				}
			],
			"name": "NodeDeleted",
			"type": "event"
		},
		{
			"anonymous": false,
			"inputs": [
				{
					"indexed": true,
					"internalType": "address",
					"name": "owner",
					"type": "address"
				},
				{
					"indexed": false,
					"internalType": "string",
					"name": "oldNodeID",
					"type": "string"
				},
				{
					"indexed": false,
					"internalType": "string",
					"name": "newNodeID",
					"type": "string"
				}
			],
			"name": "NodeModified",
			"type": "event"
		},
		{
			"anonymous": false,
			"inputs": [
				{
					"indexed": true,
					"internalType": "address",
					"name": "owner",
					"type": "address"
				},
				{
					"indexed": false,
					"internalType": "string",
					"name": "nodeID",
					"type": "string"
				}
			],
			"name": "NodeRegistered",
			"type": "event"
		},
		{
			"inputs": [
				{
					"internalType": "string",
					"name": "nodeID",
					"type": "string"
				}
			],
			"name": "deleteNode",
			"outputs": [],
			"stateMutability": "nonpayable",
			"type": "function"
		},
		{
			"inputs": [],
			"name": "getAllAddresses",
			"outputs": [
				{
					"internalType": "address[]",
					"name": "allOwners",
					"type": "address[]"
				},
				{
					"internalType": "string[]",
					"name": "nodeIDs",
					"type": "string[]"
				}
			],
			"stateMutability": "view",
			"type": "function"
		},
		{
			"inputs": [
				{
					"internalType": "string",
					"name": "oldNodeID",
					"type": "string"
				},
				{
					"internalType": "string",
					"name": "newNodeID",
					"type": "string"
				}
			],
			"name": "modifyNode",
			"outputs": [],
			"stateMutability": "nonpayable",
			"type": "function"
		},
		{
			"inputs": [
				{
					"internalType": "string",
					"name": "nodeID",
					"type": "string"
				}
			],
			"name": "registerNode",
			"outputs": [],
			"stateMutability": "nonpayable",
			"type": "function"
		},
		{
			"inputs": [],
			"name": "voterWhitelisterAddress",
			"outputs": [
				{
					"internalType": "address",
					"name": "",
					"type": "address"
				}
			],
			"stateMutability": "view",
			"type": "function"
		}
	]
}